{
  "contracts/TokenSaleSkale.sol": {
    "TokenSaleSkale": {
      "abi": [
        {
          "inputs": [
            {
              "internalType": "address",
              "name": "_swapRouter",
              "type": "address"
            },
            {
              "internalType": "address",
              "name": "_factory",
              "type": "address"
            },
            {
              "internalType": "address",
              "name": "_usdt",
              "type": "address"
            },
            {
              "internalType": "address",
              "name": "_treasury",
              "type": "address"
            },
            {
              "internalType": "uint256",
              "name": "_usdtCap",
              "type": "uint256"
            }
          ],
          "stateMutability": "nonpayable",
          "type": "constructor"
        },
        {
          "inputs": [],
          "name": "BelowMinimumPurchase",
          "type": "error"
        },
        {
          "inputs": [],
          "name": "ExceedsMaximumPurchase",
          "type": "error"
        },
        {
          "inputs": [],
          "name": "InvalidAddress",
          "type": "error"
        },
        {
          "inputs": [],
          "name": "InvalidAmount",
          "type": "error"
        },
        {
          "inputs": [],
          "name": "InvalidLimits",
          "type": "error"
        },
        {
          "inputs": [],
          "name": "InvalidPaymentToken",
          "type": "error"
        },
        {
          "inputs": [],
          "name": "InvalidReferralPercentage",
          "type": "error"
        },
        {
          "inputs": [],
          "name": "InvalidReferrer",
          "type": "error"
        },
        {
          "inputs": [],
          "name": "InvalidStageId",
          "type": "error"
        },
        {
          "inputs": [],
          "name": "NoEarningsToClaim",
          "type": "error"
        },
        {
          "inputs": [],
          "name": "NoLiquidityPool",
          "type": "error"
        },
        {
          "inputs": [
            {
              "internalType": "address",
              "name": "owner",
              "type": "address"
            }
          ],
          "name": "OwnableInvalidOwner",
          "type": "error"
        },
        {
          "inputs": [
            {
              "internalType": "address",
              "name": "account",
              "type": "address"
            }
          ],
          "name": "OwnableUnauthorizedAccount",
          "type": "error"
        },
        {
          "inputs": [],
          "name": "ReentrancyGuardReentrantCall",
          "type": "error"
        },
        {
          "inputs": [],
          "name": "ReferralClaimsDisabled",
          "type": "error"
        },
        {
          "inputs": [
            {
              "internalType": "address",
              "name": "token",
              "type": "address"
            }
          ],
          "name": "SafeERC20FailedOperation",
          "type": "error"
        },
        {
          "inputs": [],
          "name": "SaleNotActive",
          "type": "error"
        },
        {
          "inputs": [],
          "name": "StageLimitExceeded",
          "type": "error"
        },
        {
          "inputs": [],
          "name": "StageNotActive",
          "type": "error"
        },
        {
          "inputs": [],
          "name": "TransferFailed",
          "type": "error"
        },
        {
          "anonymous": false,
          "inputs": [
            {
              "indexed": true,
              "internalType": "address",
              "name": "previousOwner",
              "type": "address"
            },
            {
              "indexed": true,
              "internalType": "address",
              "name": "newOwner",
              "type": "address"
            }
          ],
          "name": "OwnershipTransferred",
          "type": "event"
        },
        {
          "anonymous": false,
          "inputs": [
            {
              "indexed": true,
              "internalType": "address",
              "name": "user",
              "type": "address"
            },
            {
              "indexed": true,
              "internalType": "address",
              "name": "paymentToken",
              "type": "address"
            },
            {
              "indexed": false,
              "internalType": "uint256",
              "name": "paymentAmount",
              "type": "uint256"
            },
            {
              "indexed": false,
              "internalType": "uint256",
              "name": "usdtAmount",
              "type": "uint256"
            },
            {
              "indexed": true,
              "internalType": "uint256",
              "name": "stageId",
              "type": "uint256"
            }
          ],
          "name": "Purchase",
          "type": "event"
        },
        {
          "anonymous": false,
          "inputs": [
            {
              "indexed": false,
              "internalType": "uint256",
              "name": "newMin",
              "type": "uint256"
            },
            {
              "indexed": false,
              "internalType": "uint256",
              "name": "newMax",
              "type": "uint256"
            }
          ],
          "name": "PurchaseLimitsUpdated",
          "type": "event"
        },
        {
          "anonymous": false,
          "inputs": [
            {
              "indexed": true,
              "internalType": "address",
              "name": "referrer",
              "type": "address"
            },
            {
              "indexed": false,
              "internalType": "uint256",
              "name": "amount",
              "type": "uint256"
            }
          ],
          "name": "ReferralClaimed",
          "type": "event"
        },
        {
          "anonymous": false,
          "inputs": [
            {
              "indexed": false,
              "internalType": "bool",
              "name": "enabled",
              "type": "bool"
            }
          ],
          "name": "ReferralClaimsStatusChanged",
          "type": "event"
        },
        {
          "anonymous": false,
          "inputs": [
            {
              "indexed": true,
              "internalType": "address",
              "name": "referrer",
              "type": "address"
            },
            {
              "indexed": true,
              "internalType": "address",
              "name": "referred",
              "type": "address"
            },
            {
              "indexed": false,
              "internalType": "uint256",
              "name": "level",
              "type": "uint256"
            },
            {
              "indexed": false,
              "internalType": "uint256",
              "name": "usdtAmount",
              "type": "uint256"
            },
            {
              "indexed": false,
              "internalType": "uint256",
              "name": "earnedAmount",
              "type": "uint256"
            }
          ],
          "name": "ReferralEarning",
          "type": "event"
        },
        {
          "anonymous": false,
          "inputs": [
            {
              "indexed": false,
              "internalType": "uint256",
              "name": "level1Percentage",
              "type": "uint256"
            },
            {
              "indexed": false,
              "internalType": "uint256",
              "name": "level2Percentage",
              "type": "uint256"
            }
          ],
          "name": "ReferralPercentagesUpdated",
          "type": "event"
        },
        {
          "anonymous": false,
          "inputs": [
            {
              "indexed": false,
              "internalType": "bool",
              "name": "active",
              "type": "bool"
            }
          ],
          "name": "SaleStatusChanged",
          "type": "event"
        },
        {
          "anonymous": false,
          "inputs": [
            {
              "indexed": true,
              "internalType": "uint256",
              "name": "stageId",
              "type": "uint256"
            }
          ],
          "name": "StageActivated",
          "type": "event"
        },
        {
          "anonymous": false,
          "inputs": [
            {
              "indexed": true,
              "internalType": "uint256",
              "name": "stageId",
              "type": "uint256"
            },
            {
              "indexed": false,
              "internalType": "uint256",
              "name": "usdtCap",
              "type": "uint256"
            },
            {
              "indexed": false,
              "internalType": "uint256",
              "name": "minPurchase",
              "type": "uint256"
            },
            {
              "indexed": false,
              "internalType": "uint256",
              "name": "maxPurchase",
              "type": "uint256"
            }
          ],
          "name": "StageAdded",
          "type": "event"
        },
        {
          "anonymous": false,
          "inputs": [
            {
              "indexed": true,
              "internalType": "uint256",
              "name": "stageId",
              "type": "uint256"
            }
          ],
          "name": "StageDeactivated",
          "type": "event"
        },
        {
          "anonymous": false,
          "inputs": [
            {
              "indexed": true,
              "internalType": "uint256",
              "name": "stageId",
              "type": "uint256"
            },
            {
              "indexed": false,
              "internalType": "uint256",
              "name": "usdtCap",
              "type": "uint256"
            },
            {
              "indexed": false,
              "internalType": "uint256",
              "name": "minPurchase",
              "type": "uint256"
            },
            {
              "indexed": false,
              "internalType": "uint256",
              "name": "maxPurchase",
              "type": "uint256"
            }
          ],
          "name": "StageUpdated",
          "type": "event"
        },
        {
          "anonymous": false,
          "inputs": [
            {
              "indexed": false,
              "internalType": "address",
              "name": "newTreasury",
              "type": "address"
            }
          ],
          "name": "TreasuryUpdated",
          "type": "event"
        },
        {
          "inputs": [],
          "name": "MAX_REFERRAL_PERCENTAGE",
          "outputs": [
            {
              "internalType": "uint256",
              "name": "",
              "type": "uint256"
            }
          ],
          "stateMutability": "view",
          "type": "function"
        },
        {
          "inputs": [],
          "name": "USDT",
          "outputs": [
            {
              "internalType": "contract IERC20",
              "name": "",
              "type": "address"
            }
          ],
          "stateMutability": "view",
          "type": "function"
        },
        {
          "inputs": [
            {
              "internalType": "uint256",
              "name": "_stageId",
              "type": "uint256"
            }
          ],
          "name": "activateStage",
          "outputs": [],
          "stateMutability": "nonpayable",
          "type": "function"
        },
        {
          "inputs": [
            {
              "internalType": "uint256",
              "name": "_usdtCap",
              "type": "uint256"
            },
            {
              "internalType": "uint256",
              "name": "_minPurchase",
              "type": "uint256"
            },
            {
              "internalType": "uint256",
              "name": "_maxPurchase",
              "type": "uint256"
            }
          ],
          "name": "addStage",
          "outputs": [
            {
              "internalType": "uint256",
              "name": "",
              "type": "uint256"
            }
          ],
          "stateMutability": "nonpayable",
          "type": "function"
        },
        {
          "inputs": [],
          "name": "claimReferralEarnings",
          "outputs": [],
          "stateMutability": "nonpayable",
          "type": "function"
        },
        {
          "inputs": [
            {
              "internalType": "address",
              "name": "",
              "type": "address"
            }
          ],
          "name": "claimedEarnings",
          "outputs": [
            {
              "internalType": "uint256",
              "name": "",
              "type": "uint256"
            }
          ],
          "stateMutability": "view",
          "type": "function"
        },
        {
          "inputs": [],
          "name": "currentStageId",
          "outputs": [
            {
              "internalType": "uint256",
              "name": "",
              "type": "uint256"
            }
          ],
          "stateMutability": "view",
          "type": "function"
        },
        {
          "inputs": [],
          "name": "deactivateCurrentStage",
          "outputs": [],
          "stateMutability": "nonpayable",
          "type": "function"
        },
        {
          "inputs": [
            {
              "internalType": "address",
              "name": "tokenIn",
              "type": "address"
            },
            {
              "internalType": "address",
              "name": "tokenOut",
              "type": "address"
            }
          ],
          "name": "getBestPool",
          "outputs": [
            {
              "internalType": "address",
              "name": "",
              "type": "address"
            }
          ],
          "stateMutability": "view",
          "type": "function"
        },
        {
          "inputs": [
            {
              "internalType": "address",
              "name": "_user",
              "type": "address"
            }
          ],
          "name": "getPendingReferralEarnings",
          "outputs": [
            {
              "internalType": "uint256",
              "name": "",
              "type": "uint256"
            }
          ],
          "stateMutability": "view",
          "type": "function"
        },
        {
          "inputs": [],
          "name": "getPublicSaleInfo",
          "outputs": [
            {
              "components": [
                {
                  "internalType": "uint256",
                  "name": "totalStages",
                  "type": "uint256"
                },
                {
                  "internalType": "uint256",
                  "name": "activeStageId",
                  "type": "uint256"
                },
                {
                  "internalType": "uint256",
                  "name": "globalTotalContributions",
                  "type": "uint256"
                },
                {
                  "components": [
                    {
                      "internalType": "uint256",
                      "name": "stageId",
                      "type": "uint256"
                    },
                    {
                      "internalType": "uint256",
                      "name": "usdtCap",
                      "type": "uint256"
                    },
                    {
                      "internalType": "uint256",
                      "name": "totalRaised",
                      "type": "uint256"
                    },
                    {
                      "internalType": "uint256",
                      "name": "minimumPurchase",
                      "type": "uint256"
                    },
                    {
                      "internalType": "uint256",
                      "name": "maximumPurchase",
                      "type": "uint256"
                    },
                    {
                      "internalType": "bool",
                      "name": "active",
                      "type": "bool"
                    }
                  ],
                  "internalType": "struct TokenSaleSkale.StageInfo",
                  "name": "currentStage",
                  "type": "tuple"
                },
                {
                  "components": [
                    {
                      "internalType": "uint256",
                      "name": "stageId",
                      "type": "uint256"
                    },
                    {
                      "internalType": "uint256",
                      "name": "usdtCap",
                      "type": "uint256"
                    },
                    {
                      "internalType": "uint256",
                      "name": "totalRaised",
                      "type": "uint256"
                    },
                    {
                      "internalType": "uint256",
                      "name": "minimumPurchase",
                      "type": "uint256"
                    },
                    {
                      "internalType": "uint256",
                      "name": "maximumPurchase",
                      "type": "uint256"
                    },
                    {
                      "internalType": "bool",
                      "name": "active",
                      "type": "bool"
                    }
                  ],
                  "internalType": "struct TokenSaleSkale.StageInfo[]",
                  "name": "allStages",
                  "type": "tuple[]"
                },
                {
                  "internalType": "bool",
                  "name": "saleActive",
                  "type": "bool"
                }
              ],
              "internalType": "struct TokenSaleSkale.PublicSaleInfo",
              "name": "info",
              "type": "tuple"
            }
          ],
          "stateMutability": "view",
          "type": "function"
        },
        {
          "inputs": [
            {
              "internalType": "address",
              "name": "_user",
              "type": "address"
            }
          ],
          "name": "getReferralInfo",
          "outputs": [
            {
              "components": [
                {
                  "internalType": "uint256",
                  "name": "totalEarned",
                  "type": "uint256"
                },
                {
                  "internalType": "uint256",
                  "name": "claimedAmount",
                  "type": "uint256"
                },
                {
                  "internalType": "uint256",
                  "name": "pendingAmount",
                  "type": "uint256"
                },
                {
                  "internalType": "uint256",
                  "name": "level1Earnings",
                  "type": "uint256"
                },
                {
                  "internalType": "uint256",
                  "name": "level2Earnings",
                  "type": "uint256"
                }
              ],
              "internalType": "struct TokenSaleSkale.ReferralInfo",
              "name": "info",
              "type": "tuple"
            }
          ],
          "stateMutability": "view",
          "type": "function"
        },
        {
          "inputs": [],
          "name": "getReferralPercentages",
          "outputs": [
            {
              "internalType": "uint256",
              "name": "level1",
              "type": "uint256"
            },
            {
              "internalType": "uint256",
              "name": "level2",
              "type": "uint256"
            }
          ],
          "stateMutability": "view",
          "type": "function"
        },
        {
          "inputs": [
            {
              "internalType": "uint256",
              "name": "_stageId",
              "type": "uint256"
            }
          ],
          "name": "getStageInfo",
          "outputs": [
            {
              "internalType": "uint256",
              "name": "usdtCap",
              "type": "uint256"
            },
            {
              "internalType": "uint256",
              "name": "totalRaised",
              "type": "uint256"
            },
            {
              "internalType": "uint256",
              "name": "stageMinimumPurchase",
              "type": "uint256"
            },
            {
              "internalType": "uint256",
              "name": "stageMaximumPurchase",
              "type": "uint256"
            },
            {
              "internalType": "bool",
              "name": "active",
              "type": "bool"
            }
          ],
          "stateMutability": "view",
          "type": "function"
        },
        {
          "inputs": [
            {
              "internalType": "address",
              "name": "_user",
              "type": "address"
            }
          ],
          "name": "getUserInfo",
          "outputs": [
            {
              "components": [
                {
                  "internalType": "uint256",
                  "name": "totalContributions",
                  "type": "uint256"
                },
                {
                  "internalType": "uint256",
                  "name": "numberOfStagesParticipated",
                  "type": "uint256"
                },
                {
                  "internalType": "uint256",
                  "name": "currentStageContribution",
                  "type": "uint256"
                },
                {
                  "components": [
                    {
                      "internalType": "uint256",
                      "name": "stageId",
                      "type": "uint256"
                    },
                    {
                      "internalType": "uint256",
                      "name": "contribution",
                      "type": "uint256"
                    },
                    {
                      "internalType": "bool",
                      "name": "participated",
                      "type": "bool"
                    }
                  ],
                  "internalType": "struct TokenSaleSkale.UserStageData[]",
                  "name": "stageData",
                  "type": "tuple[]"
                },
                {
                  "components": [
                    {
                      "internalType": "uint256",
                      "name": "totalEarned",
                      "type": "uint256"
                    },
                    {
                      "internalType": "uint256",
                      "name": "claimedAmount",
                      "type": "uint256"
                    },
                    {
                      "internalType": "uint256",
                      "name": "pendingAmount",
                      "type": "uint256"
                    },
                    {
                      "internalType": "uint256",
                      "name": "level1Earnings",
                      "type": "uint256"
                    },
                    {
                      "internalType": "uint256",
                      "name": "level2Earnings",
                      "type": "uint256"
                    }
                  ],
                  "internalType": "struct TokenSaleSkale.ReferralInfo",
                  "name": "referralEarnings",
                  "type": "tuple"
                }
              ],
              "internalType": "struct TokenSaleSkale.UserInfo",
              "name": "info",
              "type": "tuple"
            }
          ],
          "stateMutability": "view",
          "type": "function"
        },
        {
          "inputs": [
            {
              "internalType": "address",
              "name": "_user",
              "type": "address"
            }
          ],
          "name": "getUserReferrer",
          "outputs": [
            {
              "internalType": "address",
              "name": "",
              "type": "address"
            }
          ],
          "stateMutability": "view",
          "type": "function"
        },
        {
          "inputs": [
            {
              "internalType": "uint256",
              "name": "_stageId",
              "type": "uint256"
            },
            {
              "internalType": "address",
              "name": "_user",
              "type": "address"
            }
          ],
          "name": "getUserStageContribution",
          "outputs": [
            {
              "internalType": "uint256",
              "name": "",
              "type": "uint256"
            }
          ],
          "stateMutability": "view",
          "type": "function"
        },
        {
          "inputs": [
            {
              "internalType": "address",
              "name": "",
              "type": "address"
            }
          ],
          "name": "level1Earnings",
          "outputs": [
            {
              "internalType": "uint256",
              "name": "",
              "type": "uint256"
            }
          ],
          "stateMutability": "view",
          "type": "function"
        },
        {
          "inputs": [],
          "name": "level1ReferralPercentage",
          "outputs": [
            {
              "internalType": "uint256",
              "name": "",
              "type": "uint256"
            }
          ],
          "stateMutability": "view",
          "type": "function"
        },
        {
          "inputs": [
            {
              "internalType": "address",
              "name": "",
              "type": "address"
            }
          ],
          "name": "level2Earnings",
          "outputs": [
            {
              "internalType": "uint256",
              "name": "",
              "type": "uint256"
            }
          ],
          "stateMutability": "view",
          "type": "function"
        },
        {
          "inputs": [],
          "name": "level2ReferralPercentage",
          "outputs": [
            {
              "internalType": "uint256",
              "name": "",
              "type": "uint256"
            }
          ],
          "stateMutability": "view",
          "type": "function"
        },
        {
          "inputs": [],
          "name": "owner",
          "outputs": [
            {
              "internalType": "address",
              "name": "",
              "type": "address"
            }
          ],
          "stateMutability": "view",
          "type": "function"
        },
        {
          "inputs": [
            {
              "internalType": "address",
              "name": "token",
              "type": "address"
            },
            {
              "internalType": "uint256",
              "name": "amount",
              "type": "uint256"
            },
            {
              "internalType": "address",
              "name": "level1Referrer",
              "type": "address"
            },
            {
              "internalType": "address",
              "name": "level2Referrer",
              "type": "address"
            }
          ],
          "name": "purchase",
          "outputs": [
            {
              "internalType": "uint256",
              "name": "usdtAmount",
              "type": "uint256"
            }
          ],
          "stateMutability": "payable",
          "type": "function"
        },
        {
          "inputs": [],
          "name": "referralClaimsEnabled",
          "outputs": [
            {
              "internalType": "bool",
              "name": "",
              "type": "bool"
            }
          ],
          "stateMutability": "view",
          "type": "function"
        },
        {
          "inputs": [
            {
              "internalType": "address",
              "name": "",
              "type": "address"
            }
          ],
          "name": "referralEarnings",
          "outputs": [
            {
              "internalType": "uint256",
              "name": "",
              "type": "uint256"
            }
          ],
          "stateMutability": "view",
          "type": "function"
        },
        {
          "inputs": [
            {
              "internalType": "address",
              "name": "",
              "type": "address"
            }
          ],
          "name": "referredBy",
          "outputs": [
            {
              "internalType": "address",
              "name": "",
              "type": "address"
            }
          ],
          "stateMutability": "view",
          "type": "function"
        },
        {
          "inputs": [],
          "name": "renounceOwnership",
          "outputs": [],
          "stateMutability": "nonpayable",
          "type": "function"
        },
        {
          "inputs": [
            {
              "internalType": "address payable",
              "name": "recipient",
              "type": "address"
            },
            {
              "internalType": "uint256",
              "name": "amount",
              "type": "uint256"
            }
          ],
          "name": "rescueEth",
          "outputs": [],
          "stateMutability": "nonpayable",
          "type": "function"
        },
        {
          "inputs": [
            {
              "internalType": "contract IERC20",
              "name": "token",
              "type": "address"
            },
            {
              "internalType": "address",
              "name": "recipient",
              "type": "address"
            },
            {
              "internalType": "uint256",
              "name": "amount",
              "type": "uint256"
            }
          ],
          "name": "rescueTokens",
          "outputs": [],
          "stateMutability": "nonpayable",
          "type": "function"
        },
        {
          "inputs": [],
          "name": "saleActive",
          "outputs": [
            {
              "internalType": "bool",
              "name": "",
              "type": "bool"
            }
          ],
          "stateMutability": "view",
          "type": "function"
        },
        {
          "inputs": [
            {
              "internalType": "bool",
              "name": "_enabled",
              "type": "bool"
            }
          ],
          "name": "setReferralClaimsEnabled",
          "outputs": [],
          "stateMutability": "nonpayable",
          "type": "function"
        },
        {
          "inputs": [
            {
              "internalType": "uint256",
              "name": "_level1Percentage",
              "type": "uint256"
            },
            {
              "internalType": "uint256",
              "name": "_level2Percentage",
              "type": "uint256"
            }
          ],
          "name": "setReferralPercentages",
          "outputs": [],
          "stateMutability": "nonpayable",
          "type": "function"
        },
        {
          "inputs": [
            {
              "internalType": "bool",
              "name": "_active",
              "type": "bool"
            }
          ],
          "name": "setSaleStatus",
          "outputs": [],
          "stateMutability": "nonpayable",
          "type": "function"
        },
        {
          "inputs": [],
          "name": "stageCount",
          "outputs": [
            {
              "internalType": "uint256",
              "name": "",
              "type": "uint256"
            }
          ],
          "stateMutability": "view",
          "type": "function"
        },
        {
          "inputs": [
            {
              "internalType": "uint256",
              "name": "",
              "type": "uint256"
            }
          ],
          "name": "stages",
          "outputs": [
            {
              "internalType": "uint256",
              "name": "usdtCap",
              "type": "uint256"
            },
            {
              "internalType": "uint256",
              "name": "totalRaised",
              "type": "uint256"
            },
            {
              "internalType": "uint256",
              "name": "minimumPurchase",
              "type": "uint256"
            },
            {
              "internalType": "uint256",
              "name": "maximumPurchase",
              "type": "uint256"
            },
            {
              "internalType": "bool",
              "name": "active",
              "type": "bool"
            }
          ],
          "stateMutability": "view",
          "type": "function"
        },
        {
          "inputs": [],
          "name": "swapRouter",
          "outputs": [
            {
              "internalType": "contract ISwapRouter",
              "name": "",
              "type": "address"
            }
          ],
          "stateMutability": "view",
          "type": "function"
        },
        {
          "inputs": [],
          "name": "totalContributions",
          "outputs": [
            {
              "internalType": "uint256",
              "name": "",
              "type": "uint256"
            }
          ],
          "stateMutability": "view",
          "type": "function"
        },
        {
          "inputs": [
            {
              "internalType": "address",
              "name": "newOwner",
              "type": "address"
            }
          ],
          "name": "transferOwnership",
          "outputs": [],
          "stateMutability": "nonpayable",
          "type": "function"
        },
        {
          "inputs": [],
          "name": "treasuryAddress",
          "outputs": [
            {
              "internalType": "address",
              "name": "",
              "type": "address"
            }
          ],
          "stateMutability": "view",
          "type": "function"
        },
        {
          "inputs": [],
          "name": "uniswapFactory",
          "outputs": [
            {
              "internalType": "contract IUniswapV3Factory",
              "name": "",
              "type": "address"
            }
          ],
          "stateMutability": "view",
          "type": "function"
        },
        {
          "inputs": [
            {
              "internalType": "uint256",
              "name": "_stageId",
              "type": "uint256"
            },
            {
              "internalType": "uint256",
              "name": "_usdtCap",
              "type": "uint256"
            },
            {
              "internalType": "uint256",
              "name": "_minPurchase",
              "type": "uint256"
            },
            {
              "internalType": "uint256",
              "name": "_maxPurchase",
              "type": "uint256"
            }
          ],
          "name": "updateStage",
          "outputs": [],
          "stateMutability": "nonpayable",
          "type": "function"
        },
        {
          "inputs": [
            {
              "internalType": "address",
              "name": "_treasury",
              "type": "address"
            }
          ],
          "name": "updateTreasury",
          "outputs": [],
          "stateMutability": "nonpayable",
          "type": "function"
        },
        {
          "inputs": [
            {
              "internalType": "address",
              "name": "",
              "type": "address"
            }
          ],
          "name": "userContributions",
          "outputs": [
            {
              "internalType": "uint256",
              "name": "",
              "type": "uint256"
            }
          ],
          "stateMutability": "view",
          "type": "function"
        },
        {
          "inputs": [
            {
              "internalType": "uint256",
              "name": "",
              "type": "uint256"
            },
            {
              "internalType": "address",
              "name": "",
              "type": "address"
            }
          ],
          "name": "userStageContributions",
          "outputs": [
            {
              "internalType": "uint256",
              "name": "",
              "type": "uint256"
            }
          ],
          "stateMutability": "view",
          "type": "function"
        }
      ],
      "evm": {
        "bytecode": {
          "linkReferences": {},
          "object": "60c06040526005805461ffff191660011790556103e860065561012c6007553480156200002b57600080fd5b50604051620029ea380380620029ea8339810160408190526200004e9162000290565b8333806200007657604051631e4fbdf760e01b81526000600482015260240160405180910390fd5b620000818162000223565b5060018055600280546001600160a01b0319166001600160a01b039283161790558516620000c25760405163e6c4247b60e01b815260040160405180910390fd5b6001600160a01b038316620000ea5760405163e6c4247b60e01b815260040160405180910390fd5b6001600160a01b038216620001125760405163e6c4247b60e01b815260040160405180910390fd5b6001600160a01b03858116608090815284821660a0908152600380546001600160a01b0319169386169390931783556005805460ff199081166001908117909255600e80546040805195860181528886526000602080880182815288840183815260001960608b019081529a8a01848152868552600f9093529383209851895551968801969096559051600287015595519685019690965591516004909301805490911692151592909217909155805491620001ce83620002f7565b9091555050604080518381526000602082015260001981830152905182917fcc2c7ecadea784eb7f00da16e96860d108ef24d3b6a56a376211537bf2a85572919081900360600190a25050505050506200031f565b600080546001600160a01b038381166001600160a01b0319831681178455604051919092169283917f8be0079c531659141344cd1fd0a4f28419497f9722a3daafe3b4186f6b6457e09190a35050565b80516001600160a01b03811681146200028b57600080fd5b919050565b600080600080600060a08688031215620002a957600080fd5b620002b48662000273565b9450620002c46020870162000273565b9350620002d46040870162000273565b9250620002e46060870162000273565b9150608086015190509295509295909350565b6000600182016200031857634e487b7160e01b600052601160045260246000fd5b5060010190565b60805160a05161267b6200036f600039600081816107bd01528181610937015281816109a0015281816112ea015281816118ea01526119b40152600081816107890152611a5b015261267b6000f3fe6080604052600436106102675760003560e01c806384ae48b511610144578063c31c9c07116100b6578063d7cc3d351161007a578063d7cc3d351461083f578063d897833e1461085f578063eb9747fc1461087f578063ec45127a14610895578063f2fde38b146108ab578063f33261ac146108cb57600080fd5b8063c31c9c0714610777578063c54e44eb146107ab578063c5f956af146107df578063cea9d26f146107ff578063d13782a71461081f57600080fd5b80638da5cb5b116101085780638da5cb5b1461069557806394b2d55b146106b3578063a2e6e2c0146106d5578063a3759f60146106f4578063a90f8e9a14610714578063c07b528a1461074a57600080fd5b806384ae48b51461060a578063860fb05a1461061f5780638bdb2afa1461063f5780638c8011e71461065f5780638d7179381461067f57600080fd5b806368428a1b116101dd578063715018a6116101a1578063715018a6146104fb5780637478093914610510578063796b15531461053d5780637bc1f8f5146105535780637f51bb1f14610573578063845ddcb21461059357600080fd5b806368428a1b146104545780636c5ff4ae1461047e5780636c7835f2146104a65780636e1995cb146104c657806370d1e40b146104db57600080fd5b80632be058f31161022f5780632be058f31461034657806336144c9a1461037357806337c08923146103c45780636386c1c7146103da57806363b78f6d14610407578063678445ee1461042757600080fd5b806306b6367e1461026c5780630f6ca1a81461029257806316c856fc146102bf57806321874ae2146102e15780632ae46c3f1461030e575b600080fd5b61027f61027a3660046120ff565b6108e1565b6040519081526020015b60405180910390f35b34801561029e57600080fd5b5061027f6102ad366004612152565b60106020526000908152604090205481565b3480156102cb57600080fd5b506102df6102da366004612176565b610a7d565b005b3480156102ed57600080fd5b506103016102fc366004612152565b610afb565b6040516102899190612198565b34801561031a57600080fd5b5061027f6103293660046121d1565b601160209081526000928352604080842090915290825290205481565b34801561035257600080fd5b5061027f610361366004612152565b600c6020526000908152604090205481565b34801561037f57600080fd5b506103ac61038e366004612152565b6001600160a01b039081166000908152600860205260409020541690565b6040516001600160a01b039091168152602001610289565b3480156103d057600080fd5b5061027f60045481565b3480156103e657600080fd5b506103fa6103f5366004612152565b610ba6565b6040516102899190612201565b34801561041357600080fd5b506103ac6104223660046122c6565b610daa565b34801561043357600080fd5b5061027f610442366004612152565b600a6020526000908152604090205481565b34801561046057600080fd5b5060055461046e9060ff1681565b6040519015158152602001610289565b34801561048a57600080fd5b5060065460075460408051928352602083019190915201610289565b3480156104b257600080fd5b506102df6104c13660046122f4565b610f4b565b3480156104d257600080fd5b506102df611045565b3480156104e757600080fd5b5061027f6104f6366004612152565b6110b3565b34801561050757600080fd5b506102df6110e1565b34801561051c57600080fd5b5061027f61052b366004612152565b600b6020526000908152604090205481565b34801561054957600080fd5b5061027f61138881565b34801561055f57600080fd5b506102df61056e366004612326565b6110f3565b34801561057f57600080fd5b506102df61058e366004612152565b6111cc565b34801561059f57600080fd5b506105e06105ae366004612326565b600f60205260009081526040902080546001820154600283015460038401546004909401549293919290919060ff1685565b6040805195865260208601949094529284019190915260608301521515608082015260a001610289565b34801561061657600080fd5b506102df611250565b34801561062b57600080fd5b5061027f61063a3660046121d1565b611358565b34801561064b57600080fd5b506002546103ac906001600160a01b031681565b34801561066b57600080fd5b506102df61067a36600461233f565b6113a5565b34801561068b57600080fd5b5061027f60065481565b3480156106a157600080fd5b506000546001600160a01b03166103ac565b3480156106bf57600080fd5b506106c86113f6565b6040516102899190612361565b3480156106e157600080fd5b5060055461046e90610100900460ff1681565b34801561070057600080fd5b506105e061070f366004612326565b6115b2565b34801561072057600080fd5b506103ac61072f366004612152565b6008602052600090815260409020546001600160a01b031681565b34801561075657600080fd5b5061027f610765366004612152565b60096020526000908152604090205481565b34801561078357600080fd5b506103ac7f000000000000000000000000000000000000000000000000000000000000000081565b3480156107b757600080fd5b506103ac7f000000000000000000000000000000000000000000000000000000000000000081565b3480156107eb57600080fd5b506003546103ac906001600160a01b031681565b34801561080b57600080fd5b506102df61081a36600461246e565b611616565b34801561082b57600080fd5b5061027f61083a3660046124af565b611637565b34801561084b57600080fd5b506102df61085a3660046124db565b611749565b34801561086b57600080fd5b506102df61087a36600461233f565b611787565b34801561088b57600080fd5b5061027f60075481565b3480156108a157600080fd5b5061027f600d5481565b3480156108b757600080fd5b506102df6108c6366004612152565b6117d0565b3480156108d757600080fd5b5061027f600e5481565b60006108eb611813565b60055460ff1661090e5760405163b7b2409760e01b815260040160405180910390fd5b6001600160a01b038516610935576040516356e7ec5f60e01b815260040160405180910390fd5b7f00000000000000000000000000000000000000000000000000000000000000006001600160a01b0316856001600160a01b0316036109d2578360000361098f5760405163162908e360e11b815260040160405180910390fd5b6003546109cb906001600160a01b037f00000000000000000000000000000000000000000000000000000000000000008116913391168761183d565b5082610a17565b836000036109f35760405163162908e360e11b815260040160405180910390fd5b610a086001600160a01b03861633308761183d565b610a14858560006118aa565b90505b610a2333828585611ad7565b600d5460408051868152602081018490526001600160a01b0388169133917f8f7a55179307cea51948432d653dbd53a23fedc388bcb3e04e311f8220d87864910160405180910390a4610a7560018055565b949350505050565b610a85611cdd565b611388821180610a96575061138881115b15610ab45760405163a8c753ab60e01b815260040160405180910390fd5b6006829055600781905560408051838152602081018390527f2bab2bad76d463c0a3470aed40d6d2a61922bb2673a255bd6f6b656aa28451b1910160405180910390a15050565b610b2d6040518060a0016040528060008152602001600081526020016000815260200160008152602001600081525090565b6001600160a01b0382166000818152600960209081526040808320548552928252600a8152919020549082018190528151610b68919061251d565b6040808301919091526001600160a01b039092166000818152600b6020908152848220546060850152918152600c9091529190912054608082015290565b610bae61201d565b6001600160a01b0382166000908152601060205260409020548152600e54610bd7576000610bfe565b600d5460009081526011602090815260408083206001600160a01b03861684529091529020545b6040820152600e5467ffffffffffffffff811115610c1e57610c1e612530565b604051908082528060200260200182016040528015610c7557816020015b610c62604051806060016040528060008152602001600081526020016000151581525090565b815260200190600190039081610c3c5790505b5060608201526000805b600e54811015610d145760008181526011602090815260408083206001600160a01b0388168452825291829020548251606080820185528582529281018290528115159381019390935290850151805191929184908110610ce257610ce2612546565b60209081029190910101528015610d015782610cfd8161255c565b9350505b5080610d0c8161255c565b915050610c7f565b5060208083018290526040805160a0810182526001600160a01b0386166000818152600980865284822054808552838352600a87528583205485880181905293909252909452909291830191610d6a919061251d565b81526001600160a01b039094166000818152600b602090815260408083205482890152928252600c90528190205494019390935250608081019190915290565b604080516080810182526101f481526109c46020820152610bb89181019190915261271060608201526000908180805b6004811015610f3e576002546000906001600160a01b0316631698ee828989888660048110610e0b57610e0b612546565b60200201516040516001600160e01b031960e086901b1681526001600160a01b03938416600482015292909116602483015262ffffff166044820152606401602060405180830381865afa158015610e67573d6000803e3d6000fd5b505050506040513d601f19601f82011682018060405250810190610e8b9190612575565b90506001600160a01b03811615610f2b5760008190506000816001600160a01b0316631a6865026040518163ffffffff1660e01b8152600401602060405180830381865afa158015610ee1573d6000803e3d6000fd5b505050506040513d601f19601f82011682018060405250810190610f059190612592565b9050846001600160801b0316816001600160801b03161115610f28578094508295505b50505b5080610f368161255c565b915050610dda565b5090925050505b92915050565b610f53611cdd565b600e548410610f755760405163f384292f60e01b815260040160405180910390fd5b82600003610f965760405163e773e0a960e01b815260040160405180910390fd5b81811015610fb75760405163e773e0a960e01b815260040160405180910390fd5b6000848152600f602052604090206001810154841015610fea5760405163e773e0a960e01b815260040160405180910390fd5b8381556002810183905560038101829055604080518581526020810185905290810183905285907f8801cd9c7e0d9b0ed3a85806cd1f1890396eeb59814f915c53295614f679c6ff9060600160405180910390a25050505050565b61104d611cdd565b600d546000908152600f602052604090206004015460ff16156110b157600d80546000908152600f6020526040808220600401805460ff19169055915491517fc140be611c4cf287a329b09a238f8a5b6c1e166548b361523ec83989e29bcbe79190a25b565b6001600160a01b0381166000908152600a60209081526040808320546009909252822054610f45919061251d565b6110e9611cdd565b6110b16000611d0a565b6110fb611cdd565b600e54811061111d5760405163f384292f60e01b815260040160405180910390fd5b600d546000908152600f602052604090206004015460ff161561118157600d80546000908152600f6020526040808220600401805460ff19169055915491517fc140be611c4cf287a329b09a238f8a5b6c1e166548b361523ec83989e29bcbe79190a25b6000818152600f6020526040808220600401805460ff19166001179055600d8390555182917f03eab6a60b7fa9a8ce2e4f8516274d21fb3606afe26ba1b5bc7e487bd4a25cc691a250565b6111d4611cdd565b6001600160a01b0381166111fb5760405163e6c4247b60e01b815260040160405180910390fd5b600380546001600160a01b0319166001600160a01b0383169081179091556040519081527f7dae230f18360d76a040c81f050aa14eb9d6dc7901b20fc5d855e2a20fe814d1906020015b60405180910390a150565b611258611813565b600554610100900460ff1661128057604051633d7b1fcd60e01b815260040160405180910390fd5b336000908152600a602090815260408083205460099092528220546112a5919061251d565b9050806000036112c857604051636773e7e960e01b815260040160405180910390fd5b33600081815260096020908152604080832054600a90925290912055611319907f00000000000000000000000000000000000000000000000000000000000000006001600160a01b03169083611d5a565b60405181815233907f6cd4d40588b17656762e007b5b0c873a86cc13d23123cd1c44b4389b8aafa1059060200160405180910390a2506110b160018055565b6000600e54831061137c5760405163f384292f60e01b815260040160405180910390fd5b5060009182526011602090815260408084206001600160a01b0393909316845291905290205490565b6113ad611cdd565b600580548215156101000261ff00199091161790556040517ff96818fef2fc4f08203aee26449cd99714ce4d1dc8747553927c851af72172389061124590831515815260200190565b6113fe61207b565b600e54808252600d546020830152600454604083015260055460ff16151560a08301521561148757600d546000818152600f6020908152604091829020825160c08101845293845280549184019190915260018101549183019190915260028101546060808401919091526003820154608084015260049091015460ff16151560a08301528201525b600e5467ffffffffffffffff8111156114a2576114a2612530565b60405190808252806020026020018201604052801561150e57816020015b6114fb6040518060c0016040528060008152602001600081526020016000815260200160008152602001600081526020016000151581525090565b8152602001906001900390816114c05790505b50608082015260005b600e548110156115ae576000818152600f6020908152604091829020825160c081018452848152815492810192909252600181015492820192909252600282015460608201526003820154608080830191909152600483015460ff16151560a083015284015180518490811061158f5761158f612546565b60200260200101819052505080806115a69061255c565b915050611517565b5090565b6000806000806000600e5486106115dc5760405163f384292f60e01b815260040160405180910390fd5b50505060009283525050600f602052604090208054600182015460028301546003840154600490940154929491939092909160ff90911690565b61161e611cdd565b6116326001600160a01b0384168383611d5a565b505050565b6000611641611cdd565b836000036116625760405163e773e0a960e01b815260040160405180910390fd5b828210156116835760405163e773e0a960e01b815260040160405180910390fd5b600e80546040805160a081018252878152600060208083018281528385018a8152606085018a815260808601858152888652600f90945295842094518555905160018501555160028401559251600383015591516004909101805460ff191691151591909117905582549192906116f98361255c565b9091555050604080518681526020810186905290810184905281907fcc2c7ecadea784eb7f00da16e96860d108ef24d3b6a56a376211537bf2a855729060600160405180910390a2949350505050565b611751611cdd565b6040516001600160a01b0383169082156108fc029083906000818181858888f19350505050158015611632573d6000803e3d6000fd5b61178f611cdd565b6005805460ff19168215159081179091556040519081527ff3637cdf61687bb87179d2da614bc1f4aa93c3cbf40282ccd0a15ecad9184cc190602001611245565b6117d8611cdd565b6001600160a01b03811661180757604051631e4fbdf760e01b8152600060048201526024015b60405180910390fd5b61181081611d0a565b50565b60026001540361183657604051633ee5aeb560e01b815260040160405180910390fd5b6002600155565b6040516001600160a01b0384811660248301528381166044830152606482018390526118a49186918216906323b872dd906084015b604051602081830303815290604052915060e01b6020820180516001600160e01b038381831617835250505050611d8b565b50505050565b6040805160e081018252600080825260208201819052918101829052606081018290526080810182905260a0810182905260c08101829052600061190e867f0000000000000000000000000000000000000000000000000000000000000000610daa565b90506001600160a01b03811661193757604051639ebbd11d60e01b815260040160405180910390fd5b6000816001600160a01b031663ddca3f436040518163ffffffff1660e01b8152600401602060405180830381865afa158015611977573d6000803e3d6000fd5b505050506040513d601f19601f8201168201806040525081019061199b91906125bb565b6040805160e0810182526001600160a01b038a811682527f000000000000000000000000000000000000000000000000000000000000000081166020830190815262ffffff858116848601908152600354841660608601908152608086018e8152600060a0880181815260c0890191825298516304e45aaf60e01b815288518816600482015295518716602487015292519093166044850152518416606484015290516084830152935160a48201529251811660c48401529095509192507f0000000000000000000000000000000000000000000000000000000000000000909116906304e45aaf90879060e40160206040518083038185885af1158015611aa7573d6000803e3d6000fd5b50505050506040513d601f19601f82011682018060405250810190611acc91906125e0565b979650505050505050565b600d546000908152600f60205260409020600481015460ff16611b0d57604051630adfa6c760e11b815260040160405180910390fd5b80546001820154611b1f9086906125f9565b1115611b3e576040516318833fa160e01b815260040160405180910390fd5b600d5460009081526011602090815260408083206001600160a01b0389168452909152812054611b6f9086906125f9565b6001600160a01b03871660009081526010602052604081205491925090611b979087906125f9565b90508260020154821015611bbe5760405163fcd2aaeb60e01b815260040160405180910390fd5b8260030154821115611be35760405163c07c075f60e01b815260040160405180910390fd5b6001600160a01b038716600090815260106020526040902054158015611c1157506001600160a01b03851615155b8015611c2f5750866001600160a01b0316856001600160a01b031614155b15611c63576001600160a01b03878116600090815260086020526040902080546001600160a01b0319169187169190911790555b600d5460009081526011602090815260408083206001600160a01b038b168452825280832085905560109091528120829055600184018054889290611ca99084906125f9565b925050819055508560046000828254611cc291906125f9565b90915550611cd4905087878787611dfc565b50505050505050565b6000546001600160a01b031633146110b15760405163118cdaa760e01b81523360048201526024016117fe565b600080546001600160a01b038381166001600160a01b0319831681178455604051919092169283917f8be0079c531659141344cd1fd0a4f28419497f9722a3daafe3b4186f6b6457e09190a35050565b6040516001600160a01b0383811660248301526044820183905261163291859182169063a9059cbb90606401611872565b600080602060008451602086016000885af180611dae576040513d6000823e3d81fd5b50506000513d91508115611dc6578060011415611dd3565b6001600160a01b0384163b155b156118a457604051635274afe760e01b81526001600160a01b03851660048201526024016117fe565b6001600160a01b03821615801590611e265750836001600160a01b0316826001600160a01b031614155b15611efb57600061271060065485611e3e919061260c565b611e489190612623565b6001600160a01b038416600090815260096020526040812080549293508392909190611e759084906125f9565b90915550506001600160a01b0383166000908152600b602052604081208054839290611ea29084906125f9565b90915550506040805160018152602081018690529081018290526001600160a01b0380871691908516907fd61f5cf881361d1e5c459278dcd92cf1e795f07dd5b433fa41a2e7e403d0e4979060600160405180910390a3505b6001600160a01b03811615801590611f255750836001600160a01b0316816001600160a01b031614155b8015611f435750816001600160a01b0316816001600160a01b031614155b156118a457600061271060075485611f5b919061260c565b611f659190612623565b6001600160a01b038316600090815260096020526040812080549293508392909190611f929084906125f9565b90915550506001600160a01b0382166000908152600c602052604081208054839290611fbf9084906125f9565b90915550506040805160028152602081018690529081018290526001600160a01b0380871691908416907fd61f5cf881361d1e5c459278dcd92cf1e795f07dd5b433fa41a2e7e403d0e4979060600160405180910390a35050505050565b6040518060a00160405280600081526020016000815260200160008152602001606081526020016120766040518060a0016040528060008152602001600081526020016000815260200160008152602001600081525090565b905290565b6040518060c001604052806000815260200160008152602001600081526020016120d66040518060c0016040528060008152602001600081526020016000815260200160008152602001600081526020016000151581525090565b815260606020820152600060409091015290565b6001600160a01b038116811461181057600080fd5b6000806000806080858703121561211557600080fd5b8435612120816120ea565b9350602085013592506040850135612137816120ea565b91506060850135612147816120ea565b939692955090935050565b60006020828403121561216457600080fd5b813561216f816120ea565b9392505050565b6000806040838503121561218957600080fd5b50508035926020909101359150565b60a08101610f45828480518252602081015160208301526040810151604083015260608101516060830152608081015160808301525050565b600080604083850312156121e457600080fd5b8235915060208301356121f6816120ea565b809150509250929050565b602080825282518282015282810151604080840191909152808401516060808501919091528085015161012060808601528051610140860181905260009493918401928592916101608801905b8085101561228157855180518352878101518884015284015115158483015294860194600194909401939082019061224e565b50608089810151805160a08b0152602081015160c08b0152604081015160e08b015260608101516101008b0152908101516101208a0152955098975050505050505050565b600080604083850312156122d957600080fd5b82356122e4816120ea565b915060208301356121f6816120ea565b6000806000806080858703121561230a57600080fd5b5050823594602084013594506040840135936060013592509050565b60006020828403121561233857600080fd5b5035919050565b60006020828403121561235157600080fd5b8135801515811461216f57600080fd5b6000602080835261018083018451828501528185015160408501526040850151606085015260608501516123cf6080860182805182526020810151602083015260408101516040830152606081015160608301526080810151608083015260a0810151151560a08301525050565b506080850151610160610140860181905281519283905290830191600091906101a08701905b808410156124555761243f828651805182526020810151602083015260408101516040830152606081015160608301526080810151608083015260a0810151151560a08301525050565b60c08201915085850194506001840193506123f5565b5060a09790970151151595019490945250929392505050565b60008060006060848603121561248357600080fd5b833561248e816120ea565b9250602084013561249e816120ea565b929592945050506040919091013590565b6000806000606084860312156124c457600080fd5b505081359360208301359350604090920135919050565b600080604083850312156124ee57600080fd5b82356124f9816120ea565b946020939093013593505050565b634e487b7160e01b600052601160045260246000fd5b81810381811115610f4557610f45612507565b634e487b7160e01b600052604160045260246000fd5b634e487b7160e01b600052603260045260246000fd5b60006001820161256e5761256e612507565b5060010190565b60006020828403121561258757600080fd5b815161216f816120ea565b6000602082840312156125a457600080fd5b81516001600160801b038116811461216f57600080fd5b6000602082840312156125cd57600080fd5b815162ffffff8116811461216f57600080fd5b6000602082840312156125f257600080fd5b5051919050565b80820180821115610f4557610f45612507565b8082028115828204841417610f4557610f45612507565b60008261264057634e487b7160e01b600052601260045260246000fd5b50049056fea264697066735822122081e1ed3ab63a1fd2715f071c52cdab3c83ff61d6b19b8d45b1c6c7b9d6fed5e964736f6c63430008140033",
          "opcodes": "PUSH1 0xC0 PUSH1 0x40 MSTORE PUSH1 0x5 DUP1 SLOAD PUSH2 0xFFFF NOT AND PUSH1 0x1 OR SWAP1 SSTORE PUSH2 0x3E8 PUSH1 0x6 SSTORE PUSH2 0x12C PUSH1 0x7 SSTORE CALLVALUE DUP1 ISZERO PUSH3 0x2B JUMPI PUSH1 0x0 DUP1 REVERT JUMPDEST POP PUSH1 0x40 MLOAD PUSH3 0x29EA CODESIZE SUB DUP1 PUSH3 0x29EA DUP4 CODECOPY DUP2 ADD PUSH1 0x40 DUP2 SWAP1 MSTORE PUSH3 0x4E SWAP2 PUSH3 0x290 JUMP JUMPDEST DUP4 CALLER DUP1 PUSH3 0x76 JUMPI PUSH1 0x40 MLOAD PUSH4 0x1E4FBDF7 PUSH1 0xE0 SHL DUP2 MSTORE PUSH1 0x0 PUSH1 0x4 DUP3 ADD MSTORE PUSH1 0x24 ADD PUSH1 0x40 MLOAD DUP1 SWAP2 SUB SWAP1 REVERT JUMPDEST PUSH3 0x81 DUP2 PUSH3 0x223 JUMP JUMPDEST POP PUSH1 0x1 DUP1 SSTORE PUSH1 0x2 DUP1 SLOAD PUSH1 0x1 PUSH1 0x1 PUSH1 0xA0 SHL SUB NOT AND PUSH1 0x1 PUSH1 0x1 PUSH1 0xA0 SHL SUB SWAP3 DUP4 AND OR SWAP1 SSTORE DUP6 AND PUSH3 0xC2 JUMPI PUSH1 0x40 MLOAD PUSH4 0xE6C4247B PUSH1 0xE0 SHL DUP2 MSTORE PUSH1 0x4 ADD PUSH1 0x40 MLOAD DUP1 SWAP2 SUB SWAP1 REVERT JUMPDEST PUSH1 0x1 PUSH1 0x1 PUSH1 0xA0 SHL SUB DUP4 AND PUSH3 0xEA JUMPI PUSH1 0x40 MLOAD PUSH4 0xE6C4247B PUSH1 0xE0 SHL DUP2 MSTORE PUSH1 0x4 ADD PUSH1 0x40 MLOAD DUP1 SWAP2 SUB SWAP1 REVERT JUMPDEST PUSH1 0x1 PUSH1 0x1 PUSH1 0xA0 SHL SUB DUP3 AND PUSH3 0x112 JUMPI PUSH1 0x40 MLOAD PUSH4 0xE6C4247B PUSH1 0xE0 SHL DUP2 MSTORE PUSH1 0x4 ADD PUSH1 0x40 MLOAD DUP1 SWAP2 SUB SWAP1 REVERT JUMPDEST PUSH1 0x1 PUSH1 0x1 PUSH1 0xA0 SHL SUB DUP6 DUP2 AND PUSH1 0x80 SWAP1 DUP2 MSTORE DUP5 DUP3 AND PUSH1 0xA0 SWAP1 DUP2 MSTORE PUSH1 0x3 DUP1 SLOAD PUSH1 0x1 PUSH1 0x1 PUSH1 0xA0 SHL SUB NOT AND SWAP4 DUP7 AND SWAP4 SWAP1 SWAP4 OR DUP4 SSTORE PUSH1 0x5 DUP1 SLOAD PUSH1 0xFF NOT SWAP1 DUP2 AND PUSH1 0x1 SWAP1 DUP2 OR SWAP1 SWAP3 SSTORE PUSH1 0xE DUP1 SLOAD PUSH1 0x40 DUP1 MLOAD SWAP6 DUP7 ADD DUP2 MSTORE DUP9 DUP7 MSTORE PUSH1 0x0 PUSH1 0x20 DUP1 DUP9 ADD DUP3 DUP2 MSTORE DUP9 DUP5 ADD DUP4 DUP2 MSTORE PUSH1 0x0 NOT PUSH1 0x60 DUP12 ADD SWAP1 DUP2 MSTORE SWAP11 DUP11 ADD DUP5 DUP2 MSTORE DUP7 DUP6 MSTORE PUSH1 0xF SWAP1 SWAP4 MSTORE SWAP4 DUP4 KECCAK256 SWAP9 MLOAD DUP10 SSTORE MLOAD SWAP7 DUP9 ADD SWAP7 SWAP1 SWAP7 SSTORE SWAP1 MLOAD PUSH1 0x2 DUP8 ADD SSTORE SWAP6 MLOAD SWAP7 DUP6 ADD SWAP7 SWAP1 SWAP7 SSTORE SWAP2 MLOAD PUSH1 0x4 SWAP1 SWAP4 ADD DUP1 SLOAD SWAP1 SWAP2 AND SWAP3 ISZERO ISZERO SWAP3 SWAP1 SWAP3 OR SWAP1 SWAP2 SSTORE DUP1 SLOAD SWAP2 PUSH3 0x1CE DUP4 PUSH3 0x2F7 JUMP JUMPDEST SWAP1 SWAP2 SSTORE POP POP PUSH1 0x40 DUP1 MLOAD DUP4 DUP2 MSTORE PUSH1 0x0 PUSH1 0x20 DUP3 ADD MSTORE PUSH1 0x0 NOT DUP2 DUP4 ADD MSTORE SWAP1 MLOAD DUP3 SWAP2 PUSH32 0xCC2C7ECADEA784EB7F00DA16E96860D108EF24D3B6A56A376211537BF2A85572 SWAP2 SWAP1 DUP2 SWAP1 SUB PUSH1 0x60 ADD SWAP1 LOG2 POP POP POP POP POP POP PUSH3 0x31F JUMP JUMPDEST PUSH1 0x0 DUP1 SLOAD PUSH1 0x1 PUSH1 0x1 PUSH1 0xA0 SHL SUB DUP4 DUP2 AND PUSH1 0x1 PUSH1 0x1 PUSH1 0xA0 SHL SUB NOT DUP4 AND DUP2 OR DUP5 SSTORE PUSH1 0x40 MLOAD SWAP2 SWAP1 SWAP3 AND SWAP3 DUP4 SWAP2 PUSH32 0x8BE0079C531659141344CD1FD0A4F28419497F9722A3DAAFE3B4186F6B6457E0 SWAP2 SWAP1 LOG3 POP POP JUMP JUMPDEST DUP1 MLOAD PUSH1 0x1 PUSH1 0x1 PUSH1 0xA0 SHL SUB DUP2 AND DUP2 EQ PUSH3 0x28B JUMPI PUSH1 0x0 DUP1 REVERT JUMPDEST SWAP2 SWAP1 POP JUMP JUMPDEST PUSH1 0x0 DUP1 PUSH1 0x0 DUP1 PUSH1 0x0 PUSH1 0xA0 DUP7 DUP9 SUB SLT ISZERO PUSH3 0x2A9 JUMPI PUSH1 0x0 DUP1 REVERT JUMPDEST PUSH3 0x2B4 DUP7 PUSH3 0x273 JUMP JUMPDEST SWAP5 POP PUSH3 0x2C4 PUSH1 0x20 DUP8 ADD PUSH3 0x273 JUMP JUMPDEST SWAP4 POP PUSH3 0x2D4 PUSH1 0x40 DUP8 ADD PUSH3 0x273 JUMP JUMPDEST SWAP3 POP PUSH3 0x2E4 PUSH1 0x60 DUP8 ADD PUSH3 0x273 JUMP JUMPDEST SWAP2 POP PUSH1 0x80 DUP7 ADD MLOAD SWAP1 POP SWAP3 SWAP6 POP SWAP3 SWAP6 SWAP1 SWAP4 POP JUMP JUMPDEST PUSH1 0x0 PUSH1 0x1 DUP3 ADD PUSH3 0x318 JUMPI PUSH4 0x4E487B71 PUSH1 0xE0 SHL PUSH1 0x0 MSTORE PUSH1 0x11 PUSH1 0x4 MSTORE PUSH1 0x24 PUSH1 0x0 REVERT JUMPDEST POP PUSH1 0x1 ADD SWAP1 JUMP JUMPDEST PUSH1 0x80 MLOAD PUSH1 0xA0 MLOAD PUSH2 0x267B PUSH3 0x36F PUSH1 0x0 CODECOPY PUSH1 0x0 DUP2 DUP2 PUSH2 0x7BD ADD MSTORE DUP2 DUP2 PUSH2 0x937 ADD MSTORE DUP2 DUP2 PUSH2 0x9A0 ADD MSTORE DUP2 DUP2 PUSH2 0x12EA ADD MSTORE DUP2 DUP2 PUSH2 0x18EA ADD MSTORE PUSH2 0x19B4 ADD MSTORE PUSH1 0x0 DUP2 DUP2 PUSH2 0x789 ADD MSTORE PUSH2 0x1A5B ADD MSTORE PUSH2 0x267B PUSH1 0x0 RETURN INVALID PUSH1 0x80 PUSH1 0x40 MSTORE PUSH1 0x4 CALLDATASIZE LT PUSH2 0x267 JUMPI PUSH1 0x0 CALLDATALOAD PUSH1 0xE0 SHR DUP1 PUSH4 0x84AE48B5 GT PUSH2 0x144 JUMPI DUP1 PUSH4 0xC31C9C07 GT PUSH2 0xB6 JUMPI DUP1 PUSH4 0xD7CC3D35 GT PUSH2 0x7A JUMPI DUP1 PUSH4 0xD7CC3D35 EQ PUSH2 0x83F JUMPI DUP1 PUSH4 0xD897833E EQ PUSH2 0x85F JUMPI DUP1 PUSH4 0xEB9747FC EQ PUSH2 0x87F JUMPI DUP1 PUSH4 0xEC45127A EQ PUSH2 0x895 JUMPI DUP1 PUSH4 0xF2FDE38B EQ PUSH2 0x8AB JUMPI DUP1 PUSH4 0xF33261AC EQ PUSH2 0x8CB JUMPI PUSH1 0x0 DUP1 REVERT JUMPDEST DUP1 PUSH4 0xC31C9C07 EQ PUSH2 0x777 JUMPI DUP1 PUSH4 0xC54E44EB EQ PUSH2 0x7AB JUMPI DUP1 PUSH4 0xC5F956AF EQ PUSH2 0x7DF JUMPI DUP1 PUSH4 0xCEA9D26F EQ PUSH2 0x7FF JUMPI DUP1 PUSH4 0xD13782A7 EQ PUSH2 0x81F JUMPI PUSH1 0x0 DUP1 REVERT JUMPDEST DUP1 PUSH4 0x8DA5CB5B GT PUSH2 0x108 JUMPI DUP1 PUSH4 0x8DA5CB5B EQ PUSH2 0x695 JUMPI DUP1 PUSH4 0x94B2D55B EQ PUSH2 0x6B3 JUMPI DUP1 PUSH4 0xA2E6E2C0 EQ PUSH2 0x6D5 JUMPI DUP1 PUSH4 0xA3759F60 EQ PUSH2 0x6F4 JUMPI DUP1 PUSH4 0xA90F8E9A EQ PUSH2 0x714 JUMPI DUP1 PUSH4 0xC07B528A EQ PUSH2 0x74A JUMPI PUSH1 0x0 DUP1 REVERT JUMPDEST DUP1 PUSH4 0x84AE48B5 EQ PUSH2 0x60A JUMPI DUP1 PUSH4 0x860FB05A EQ PUSH2 0x61F JUMPI DUP1 PUSH4 0x8BDB2AFA EQ PUSH2 0x63F JUMPI DUP1 PUSH4 0x8C8011E7 EQ PUSH2 0x65F JUMPI DUP1 PUSH4 0x8D717938 EQ PUSH2 0x67F JUMPI PUSH1 0x0 DUP1 REVERT JUMPDEST DUP1 PUSH4 0x68428A1B GT PUSH2 0x1DD JUMPI DUP1 PUSH4 0x715018A6 GT PUSH2 0x1A1 JUMPI DUP1 PUSH4 0x715018A6 EQ PUSH2 0x4FB JUMPI DUP1 PUSH4 0x74780939 EQ PUSH2 0x510 JUMPI DUP1 PUSH4 0x796B1553 EQ PUSH2 0x53D JUMPI DUP1 PUSH4 0x7BC1F8F5 EQ PUSH2 0x553 JUMPI DUP1 PUSH4 0x7F51BB1F EQ PUSH2 0x573 JUMPI DUP1 PUSH4 0x845DDCB2 EQ PUSH2 0x593 JUMPI PUSH1 0x0 DUP1 REVERT JUMPDEST DUP1 PUSH4 0x68428A1B EQ PUSH2 0x454 JUMPI DUP1 PUSH4 0x6C5FF4AE EQ PUSH2 0x47E JUMPI DUP1 PUSH4 0x6C7835F2 EQ PUSH2 0x4A6 JUMPI DUP1 PUSH4 0x6E1995CB EQ PUSH2 0x4C6 JUMPI DUP1 PUSH4 0x70D1E40B EQ PUSH2 0x4DB JUMPI PUSH1 0x0 DUP1 REVERT JUMPDEST DUP1 PUSH4 0x2BE058F3 GT PUSH2 0x22F JUMPI DUP1 PUSH4 0x2BE058F3 EQ PUSH2 0x346 JUMPI DUP1 PUSH4 0x36144C9A EQ PUSH2 0x373 JUMPI DUP1 PUSH4 0x37C08923 EQ PUSH2 0x3C4 JUMPI DUP1 PUSH4 0x6386C1C7 EQ PUSH2 0x3DA JUMPI DUP1 PUSH4 0x63B78F6D EQ PUSH2 0x407 JUMPI DUP1 PUSH4 0x678445EE EQ PUSH2 0x427 JUMPI PUSH1 0x0 DUP1 REVERT JUMPDEST DUP1 PUSH4 0x6B6367E EQ PUSH2 0x26C JUMPI DUP1 PUSH4 0xF6CA1A8 EQ PUSH2 0x292 JUMPI DUP1 PUSH4 0x16C856FC EQ PUSH2 0x2BF JUMPI DUP1 PUSH4 0x21874AE2 EQ PUSH2 0x2E1 JUMPI DUP1 PUSH4 0x2AE46C3F EQ PUSH2 0x30E JUMPI JUMPDEST PUSH1 0x0 DUP1 REVERT JUMPDEST PUSH2 0x27F PUSH2 0x27A CALLDATASIZE PUSH1 0x4 PUSH2 0x20FF JUMP JUMPDEST PUSH2 0x8E1 JUMP JUMPDEST PUSH1 0x40 MLOAD SWAP1 DUP2 MSTORE PUSH1 0x20 ADD JUMPDEST PUSH1 0x40 MLOAD DUP1 SWAP2 SUB SWAP1 RETURN JUMPDEST CALLVALUE DUP1 ISZERO PUSH2 0x29E JUMPI PUSH1 0x0 DUP1 REVERT JUMPDEST POP PUSH2 0x27F PUSH2 0x2AD CALLDATASIZE PUSH1 0x4 PUSH2 0x2152 JUMP JUMPDEST PUSH1 0x10 PUSH1 0x20 MSTORE PUSH1 0x0 SWAP1 DUP2 MSTORE PUSH1 0x40 SWAP1 KECCAK256 SLOAD DUP2 JUMP JUMPDEST CALLVALUE DUP1 ISZERO PUSH2 0x2CB JUMPI PUSH1 0x0 DUP1 REVERT JUMPDEST POP PUSH2 0x2DF PUSH2 0x2DA CALLDATASIZE PUSH1 0x4 PUSH2 0x2176 JUMP JUMPDEST PUSH2 0xA7D JUMP JUMPDEST STOP JUMPDEST CALLVALUE DUP1 ISZERO PUSH2 0x2ED JUMPI PUSH1 0x0 DUP1 REVERT JUMPDEST POP PUSH2 0x301 PUSH2 0x2FC CALLDATASIZE PUSH1 0x4 PUSH2 0x2152 JUMP JUMPDEST PUSH2 0xAFB JUMP JUMPDEST PUSH1 0x40 MLOAD PUSH2 0x289 SWAP2 SWAP1 PUSH2 0x2198 JUMP JUMPDEST CALLVALUE DUP1 ISZERO PUSH2 0x31A JUMPI PUSH1 0x0 DUP1 REVERT JUMPDEST POP PUSH2 0x27F PUSH2 0x329 CALLDATASIZE PUSH1 0x4 PUSH2 0x21D1 JUMP JUMPDEST PUSH1 0x11 PUSH1 0x20 SWAP1 DUP2 MSTORE PUSH1 0x0 SWAP3 DUP4 MSTORE PUSH1 0x40 DUP1 DUP5 KECCAK256 SWAP1 SWAP2 MSTORE SWAP1 DUP3 MSTORE SWAP1 KECCAK256 SLOAD DUP2 JUMP JUMPDEST CALLVALUE DUP1 ISZERO PUSH2 0x352 JUMPI PUSH1 0x0 DUP1 REVERT JUMPDEST POP PUSH2 0x27F PUSH2 0x361 CALLDATASIZE PUSH1 0x4 PUSH2 0x2152 JUMP JUMPDEST PUSH1 0xC PUSH1 0x20 MSTORE PUSH1 0x0 SWAP1 DUP2 MSTORE PUSH1 0x40 SWAP1 KECCAK256 SLOAD DUP2 JUMP JUMPDEST CALLVALUE DUP1 ISZERO PUSH2 0x37F JUMPI PUSH1 0x0 DUP1 REVERT JUMPDEST POP PUSH2 0x3AC PUSH2 0x38E CALLDATASIZE PUSH1 0x4 PUSH2 0x2152 JUMP JUMPDEST PUSH1 0x1 PUSH1 0x1 PUSH1 0xA0 SHL SUB SWAP1 DUP2 AND PUSH1 0x0 SWAP1 DUP2 MSTORE PUSH1 0x8 PUSH1 0x20 MSTORE PUSH1 0x40 SWAP1 KECCAK256 SLOAD AND SWAP1 JUMP JUMPDEST PUSH1 0x40 MLOAD PUSH1 0x1 PUSH1 0x1 PUSH1 0xA0 SHL SUB SWAP1 SWAP2 AND DUP2 MSTORE PUSH1 0x20 ADD PUSH2 0x289 JUMP JUMPDEST CALLVALUE DUP1 ISZERO PUSH2 0x3D0 JUMPI PUSH1 0x0 DUP1 REVERT JUMPDEST POP PUSH2 0x27F PUSH1 0x4 SLOAD DUP2 JUMP JUMPDEST CALLVALUE DUP1 ISZERO PUSH2 0x3E6 JUMPI PUSH1 0x0 DUP1 REVERT JUMPDEST POP PUSH2 0x3FA PUSH2 0x3F5 CALLDATASIZE PUSH1 0x4 PUSH2 0x2152 JUMP JUMPDEST PUSH2 0xBA6 JUMP JUMPDEST PUSH1 0x40 MLOAD PUSH2 0x289 SWAP2 SWAP1 PUSH2 0x2201 JUMP JUMPDEST CALLVALUE DUP1 ISZERO PUSH2 0x413 JUMPI PUSH1 0x0 DUP1 REVERT JUMPDEST POP PUSH2 0x3AC PUSH2 0x422 CALLDATASIZE PUSH1 0x4 PUSH2 0x22C6 JUMP JUMPDEST PUSH2 0xDAA JUMP JUMPDEST CALLVALUE DUP1 ISZERO PUSH2 0x433 JUMPI PUSH1 0x0 DUP1 REVERT JUMPDEST POP PUSH2 0x27F PUSH2 0x442 CALLDATASIZE PUSH1 0x4 PUSH2 0x2152 JUMP JUMPDEST PUSH1 0xA PUSH1 0x20 MSTORE PUSH1 0x0 SWAP1 DUP2 MSTORE PUSH1 0x40 SWAP1 KECCAK256 SLOAD DUP2 JUMP JUMPDEST CALLVALUE DUP1 ISZERO PUSH2 0x460 JUMPI PUSH1 0x0 DUP1 REVERT JUMPDEST POP PUSH1 0x5 SLOAD PUSH2 0x46E SWAP1 PUSH1 0xFF AND DUP2 JUMP JUMPDEST PUSH1 0x40 MLOAD SWAP1 ISZERO ISZERO DUP2 MSTORE PUSH1 0x20 ADD PUSH2 0x289 JUMP JUMPDEST CALLVALUE DUP1 ISZERO PUSH2 0x48A JUMPI PUSH1 0x0 DUP1 REVERT JUMPDEST POP PUSH1 0x6 SLOAD PUSH1 0x7 SLOAD PUSH1 0x40 DUP1 MLOAD SWAP3 DUP4 MSTORE PUSH1 0x20 DUP4 ADD SWAP2 SWAP1 SWAP2 MSTORE ADD PUSH2 0x289 JUMP JUMPDEST CALLVALUE DUP1 ISZERO PUSH2 0x4B2 JUMPI PUSH1 0x0 DUP1 REVERT JUMPDEST POP PUSH2 0x2DF PUSH2 0x4C1 CALLDATASIZE PUSH1 0x4 PUSH2 0x22F4 JUMP JUMPDEST PUSH2 0xF4B JUMP JUMPDEST CALLVALUE DUP1 ISZERO PUSH2 0x4D2 JUMPI PUSH1 0x0 DUP1 REVERT JUMPDEST POP PUSH2 0x2DF PUSH2 0x1045 JUMP JUMPDEST CALLVALUE DUP1 ISZERO PUSH2 0x4E7 JUMPI PUSH1 0x0 DUP1 REVERT JUMPDEST POP PUSH2 0x27F PUSH2 0x4F6 CALLDATASIZE PUSH1 0x4 PUSH2 0x2152 JUMP JUMPDEST PUSH2 0x10B3 JUMP JUMPDEST CALLVALUE DUP1 ISZERO PUSH2 0x507 JUMPI PUSH1 0x0 DUP1 REVERT JUMPDEST POP PUSH2 0x2DF PUSH2 0x10E1 JUMP JUMPDEST CALLVALUE DUP1 ISZERO PUSH2 0x51C JUMPI PUSH1 0x0 DUP1 REVERT JUMPDEST POP PUSH2 0x27F PUSH2 0x52B CALLDATASIZE PUSH1 0x4 PUSH2 0x2152 JUMP JUMPDEST PUSH1 0xB PUSH1 0x20 MSTORE PUSH1 0x0 SWAP1 DUP2 MSTORE PUSH1 0x40 SWAP1 KECCAK256 SLOAD DUP2 JUMP JUMPDEST CALLVALUE DUP1 ISZERO PUSH2 0x549 JUMPI PUSH1 0x0 DUP1 REVERT JUMPDEST POP PUSH2 0x27F PUSH2 0x1388 DUP2 JUMP JUMPDEST CALLVALUE DUP1 ISZERO PUSH2 0x55F JUMPI PUSH1 0x0 DUP1 REVERT JUMPDEST POP PUSH2 0x2DF PUSH2 0x56E CALLDATASIZE PUSH1 0x4 PUSH2 0x2326 JUMP JUMPDEST PUSH2 0x10F3 JUMP JUMPDEST CALLVALUE DUP1 ISZERO PUSH2 0x57F JUMPI PUSH1 0x0 DUP1 REVERT JUMPDEST POP PUSH2 0x2DF PUSH2 0x58E CALLDATASIZE PUSH1 0x4 PUSH2 0x2152 JUMP JUMPDEST PUSH2 0x11CC JUMP JUMPDEST CALLVALUE DUP1 ISZERO PUSH2 0x59F JUMPI PUSH1 0x0 DUP1 REVERT JUMPDEST POP PUSH2 0x5E0 PUSH2 0x5AE CALLDATASIZE PUSH1 0x4 PUSH2 0x2326 JUMP JUMPDEST PUSH1 0xF PUSH1 0x20 MSTORE PUSH1 0x0 SWAP1 DUP2 MSTORE PUSH1 0x40 SWAP1 KECCAK256 DUP1 SLOAD PUSH1 0x1 DUP3 ADD SLOAD PUSH1 0x2 DUP4 ADD SLOAD PUSH1 0x3 DUP5 ADD SLOAD PUSH1 0x4 SWAP1 SWAP5 ADD SLOAD SWAP3 SWAP4 SWAP2 SWAP3 SWAP1 SWAP2 SWAP1 PUSH1 0xFF AND DUP6 JUMP JUMPDEST PUSH1 0x40 DUP1 MLOAD SWAP6 DUP7 MSTORE PUSH1 0x20 DUP7 ADD SWAP5 SWAP1 SWAP5 MSTORE SWAP3 DUP5 ADD SWAP2 SWAP1 SWAP2 MSTORE PUSH1 0x60 DUP4 ADD MSTORE ISZERO ISZERO PUSH1 0x80 DUP3 ADD MSTORE PUSH1 0xA0 ADD PUSH2 0x289 JUMP JUMPDEST CALLVALUE DUP1 ISZERO PUSH2 0x616 JUMPI PUSH1 0x0 DUP1 REVERT JUMPDEST POP PUSH2 0x2DF PUSH2 0x1250 JUMP JUMPDEST CALLVALUE DUP1 ISZERO PUSH2 0x62B JUMPI PUSH1 0x0 DUP1 REVERT JUMPDEST POP PUSH2 0x27F PUSH2 0x63A CALLDATASIZE PUSH1 0x4 PUSH2 0x21D1 JUMP JUMPDEST PUSH2 0x1358 JUMP JUMPDEST CALLVALUE DUP1 ISZERO PUSH2 0x64B JUMPI PUSH1 0x0 DUP1 REVERT JUMPDEST POP PUSH1 0x2 SLOAD PUSH2 0x3AC SWAP1 PUSH1 0x1 PUSH1 0x1 PUSH1 0xA0 SHL SUB AND DUP2 JUMP JUMPDEST CALLVALUE DUP1 ISZERO PUSH2 0x66B JUMPI PUSH1 0x0 DUP1 REVERT JUMPDEST POP PUSH2 0x2DF PUSH2 0x67A CALLDATASIZE PUSH1 0x4 PUSH2 0x233F JUMP JUMPDEST PUSH2 0x13A5 JUMP JUMPDEST CALLVALUE DUP1 ISZERO PUSH2 0x68B JUMPI PUSH1 0x0 DUP1 REVERT JUMPDEST POP PUSH2 0x27F PUSH1 0x6 SLOAD DUP2 JUMP JUMPDEST CALLVALUE DUP1 ISZERO PUSH2 0x6A1 JUMPI PUSH1 0x0 DUP1 REVERT JUMPDEST POP PUSH1 0x0 SLOAD PUSH1 0x1 PUSH1 0x1 PUSH1 0xA0 SHL SUB AND PUSH2 0x3AC JUMP JUMPDEST CALLVALUE DUP1 ISZERO PUSH2 0x6BF JUMPI PUSH1 0x0 DUP1 REVERT JUMPDEST POP PUSH2 0x6C8 PUSH2 0x13F6 JUMP JUMPDEST PUSH1 0x40 MLOAD PUSH2 0x289 SWAP2 SWAP1 PUSH2 0x2361 JUMP JUMPDEST CALLVALUE DUP1 ISZERO PUSH2 0x6E1 JUMPI PUSH1 0x0 DUP1 REVERT JUMPDEST POP PUSH1 0x5 SLOAD PUSH2 0x46E SWAP1 PUSH2 0x100 SWAP1 DIV PUSH1 0xFF AND DUP2 JUMP JUMPDEST CALLVALUE DUP1 ISZERO PUSH2 0x700 JUMPI PUSH1 0x0 DUP1 REVERT JUMPDEST POP PUSH2 0x5E0 PUSH2 0x70F CALLDATASIZE PUSH1 0x4 PUSH2 0x2326 JUMP JUMPDEST PUSH2 0x15B2 JUMP JUMPDEST CALLVALUE DUP1 ISZERO PUSH2 0x720 JUMPI PUSH1 0x0 DUP1 REVERT JUMPDEST POP PUSH2 0x3AC PUSH2 0x72F CALLDATASIZE PUSH1 0x4 PUSH2 0x2152 JUMP JUMPDEST PUSH1 0x8 PUSH1 0x20 MSTORE PUSH1 0x0 SWAP1 DUP2 MSTORE PUSH1 0x40 SWAP1 KECCAK256 SLOAD PUSH1 0x1 PUSH1 0x1 PUSH1 0xA0 SHL SUB AND DUP2 JUMP JUMPDEST CALLVALUE DUP1 ISZERO PUSH2 0x756 JUMPI PUSH1 0x0 DUP1 REVERT JUMPDEST POP PUSH2 0x27F PUSH2 0x765 CALLDATASIZE PUSH1 0x4 PUSH2 0x2152 JUMP JUMPDEST PUSH1 0x9 PUSH1 0x20 MSTORE PUSH1 0x0 SWAP1 DUP2 MSTORE PUSH1 0x40 SWAP1 KECCAK256 SLOAD DUP2 JUMP JUMPDEST CALLVALUE DUP1 ISZERO PUSH2 0x783 JUMPI PUSH1 0x0 DUP1 REVERT JUMPDEST POP PUSH2 0x3AC PUSH32 0x0 DUP2 JUMP JUMPDEST CALLVALUE DUP1 ISZERO PUSH2 0x7B7 JUMPI PUSH1 0x0 DUP1 REVERT JUMPDEST POP PUSH2 0x3AC PUSH32 0x0 DUP2 JUMP JUMPDEST CALLVALUE DUP1 ISZERO PUSH2 0x7EB JUMPI PUSH1 0x0 DUP1 REVERT JUMPDEST POP PUSH1 0x3 SLOAD PUSH2 0x3AC SWAP1 PUSH1 0x1 PUSH1 0x1 PUSH1 0xA0 SHL SUB AND DUP2 JUMP JUMPDEST CALLVALUE DUP1 ISZERO PUSH2 0x80B JUMPI PUSH1 0x0 DUP1 REVERT JUMPDEST POP PUSH2 0x2DF PUSH2 0x81A CALLDATASIZE PUSH1 0x4 PUSH2 0x246E JUMP JUMPDEST PUSH2 0x1616 JUMP JUMPDEST CALLVALUE DUP1 ISZERO PUSH2 0x82B JUMPI PUSH1 0x0 DUP1 REVERT JUMPDEST POP PUSH2 0x27F PUSH2 0x83A CALLDATASIZE PUSH1 0x4 PUSH2 0x24AF JUMP JUMPDEST PUSH2 0x1637 JUMP JUMPDEST CALLVALUE DUP1 ISZERO PUSH2 0x84B JUMPI PUSH1 0x0 DUP1 REVERT JUMPDEST POP PUSH2 0x2DF PUSH2 0x85A CALLDATASIZE PUSH1 0x4 PUSH2 0x24DB JUMP JUMPDEST PUSH2 0x1749 JUMP JUMPDEST CALLVALUE DUP1 ISZERO PUSH2 0x86B JUMPI PUSH1 0x0 DUP1 REVERT JUMPDEST POP PUSH2 0x2DF PUSH2 0x87A CALLDATASIZE PUSH1 0x4 PUSH2 0x233F JUMP JUMPDEST PUSH2 0x1787 JUMP JUMPDEST CALLVALUE DUP1 ISZERO PUSH2 0x88B JUMPI PUSH1 0x0 DUP1 REVERT JUMPDEST POP PUSH2 0x27F PUSH1 0x7 SLOAD DUP2 JUMP JUMPDEST CALLVALUE DUP1 ISZERO PUSH2 0x8A1 JUMPI PUSH1 0x0 DUP1 REVERT JUMPDEST POP PUSH2 0x27F PUSH1 0xD SLOAD DUP2 JUMP JUMPDEST CALLVALUE DUP1 ISZERO PUSH2 0x8B7 JUMPI PUSH1 0x0 DUP1 REVERT JUMPDEST POP PUSH2 0x2DF PUSH2 0x8C6 CALLDATASIZE PUSH1 0x4 PUSH2 0x2152 JUMP JUMPDEST PUSH2 0x17D0 JUMP JUMPDEST CALLVALUE DUP1 ISZERO PUSH2 0x8D7 JUMPI PUSH1 0x0 DUP1 REVERT JUMPDEST POP PUSH2 0x27F PUSH1 0xE SLOAD DUP2 JUMP JUMPDEST PUSH1 0x0 PUSH2 0x8EB PUSH2 0x1813 JUMP JUMPDEST PUSH1 0x5 SLOAD PUSH1 0xFF AND PUSH2 0x90E JUMPI PUSH1 0x40 MLOAD PUSH4 0xB7B24097 PUSH1 0xE0 SHL DUP2 MSTORE PUSH1 0x4 ADD PUSH1 0x40 MLOAD DUP1 SWAP2 SUB SWAP1 REVERT JUMPDEST PUSH1 0x1 PUSH1 0x1 PUSH1 0xA0 SHL SUB DUP6 AND PUSH2 0x935 JUMPI PUSH1 0x40 MLOAD PUSH4 0x56E7EC5F PUSH1 0xE0 SHL DUP2 MSTORE PUSH1 0x4 ADD PUSH1 0x40 MLOAD DUP1 SWAP2 SUB SWAP1 REVERT JUMPDEST PUSH32 0x0 PUSH1 0x1 PUSH1 0x1 PUSH1 0xA0 SHL SUB AND DUP6 PUSH1 0x1 PUSH1 0x1 PUSH1 0xA0 SHL SUB AND SUB PUSH2 0x9D2 JUMPI DUP4 PUSH1 0x0 SUB PUSH2 0x98F JUMPI PUSH1 0x40 MLOAD PUSH4 0x162908E3 PUSH1 0xE1 SHL DUP2 MSTORE PUSH1 0x4 ADD PUSH1 0x40 MLOAD DUP1 SWAP2 SUB SWAP1 REVERT JUMPDEST PUSH1 0x3 SLOAD PUSH2 0x9CB SWAP1 PUSH1 0x1 PUSH1 0x1 PUSH1 0xA0 SHL SUB PUSH32 0x0 DUP2 AND SWAP2 CALLER SWAP2 AND DUP8 PUSH2 0x183D JUMP JUMPDEST POP DUP3 PUSH2 0xA17 JUMP JUMPDEST DUP4 PUSH1 0x0 SUB PUSH2 0x9F3 JUMPI PUSH1 0x40 MLOAD PUSH4 0x162908E3 PUSH1 0xE1 SHL DUP2 MSTORE PUSH1 0x4 ADD PUSH1 0x40 MLOAD DUP1 SWAP2 SUB SWAP1 REVERT JUMPDEST PUSH2 0xA08 PUSH1 0x1 PUSH1 0x1 PUSH1 0xA0 SHL SUB DUP7 AND CALLER ADDRESS DUP8 PUSH2 0x183D JUMP JUMPDEST PUSH2 0xA14 DUP6 DUP6 PUSH1 0x0 PUSH2 0x18AA JUMP JUMPDEST SWAP1 POP JUMPDEST PUSH2 0xA23 CALLER DUP3 DUP6 DUP6 PUSH2 0x1AD7 JUMP JUMPDEST PUSH1 0xD SLOAD PUSH1 0x40 DUP1 MLOAD DUP7 DUP2 MSTORE PUSH1 0x20 DUP2 ADD DUP5 SWAP1 MSTORE PUSH1 0x1 PUSH1 0x1 PUSH1 0xA0 SHL SUB DUP9 AND SWAP2 CALLER SWAP2 PUSH32 0x8F7A55179307CEA51948432D653DBD53A23FEDC388BCB3E04E311F8220D87864 SWAP2 ADD PUSH1 0x40 MLOAD DUP1 SWAP2 SUB SWAP1 LOG4 PUSH2 0xA75 PUSH1 0x1 DUP1 SSTORE JUMP JUMPDEST SWAP5 SWAP4 POP POP POP POP JUMP JUMPDEST PUSH2 0xA85 PUSH2 0x1CDD JUMP JUMPDEST PUSH2 0x1388 DUP3 GT DUP1 PUSH2 0xA96 JUMPI POP PUSH2 0x1388 DUP2 GT JUMPDEST ISZERO PUSH2 0xAB4 JUMPI PUSH1 0x40 MLOAD PUSH4 0xA8C753AB PUSH1 0xE0 SHL DUP2 MSTORE PUSH1 0x4 ADD PUSH1 0x40 MLOAD DUP1 SWAP2 SUB SWAP1 REVERT JUMPDEST PUSH1 0x6 DUP3 SWAP1 SSTORE PUSH1 0x7 DUP2 SWAP1 SSTORE PUSH1 0x40 DUP1 MLOAD DUP4 DUP2 MSTORE PUSH1 0x20 DUP2 ADD DUP4 SWAP1 MSTORE PUSH32 0x2BAB2BAD76D463C0A3470AED40D6D2A61922BB2673A255BD6F6B656AA28451B1 SWAP2 ADD PUSH1 0x40 MLOAD DUP1 SWAP2 SUB SWAP1 LOG1 POP POP JUMP JUMPDEST PUSH2 0xB2D PUSH1 0x40 MLOAD DUP1 PUSH1 0xA0 ADD PUSH1 0x40 MSTORE DUP1 PUSH1 0x0 DUP2 MSTORE PUSH1 0x20 ADD PUSH1 0x0 DUP2 MSTORE PUSH1 0x20 ADD PUSH1 0x0 DUP2 MSTORE PUSH1 0x20 ADD PUSH1 0x0 DUP2 MSTORE PUSH1 0x20 ADD PUSH1 0x0 DUP2 MSTORE POP SWAP1 JUMP JUMPDEST PUSH1 0x1 PUSH1 0x1 PUSH1 0xA0 SHL SUB DUP3 AND PUSH1 0x0 DUP2 DUP2 MSTORE PUSH1 0x9 PUSH1 0x20 SWAP1 DUP2 MSTORE PUSH1 0x40 DUP1 DUP4 KECCAK256 SLOAD DUP6 MSTORE SWAP3 DUP3 MSTORE PUSH1 0xA DUP2 MSTORE SWAP2 SWAP1 KECCAK256 SLOAD SWAP1 DUP3 ADD DUP2 SWAP1 MSTORE DUP2 MLOAD PUSH2 0xB68 SWAP2 SWAP1 PUSH2 0x251D JUMP JUMPDEST PUSH1 0x40 DUP1 DUP4 ADD SWAP2 SWAP1 SWAP2 MSTORE PUSH1 0x1 PUSH1 0x1 PUSH1 0xA0 SHL SUB SWAP1 SWAP3 AND PUSH1 0x0 DUP2 DUP2 MSTORE PUSH1 0xB PUSH1 0x20 SWAP1 DUP2 MSTORE DUP5 DUP3 KECCAK256 SLOAD PUSH1 0x60 DUP6 ADD MSTORE SWAP2 DUP2 MSTORE PUSH1 0xC SWAP1 SWAP2 MSTORE SWAP2 SWAP1 SWAP2 KECCAK256 SLOAD PUSH1 0x80 DUP3 ADD MSTORE SWAP1 JUMP JUMPDEST PUSH2 0xBAE PUSH2 0x201D JUMP JUMPDEST PUSH1 0x1 PUSH1 0x1 PUSH1 0xA0 SHL SUB DUP3 AND PUSH1 0x0 SWAP1 DUP2 MSTORE PUSH1 0x10 PUSH1 0x20 MSTORE PUSH1 0x40 SWAP1 KECCAK256 SLOAD DUP2 MSTORE PUSH1 0xE SLOAD PUSH2 0xBD7 JUMPI PUSH1 0x0 PUSH2 0xBFE JUMP JUMPDEST PUSH1 0xD SLOAD PUSH1 0x0 SWAP1 DUP2 MSTORE PUSH1 0x11 PUSH1 0x20 SWAP1 DUP2 MSTORE PUSH1 0x40 DUP1 DUP4 KECCAK256 PUSH1 0x1 PUSH1 0x1 PUSH1 0xA0 SHL SUB DUP7 AND DUP5 MSTORE SWAP1 SWAP2 MSTORE SWAP1 KECCAK256 SLOAD JUMPDEST PUSH1 0x40 DUP3 ADD MSTORE PUSH1 0xE SLOAD PUSH8 0xFFFFFFFFFFFFFFFF DUP2 GT ISZERO PUSH2 0xC1E JUMPI PUSH2 0xC1E PUSH2 0x2530 JUMP JUMPDEST PUSH1 0x40 MLOAD SWAP1 DUP1 DUP3 MSTORE DUP1 PUSH1 0x20 MUL PUSH1 0x20 ADD DUP3 ADD PUSH1 0x40 MSTORE DUP1 ISZERO PUSH2 0xC75 JUMPI DUP2 PUSH1 0x20 ADD JUMPDEST PUSH2 0xC62 PUSH1 0x40 MLOAD DUP1 PUSH1 0x60 ADD PUSH1 0x40 MSTORE DUP1 PUSH1 0x0 DUP2 MSTORE PUSH1 0x20 ADD PUSH1 0x0 DUP2 MSTORE PUSH1 0x20 ADD PUSH1 0x0 ISZERO ISZERO DUP2 MSTORE POP SWAP1 JUMP JUMPDEST DUP2 MSTORE PUSH1 0x20 ADD SWAP1 PUSH1 0x1 SWAP1 SUB SWAP1 DUP2 PUSH2 0xC3C JUMPI SWAP1 POP JUMPDEST POP PUSH1 0x60 DUP3 ADD MSTORE PUSH1 0x0 DUP1 JUMPDEST PUSH1 0xE SLOAD DUP2 LT ISZERO PUSH2 0xD14 JUMPI PUSH1 0x0 DUP2 DUP2 MSTORE PUSH1 0x11 PUSH1 0x20 SWAP1 DUP2 MSTORE PUSH1 0x40 DUP1 DUP4 KECCAK256 PUSH1 0x1 PUSH1 0x1 PUSH1 0xA0 SHL SUB DUP9 AND DUP5 MSTORE DUP3 MSTORE SWAP2 DUP3 SWAP1 KECCAK256 SLOAD DUP3 MLOAD PUSH1 0x60 DUP1 DUP3 ADD DUP6 MSTORE DUP6 DUP3 MSTORE SWAP3 DUP2 ADD DUP3 SWAP1 MSTORE DUP2 ISZERO ISZERO SWAP4 DUP2 ADD SWAP4 SWAP1 SWAP4 MSTORE SWAP1 DUP6 ADD MLOAD DUP1 MLOAD SWAP2 SWAP3 SWAP2 DUP5 SWAP1 DUP2 LT PUSH2 0xCE2 JUMPI PUSH2 0xCE2 PUSH2 0x2546 JUMP JUMPDEST PUSH1 0x20 SWAP1 DUP2 MUL SWAP2 SWAP1 SWAP2 ADD ADD MSTORE DUP1 ISZERO PUSH2 0xD01 JUMPI DUP3 PUSH2 0xCFD DUP2 PUSH2 0x255C JUMP JUMPDEST SWAP4 POP POP JUMPDEST POP DUP1 PUSH2 0xD0C DUP2 PUSH2 0x255C JUMP JUMPDEST SWAP2 POP POP PUSH2 0xC7F JUMP JUMPDEST POP PUSH1 0x20 DUP1 DUP4 ADD DUP3 SWAP1 MSTORE PUSH1 0x40 DUP1 MLOAD PUSH1 0xA0 DUP2 ADD DUP3 MSTORE PUSH1 0x1 PUSH1 0x1 PUSH1 0xA0 SHL SUB DUP7 AND PUSH1 0x0 DUP2 DUP2 MSTORE PUSH1 0x9 DUP1 DUP7 MSTORE DUP5 DUP3 KECCAK256 SLOAD DUP1 DUP6 MSTORE DUP4 DUP4 MSTORE PUSH1 0xA DUP8 MSTORE DUP6 DUP4 KECCAK256 SLOAD DUP6 DUP9 ADD DUP2 SWAP1 MSTORE SWAP4 SWAP1 SWAP3 MSTORE SWAP1 SWAP5 MSTORE SWAP1 SWAP3 SWAP2 DUP4 ADD SWAP2 PUSH2 0xD6A SWAP2 SWAP1 PUSH2 0x251D JUMP JUMPDEST DUP2 MSTORE PUSH1 0x1 PUSH1 0x1 PUSH1 0xA0 SHL SUB SWAP1 SWAP5 AND PUSH1 0x0 DUP2 DUP2 MSTORE PUSH1 0xB PUSH1 0x20 SWAP1 DUP2 MSTORE PUSH1 0x40 DUP1 DUP4 KECCAK256 SLOAD DUP3 DUP10 ADD MSTORE SWAP3 DUP3 MSTORE PUSH1 0xC SWAP1 MSTORE DUP2 SWAP1 KECCAK256 SLOAD SWAP5 ADD SWAP4 SWAP1 SWAP4 MSTORE POP PUSH1 0x80 DUP2 ADD SWAP2 SWAP1 SWAP2 MSTORE SWAP1 JUMP JUMPDEST PUSH1 0x40 DUP1 MLOAD PUSH1 0x80 DUP2 ADD DUP3 MSTORE PUSH2 0x1F4 DUP2 MSTORE PUSH2 0x9C4 PUSH1 0x20 DUP3 ADD MSTORE PUSH2 0xBB8 SWAP2 DUP2 ADD SWAP2 SWAP1 SWAP2 MSTORE PUSH2 0x2710 PUSH1 0x60 DUP3 ADD MSTORE PUSH1 0x0 SWAP1 DUP2 DUP1 DUP1 JUMPDEST PUSH1 0x4 DUP2 LT ISZERO PUSH2 0xF3E JUMPI PUSH1 0x2 SLOAD PUSH1 0x0 SWAP1 PUSH1 0x1 PUSH1 0x1 PUSH1 0xA0 SHL SUB AND PUSH4 0x1698EE82 DUP10 DUP10 DUP9 DUP7 PUSH1 0x4 DUP2 LT PUSH2 0xE0B JUMPI PUSH2 0xE0B PUSH2 0x2546 JUMP JUMPDEST PUSH1 0x20 MUL ADD MLOAD PUSH1 0x40 MLOAD PUSH1 0x1 PUSH1 0x1 PUSH1 0xE0 SHL SUB NOT PUSH1 0xE0 DUP7 SWAP1 SHL AND DUP2 MSTORE PUSH1 0x1 PUSH1 0x1 PUSH1 0xA0 SHL SUB SWAP4 DUP5 AND PUSH1 0x4 DUP3 ADD MSTORE SWAP3 SWAP1 SWAP2 AND PUSH1 0x24 DUP4 ADD MSTORE PUSH3 0xFFFFFF AND PUSH1 0x44 DUP3 ADD MSTORE PUSH1 0x64 ADD PUSH1 0x20 PUSH1 0x40 MLOAD DUP1 DUP4 SUB DUP2 DUP7 GAS STATICCALL ISZERO DUP1 ISZERO PUSH2 0xE67 JUMPI RETURNDATASIZE PUSH1 0x0 DUP1 RETURNDATACOPY RETURNDATASIZE PUSH1 0x0 REVERT JUMPDEST POP POP POP POP PUSH1 0x40 MLOAD RETURNDATASIZE PUSH1 0x1F NOT PUSH1 0x1F DUP3 ADD AND DUP3 ADD DUP1 PUSH1 0x40 MSTORE POP DUP2 ADD SWAP1 PUSH2 0xE8B SWAP2 SWAP1 PUSH2 0x2575 JUMP JUMPDEST SWAP1 POP PUSH1 0x1 PUSH1 0x1 PUSH1 0xA0 SHL SUB DUP2 AND ISZERO PUSH2 0xF2B JUMPI PUSH1 0x0 DUP2 SWAP1 POP PUSH1 0x0 DUP2 PUSH1 0x1 PUSH1 0x1 PUSH1 0xA0 SHL SUB AND PUSH4 0x1A686502 PUSH1 0x40 MLOAD DUP2 PUSH4 0xFFFFFFFF AND PUSH1 0xE0 SHL DUP2 MSTORE PUSH1 0x4 ADD PUSH1 0x20 PUSH1 0x40 MLOAD DUP1 DUP4 SUB DUP2 DUP7 GAS STATICCALL ISZERO DUP1 ISZERO PUSH2 0xEE1 JUMPI RETURNDATASIZE PUSH1 0x0 DUP1 RETURNDATACOPY RETURNDATASIZE PUSH1 0x0 REVERT JUMPDEST POP POP POP POP PUSH1 0x40 MLOAD RETURNDATASIZE PUSH1 0x1F NOT PUSH1 0x1F DUP3 ADD AND DUP3 ADD DUP1 PUSH1 0x40 MSTORE POP DUP2 ADD SWAP1 PUSH2 0xF05 SWAP2 SWAP1 PUSH2 0x2592 JUMP JUMPDEST SWAP1 POP DUP5 PUSH1 0x1 PUSH1 0x1 PUSH1 0x80 SHL SUB AND DUP2 PUSH1 0x1 PUSH1 0x1 PUSH1 0x80 SHL SUB AND GT ISZERO PUSH2 0xF28 JUMPI DUP1 SWAP5 POP DUP3 SWAP6 POP JUMPDEST POP POP JUMPDEST POP DUP1 PUSH2 0xF36 DUP2 PUSH2 0x255C JUMP JUMPDEST SWAP2 POP POP PUSH2 0xDDA JUMP JUMPDEST POP SWAP1 SWAP3 POP POP POP JUMPDEST SWAP3 SWAP2 POP POP JUMP JUMPDEST PUSH2 0xF53 PUSH2 0x1CDD JUMP JUMPDEST PUSH1 0xE SLOAD DUP5 LT PUSH2 0xF75 JUMPI PUSH1 0x40 MLOAD PUSH4 0xF384292F PUSH1 0xE0 SHL DUP2 MSTORE PUSH1 0x4 ADD PUSH1 0x40 MLOAD DUP1 SWAP2 SUB SWAP1 REVERT JUMPDEST DUP3 PUSH1 0x0 SUB PUSH2 0xF96 JUMPI PUSH1 0x40 MLOAD PUSH4 0xE773E0A9 PUSH1 0xE0 SHL DUP2 MSTORE PUSH1 0x4 ADD PUSH1 0x40 MLOAD DUP1 SWAP2 SUB SWAP1 REVERT JUMPDEST DUP2 DUP2 LT ISZERO PUSH2 0xFB7 JUMPI PUSH1 0x40 MLOAD PUSH4 0xE773E0A9 PUSH1 0xE0 SHL DUP2 MSTORE PUSH1 0x4 ADD PUSH1 0x40 MLOAD DUP1 SWAP2 SUB SWAP1 REVERT JUMPDEST PUSH1 0x0 DUP5 DUP2 MSTORE PUSH1 0xF PUSH1 0x20 MSTORE PUSH1 0x40 SWAP1 KECCAK256 PUSH1 0x1 DUP2 ADD SLOAD DUP5 LT ISZERO PUSH2 0xFEA JUMPI PUSH1 0x40 MLOAD PUSH4 0xE773E0A9 PUSH1 0xE0 SHL DUP2 MSTORE PUSH1 0x4 ADD PUSH1 0x40 MLOAD DUP1 SWAP2 SUB SWAP1 REVERT JUMPDEST DUP4 DUP2 SSTORE PUSH1 0x2 DUP2 ADD DUP4 SWAP1 SSTORE PUSH1 0x3 DUP2 ADD DUP3 SWAP1 SSTORE PUSH1 0x40 DUP1 MLOAD DUP6 DUP2 MSTORE PUSH1 0x20 DUP2 ADD DUP6 SWAP1 MSTORE SWAP1 DUP2 ADD DUP4 SWAP1 MSTORE DUP6 SWAP1 PUSH32 0x8801CD9C7E0D9B0ED3A85806CD1F1890396EEB59814F915C53295614F679C6FF SWAP1 PUSH1 0x60 ADD PUSH1 0x40 MLOAD DUP1 SWAP2 SUB SWAP1 LOG2 POP POP POP POP POP JUMP JUMPDEST PUSH2 0x104D PUSH2 0x1CDD JUMP JUMPDEST PUSH1 0xD SLOAD PUSH1 0x0 SWAP1 DUP2 MSTORE PUSH1 0xF PUSH1 0x20 MSTORE PUSH1 0x40 SWAP1 KECCAK256 PUSH1 0x4 ADD SLOAD PUSH1 0xFF AND ISZERO PUSH2 0x10B1 JUMPI PUSH1 0xD DUP1 SLOAD PUSH1 0x0 SWAP1 DUP2 MSTORE PUSH1 0xF PUSH1 0x20 MSTORE PUSH1 0x40 DUP1 DUP3 KECCAK256 PUSH1 0x4 ADD DUP1 SLOAD PUSH1 0xFF NOT AND SWAP1 SSTORE SWAP2 SLOAD SWAP2 MLOAD PUSH32 0xC140BE611C4CF287A329B09A238F8A5B6C1E166548B361523EC83989E29BCBE7 SWAP2 SWAP1 LOG2 JUMPDEST JUMP JUMPDEST PUSH1 0x1 PUSH1 0x1 PUSH1 0xA0 SHL SUB DUP2 AND PUSH1 0x0 SWAP1 DUP2 MSTORE PUSH1 0xA PUSH1 0x20 SWAP1 DUP2 MSTORE PUSH1 0x40 DUP1 DUP4 KECCAK256 SLOAD PUSH1 0x9 SWAP1 SWAP3 MSTORE DUP3 KECCAK256 SLOAD PUSH2 0xF45 SWAP2 SWAP1 PUSH2 0x251D JUMP JUMPDEST PUSH2 0x10E9 PUSH2 0x1CDD JUMP JUMPDEST PUSH2 0x10B1 PUSH1 0x0 PUSH2 0x1D0A JUMP JUMPDEST PUSH2 0x10FB PUSH2 0x1CDD JUMP JUMPDEST PUSH1 0xE SLOAD DUP2 LT PUSH2 0x111D JUMPI PUSH1 0x40 MLOAD PUSH4 0xF384292F PUSH1 0xE0 SHL DUP2 MSTORE PUSH1 0x4 ADD PUSH1 0x40 MLOAD DUP1 SWAP2 SUB SWAP1 REVERT JUMPDEST PUSH1 0xD SLOAD PUSH1 0x0 SWAP1 DUP2 MSTORE PUSH1 0xF PUSH1 0x20 MSTORE PUSH1 0x40 SWAP1 KECCAK256 PUSH1 0x4 ADD SLOAD PUSH1 0xFF AND ISZERO PUSH2 0x1181 JUMPI PUSH1 0xD DUP1 SLOAD PUSH1 0x0 SWAP1 DUP2 MSTORE PUSH1 0xF PUSH1 0x20 MSTORE PUSH1 0x40 DUP1 DUP3 KECCAK256 PUSH1 0x4 ADD DUP1 SLOAD PUSH1 0xFF NOT AND SWAP1 SSTORE SWAP2 SLOAD SWAP2 MLOAD PUSH32 0xC140BE611C4CF287A329B09A238F8A5B6C1E166548B361523EC83989E29BCBE7 SWAP2 SWAP1 LOG2 JUMPDEST PUSH1 0x0 DUP2 DUP2 MSTORE PUSH1 0xF PUSH1 0x20 MSTORE PUSH1 0x40 DUP1 DUP3 KECCAK256 PUSH1 0x4 ADD DUP1 SLOAD PUSH1 0xFF NOT AND PUSH1 0x1 OR SWAP1 SSTORE PUSH1 0xD DUP4 SWAP1 SSTORE MLOAD DUP3 SWAP2 PUSH32 0x3EAB6A60B7FA9A8CE2E4F8516274D21FB3606AFE26BA1B5BC7E487BD4A25CC6 SWAP2 LOG2 POP JUMP JUMPDEST PUSH2 0x11D4 PUSH2 0x1CDD JUMP JUMPDEST PUSH1 0x1 PUSH1 0x1 PUSH1 0xA0 SHL SUB DUP2 AND PUSH2 0x11FB JUMPI PUSH1 0x40 MLOAD PUSH4 0xE6C4247B PUSH1 0xE0 SHL DUP2 MSTORE PUSH1 0x4 ADD PUSH1 0x40 MLOAD DUP1 SWAP2 SUB SWAP1 REVERT JUMPDEST PUSH1 0x3 DUP1 SLOAD PUSH1 0x1 PUSH1 0x1 PUSH1 0xA0 SHL SUB NOT AND PUSH1 0x1 PUSH1 0x1 PUSH1 0xA0 SHL SUB DUP4 AND SWAP1 DUP2 OR SWAP1 SWAP2 SSTORE PUSH1 0x40 MLOAD SWAP1 DUP2 MSTORE PUSH32 0x7DAE230F18360D76A040C81F050AA14EB9D6DC7901B20FC5D855E2A20FE814D1 SWAP1 PUSH1 0x20 ADD JUMPDEST PUSH1 0x40 MLOAD DUP1 SWAP2 SUB SWAP1 LOG1 POP JUMP JUMPDEST PUSH2 0x1258 PUSH2 0x1813 JUMP JUMPDEST PUSH1 0x5 SLOAD PUSH2 0x100 SWAP1 DIV PUSH1 0xFF AND PUSH2 0x1280 JUMPI PUSH1 0x40 MLOAD PUSH4 0x3D7B1FCD PUSH1 0xE0 SHL DUP2 MSTORE PUSH1 0x4 ADD PUSH1 0x40 MLOAD DUP1 SWAP2 SUB SWAP1 REVERT JUMPDEST CALLER PUSH1 0x0 SWAP1 DUP2 MSTORE PUSH1 0xA PUSH1 0x20 SWAP1 DUP2 MSTORE PUSH1 0x40 DUP1 DUP4 KECCAK256 SLOAD PUSH1 0x9 SWAP1 SWAP3 MSTORE DUP3 KECCAK256 SLOAD PUSH2 0x12A5 SWAP2 SWAP1 PUSH2 0x251D JUMP JUMPDEST SWAP1 POP DUP1 PUSH1 0x0 SUB PUSH2 0x12C8 JUMPI PUSH1 0x40 MLOAD PUSH4 0x6773E7E9 PUSH1 0xE0 SHL DUP2 MSTORE PUSH1 0x4 ADD PUSH1 0x40 MLOAD DUP1 SWAP2 SUB SWAP1 REVERT JUMPDEST CALLER PUSH1 0x0 DUP2 DUP2 MSTORE PUSH1 0x9 PUSH1 0x20 SWAP1 DUP2 MSTORE PUSH1 0x40 DUP1 DUP4 KECCAK256 SLOAD PUSH1 0xA SWAP1 SWAP3 MSTORE SWAP1 SWAP2 KECCAK256 SSTORE PUSH2 0x1319 SWAP1 PUSH32 0x0 PUSH1 0x1 PUSH1 0x1 PUSH1 0xA0 SHL SUB AND SWAP1 DUP4 PUSH2 0x1D5A JUMP JUMPDEST PUSH1 0x40 MLOAD DUP2 DUP2 MSTORE CALLER SWAP1 PUSH32 0x6CD4D40588B17656762E007B5B0C873A86CC13D23123CD1C44B4389B8AAFA105 SWAP1 PUSH1 0x20 ADD PUSH1 0x40 MLOAD DUP1 SWAP2 SUB SWAP1 LOG2 POP PUSH2 0x10B1 PUSH1 0x1 DUP1 SSTORE JUMP JUMPDEST PUSH1 0x0 PUSH1 0xE SLOAD DUP4 LT PUSH2 0x137C JUMPI PUSH1 0x40 MLOAD PUSH4 0xF384292F PUSH1 0xE0 SHL DUP2 MSTORE PUSH1 0x4 ADD PUSH1 0x40 MLOAD DUP1 SWAP2 SUB SWAP1 REVERT JUMPDEST POP PUSH1 0x0 SWAP2 DUP3 MSTORE PUSH1 0x11 PUSH1 0x20 SWAP1 DUP2 MSTORE PUSH1 0x40 DUP1 DUP5 KECCAK256 PUSH1 0x1 PUSH1 0x1 PUSH1 0xA0 SHL SUB SWAP4 SWAP1 SWAP4 AND DUP5 MSTORE SWAP2 SWAP1 MSTORE SWAP1 KECCAK256 SLOAD SWAP1 JUMP JUMPDEST PUSH2 0x13AD PUSH2 0x1CDD JUMP JUMPDEST PUSH1 0x5 DUP1 SLOAD DUP3 ISZERO ISZERO PUSH2 0x100 MUL PUSH2 0xFF00 NOT SWAP1 SWAP2 AND OR SWAP1 SSTORE PUSH1 0x40 MLOAD PUSH32 0xF96818FEF2FC4F08203AEE26449CD99714CE4D1DC8747553927C851AF7217238 SWAP1 PUSH2 0x1245 SWAP1 DUP4 ISZERO ISZERO DUP2 MSTORE PUSH1 0x20 ADD SWAP1 JUMP JUMPDEST PUSH2 0x13FE PUSH2 0x207B JUMP JUMPDEST PUSH1 0xE SLOAD DUP1 DUP3 MSTORE PUSH1 0xD SLOAD PUSH1 0x20 DUP4 ADD MSTORE PUSH1 0x4 SLOAD PUSH1 0x40 DUP4 ADD MSTORE PUSH1 0x5 SLOAD PUSH1 0xFF AND ISZERO ISZERO PUSH1 0xA0 DUP4 ADD MSTORE ISZERO PUSH2 0x1487 JUMPI PUSH1 0xD SLOAD PUSH1 0x0 DUP2 DUP2 MSTORE PUSH1 0xF PUSH1 0x20 SWAP1 DUP2 MSTORE PUSH1 0x40 SWAP2 DUP3 SWAP1 KECCAK256 DUP3 MLOAD PUSH1 0xC0 DUP2 ADD DUP5 MSTORE SWAP4 DUP5 MSTORE DUP1 SLOAD SWAP2 DUP5 ADD SWAP2 SWAP1 SWAP2 MSTORE PUSH1 0x1 DUP2 ADD SLOAD SWAP2 DUP4 ADD SWAP2 SWAP1 SWAP2 MSTORE PUSH1 0x2 DUP2 ADD SLOAD PUSH1 0x60 DUP1 DUP5 ADD SWAP2 SWAP1 SWAP2 MSTORE PUSH1 0x3 DUP3 ADD SLOAD PUSH1 0x80 DUP5 ADD MSTORE PUSH1 0x4 SWAP1 SWAP2 ADD SLOAD PUSH1 0xFF AND ISZERO ISZERO PUSH1 0xA0 DUP4 ADD MSTORE DUP3 ADD MSTORE JUMPDEST PUSH1 0xE SLOAD PUSH8 0xFFFFFFFFFFFFFFFF DUP2 GT ISZERO PUSH2 0x14A2 JUMPI PUSH2 0x14A2 PUSH2 0x2530 JUMP JUMPDEST PUSH1 0x40 MLOAD SWAP1 DUP1 DUP3 MSTORE DUP1 PUSH1 0x20 MUL PUSH1 0x20 ADD DUP3 ADD PUSH1 0x40 MSTORE DUP1 ISZERO PUSH2 0x150E JUMPI DUP2 PUSH1 0x20 ADD JUMPDEST PUSH2 0x14FB PUSH1 0x40 MLOAD DUP1 PUSH1 0xC0 ADD PUSH1 0x40 MSTORE DUP1 PUSH1 0x0 DUP2 MSTORE PUSH1 0x20 ADD PUSH1 0x0 DUP2 MSTORE PUSH1 0x20 ADD PUSH1 0x0 DUP2 MSTORE PUSH1 0x20 ADD PUSH1 0x0 DUP2 MSTORE PUSH1 0x20 ADD PUSH1 0x0 DUP2 MSTORE PUSH1 0x20 ADD PUSH1 0x0 ISZERO ISZERO DUP2 MSTORE POP SWAP1 JUMP JUMPDEST DUP2 MSTORE PUSH1 0x20 ADD SWAP1 PUSH1 0x1 SWAP1 SUB SWAP1 DUP2 PUSH2 0x14C0 JUMPI SWAP1 POP JUMPDEST POP PUSH1 0x80 DUP3 ADD MSTORE PUSH1 0x0 JUMPDEST PUSH1 0xE SLOAD DUP2 LT ISZERO PUSH2 0x15AE JUMPI PUSH1 0x0 DUP2 DUP2 MSTORE PUSH1 0xF PUSH1 0x20 SWAP1 DUP2 MSTORE PUSH1 0x40 SWAP2 DUP3 SWAP1 KECCAK256 DUP3 MLOAD PUSH1 0xC0 DUP2 ADD DUP5 MSTORE DUP5 DUP2 MSTORE DUP2 SLOAD SWAP3 DUP2 ADD SWAP3 SWAP1 SWAP3 MSTORE PUSH1 0x1 DUP2 ADD SLOAD SWAP3 DUP3 ADD SWAP3 SWAP1 SWAP3 MSTORE PUSH1 0x2 DUP3 ADD SLOAD PUSH1 0x60 DUP3 ADD MSTORE PUSH1 0x3 DUP3 ADD SLOAD PUSH1 0x80 DUP1 DUP4 ADD SWAP2 SWAP1 SWAP2 MSTORE PUSH1 0x4 DUP4 ADD SLOAD PUSH1 0xFF AND ISZERO ISZERO PUSH1 0xA0 DUP4 ADD MSTORE DUP5 ADD MLOAD DUP1 MLOAD DUP5 SWAP1 DUP2 LT PUSH2 0x158F JUMPI PUSH2 0x158F PUSH2 0x2546 JUMP JUMPDEST PUSH1 0x20 MUL PUSH1 0x20 ADD ADD DUP2 SWAP1 MSTORE POP POP DUP1 DUP1 PUSH2 0x15A6 SWAP1 PUSH2 0x255C JUMP JUMPDEST SWAP2 POP POP PUSH2 0x1517 JUMP JUMPDEST POP SWAP1 JUMP JUMPDEST PUSH1 0x0 DUP1 PUSH1 0x0 DUP1 PUSH1 0x0 PUSH1 0xE SLOAD DUP7 LT PUSH2 0x15DC JUMPI PUSH1 0x40 MLOAD PUSH4 0xF384292F PUSH1 0xE0 SHL DUP2 MSTORE PUSH1 0x4 ADD PUSH1 0x40 MLOAD DUP1 SWAP2 SUB SWAP1 REVERT JUMPDEST POP POP POP PUSH1 0x0 SWAP3 DUP4 MSTORE POP POP PUSH1 0xF PUSH1 0x20 MSTORE PUSH1 0x40 SWAP1 KECCAK256 DUP1 SLOAD PUSH1 0x1 DUP3 ADD SLOAD PUSH1 0x2 DUP4 ADD SLOAD PUSH1 0x3 DUP5 ADD SLOAD PUSH1 0x4 SWAP1 SWAP5 ADD SLOAD SWAP3 SWAP5 SWAP2 SWAP4 SWAP1 SWAP3 SWAP1 SWAP2 PUSH1 0xFF SWAP1 SWAP2 AND SWAP1 JUMP JUMPDEST PUSH2 0x161E PUSH2 0x1CDD JUMP JUMPDEST PUSH2 0x1632 PUSH1 0x1 PUSH1 0x1 PUSH1 0xA0 SHL SUB DUP5 AND DUP4 DUP4 PUSH2 0x1D5A JUMP JUMPDEST POP POP POP JUMP JUMPDEST PUSH1 0x0 PUSH2 0x1641 PUSH2 0x1CDD JUMP JUMPDEST DUP4 PUSH1 0x0 SUB PUSH2 0x1662 JUMPI PUSH1 0x40 MLOAD PUSH4 0xE773E0A9 PUSH1 0xE0 SHL DUP2 MSTORE PUSH1 0x4 ADD PUSH1 0x40 MLOAD DUP1 SWAP2 SUB SWAP1 REVERT JUMPDEST DUP3 DUP3 LT ISZERO PUSH2 0x1683 JUMPI PUSH1 0x40 MLOAD PUSH4 0xE773E0A9 PUSH1 0xE0 SHL DUP2 MSTORE PUSH1 0x4 ADD PUSH1 0x40 MLOAD DUP1 SWAP2 SUB SWAP1 REVERT JUMPDEST PUSH1 0xE DUP1 SLOAD PUSH1 0x40 DUP1 MLOAD PUSH1 0xA0 DUP2 ADD DUP3 MSTORE DUP8 DUP2 MSTORE PUSH1 0x0 PUSH1 0x20 DUP1 DUP4 ADD DUP3 DUP2 MSTORE DUP4 DUP6 ADD DUP11 DUP2 MSTORE PUSH1 0x60 DUP6 ADD DUP11 DUP2 MSTORE PUSH1 0x80 DUP7 ADD DUP6 DUP2 MSTORE DUP9 DUP7 MSTORE PUSH1 0xF SWAP1 SWAP5 MSTORE SWAP6 DUP5 KECCAK256 SWAP5 MLOAD DUP6 SSTORE SWAP1 MLOAD PUSH1 0x1 DUP6 ADD SSTORE MLOAD PUSH1 0x2 DUP5 ADD SSTORE SWAP3 MLOAD PUSH1 0x3 DUP4 ADD SSTORE SWAP2 MLOAD PUSH1 0x4 SWAP1 SWAP2 ADD DUP1 SLOAD PUSH1 0xFF NOT AND SWAP2 ISZERO ISZERO SWAP2 SWAP1 SWAP2 OR SWAP1 SSTORE DUP3 SLOAD SWAP2 SWAP3 SWAP1 PUSH2 0x16F9 DUP4 PUSH2 0x255C JUMP JUMPDEST SWAP1 SWAP2 SSTORE POP POP PUSH1 0x40 DUP1 MLOAD DUP7 DUP2 MSTORE PUSH1 0x20 DUP2 ADD DUP7 SWAP1 MSTORE SWAP1 DUP2 ADD DUP5 SWAP1 MSTORE DUP2 SWAP1 PUSH32 0xCC2C7ECADEA784EB7F00DA16E96860D108EF24D3B6A56A376211537BF2A85572 SWAP1 PUSH1 0x60 ADD PUSH1 0x40 MLOAD DUP1 SWAP2 SUB SWAP1 LOG2 SWAP5 SWAP4 POP POP POP POP JUMP JUMPDEST PUSH2 0x1751 PUSH2 0x1CDD JUMP JUMPDEST PUSH1 0x40 MLOAD PUSH1 0x1 PUSH1 0x1 PUSH1 0xA0 SHL SUB DUP4 AND SWAP1 DUP3 ISZERO PUSH2 0x8FC MUL SWAP1 DUP4 SWAP1 PUSH1 0x0 DUP2 DUP2 DUP2 DUP6 DUP9 DUP9 CALL SWAP4 POP POP POP POP ISZERO DUP1 ISZERO PUSH2 0x1632 JUMPI RETURNDATASIZE PUSH1 0x0 DUP1 RETURNDATACOPY RETURNDATASIZE PUSH1 0x0 REVERT JUMPDEST PUSH2 0x178F PUSH2 0x1CDD JUMP JUMPDEST PUSH1 0x5 DUP1 SLOAD PUSH1 0xFF NOT AND DUP3 ISZERO ISZERO SWAP1 DUP2 OR SWAP1 SWAP2 SSTORE PUSH1 0x40 MLOAD SWAP1 DUP2 MSTORE PUSH32 0xF3637CDF61687BB87179D2DA614BC1F4AA93C3CBF40282CCD0A15ECAD9184CC1 SWAP1 PUSH1 0x20 ADD PUSH2 0x1245 JUMP JUMPDEST PUSH2 0x17D8 PUSH2 0x1CDD JUMP JUMPDEST PUSH1 0x1 PUSH1 0x1 PUSH1 0xA0 SHL SUB DUP2 AND PUSH2 0x1807 JUMPI PUSH1 0x40 MLOAD PUSH4 0x1E4FBDF7 PUSH1 0xE0 SHL DUP2 MSTORE PUSH1 0x0 PUSH1 0x4 DUP3 ADD MSTORE PUSH1 0x24 ADD JUMPDEST PUSH1 0x40 MLOAD DUP1 SWAP2 SUB SWAP1 REVERT JUMPDEST PUSH2 0x1810 DUP2 PUSH2 0x1D0A JUMP JUMPDEST POP JUMP JUMPDEST PUSH1 0x2 PUSH1 0x1 SLOAD SUB PUSH2 0x1836 JUMPI PUSH1 0x40 MLOAD PUSH4 0x3EE5AEB5 PUSH1 0xE0 SHL DUP2 MSTORE PUSH1 0x4 ADD PUSH1 0x40 MLOAD DUP1 SWAP2 SUB SWAP1 REVERT JUMPDEST PUSH1 0x2 PUSH1 0x1 SSTORE JUMP JUMPDEST PUSH1 0x40 MLOAD PUSH1 0x1 PUSH1 0x1 PUSH1 0xA0 SHL SUB DUP5 DUP2 AND PUSH1 0x24 DUP4 ADD MSTORE DUP4 DUP2 AND PUSH1 0x44 DUP4 ADD MSTORE PUSH1 0x64 DUP3 ADD DUP4 SWAP1 MSTORE PUSH2 0x18A4 SWAP2 DUP7 SWAP2 DUP3 AND SWAP1 PUSH4 0x23B872DD SWAP1 PUSH1 0x84 ADD JUMPDEST PUSH1 0x40 MLOAD PUSH1 0x20 DUP2 DUP4 SUB SUB DUP2 MSTORE SWAP1 PUSH1 0x40 MSTORE SWAP2 POP PUSH1 0xE0 SHL PUSH1 0x20 DUP3 ADD DUP1 MLOAD PUSH1 0x1 PUSH1 0x1 PUSH1 0xE0 SHL SUB DUP4 DUP2 DUP4 AND OR DUP4 MSTORE POP POP POP POP PUSH2 0x1D8B JUMP JUMPDEST POP POP POP POP JUMP JUMPDEST PUSH1 0x40 DUP1 MLOAD PUSH1 0xE0 DUP2 ADD DUP3 MSTORE PUSH1 0x0 DUP1 DUP3 MSTORE PUSH1 0x20 DUP3 ADD DUP2 SWAP1 MSTORE SWAP2 DUP2 ADD DUP3 SWAP1 MSTORE PUSH1 0x60 DUP2 ADD DUP3 SWAP1 MSTORE PUSH1 0x80 DUP2 ADD DUP3 SWAP1 MSTORE PUSH1 0xA0 DUP2 ADD DUP3 SWAP1 MSTORE PUSH1 0xC0 DUP2 ADD DUP3 SWAP1 MSTORE PUSH1 0x0 PUSH2 0x190E DUP7 PUSH32 0x0 PUSH2 0xDAA JUMP JUMPDEST SWAP1 POP PUSH1 0x1 PUSH1 0x1 PUSH1 0xA0 SHL SUB DUP2 AND PUSH2 0x1937 JUMPI PUSH1 0x40 MLOAD PUSH4 0x9EBBD11D PUSH1 0xE0 SHL DUP2 MSTORE PUSH1 0x4 ADD PUSH1 0x40 MLOAD DUP1 SWAP2 SUB SWAP1 REVERT JUMPDEST PUSH1 0x0 DUP2 PUSH1 0x1 PUSH1 0x1 PUSH1 0xA0 SHL SUB AND PUSH4 0xDDCA3F43 PUSH1 0x40 MLOAD DUP2 PUSH4 0xFFFFFFFF AND PUSH1 0xE0 SHL DUP2 MSTORE PUSH1 0x4 ADD PUSH1 0x20 PUSH1 0x40 MLOAD DUP1 DUP4 SUB DUP2 DUP7 GAS STATICCALL ISZERO DUP1 ISZERO PUSH2 0x1977 JUMPI RETURNDATASIZE PUSH1 0x0 DUP1 RETURNDATACOPY RETURNDATASIZE PUSH1 0x0 REVERT JUMPDEST POP POP POP POP PUSH1 0x40 MLOAD RETURNDATASIZE PUSH1 0x1F NOT PUSH1 0x1F DUP3 ADD AND DUP3 ADD DUP1 PUSH1 0x40 MSTORE POP DUP2 ADD SWAP1 PUSH2 0x199B SWAP2 SWAP1 PUSH2 0x25BB JUMP JUMPDEST PUSH1 0x40 DUP1 MLOAD PUSH1 0xE0 DUP2 ADD DUP3 MSTORE PUSH1 0x1 PUSH1 0x1 PUSH1 0xA0 SHL SUB DUP11 DUP2 AND DUP3 MSTORE PUSH32 0x0 DUP2 AND PUSH1 0x20 DUP4 ADD SWAP1 DUP2 MSTORE PUSH3 0xFFFFFF DUP6 DUP2 AND DUP5 DUP7 ADD SWAP1 DUP2 MSTORE PUSH1 0x3 SLOAD DUP5 AND PUSH1 0x60 DUP7 ADD SWAP1 DUP2 MSTORE PUSH1 0x80 DUP7 ADD DUP15 DUP2 MSTORE PUSH1 0x0 PUSH1 0xA0 DUP9 ADD DUP2 DUP2 MSTORE PUSH1 0xC0 DUP10 ADD SWAP2 DUP3 MSTORE SWAP9 MLOAD PUSH4 0x4E45AAF PUSH1 0xE0 SHL DUP2 MSTORE DUP9 MLOAD DUP9 AND PUSH1 0x4 DUP3 ADD MSTORE SWAP6 MLOAD DUP8 AND PUSH1 0x24 DUP8 ADD MSTORE SWAP3 MLOAD SWAP1 SWAP4 AND PUSH1 0x44 DUP6 ADD MSTORE MLOAD DUP5 AND PUSH1 0x64 DUP5 ADD MSTORE SWAP1 MLOAD PUSH1 0x84 DUP4 ADD MSTORE SWAP4 MLOAD PUSH1 0xA4 DUP3 ADD MSTORE SWAP3 MLOAD DUP2 AND PUSH1 0xC4 DUP5 ADD MSTORE SWAP1 SWAP6 POP SWAP2 SWAP3 POP PUSH32 0x0 SWAP1 SWAP2 AND SWAP1 PUSH4 0x4E45AAF SWAP1 DUP8 SWAP1 PUSH1 0xE4 ADD PUSH1 0x20 PUSH1 0x40 MLOAD DUP1 DUP4 SUB DUP2 DUP6 DUP9 GAS CALL ISZERO DUP1 ISZERO PUSH2 0x1AA7 JUMPI RETURNDATASIZE PUSH1 0x0 DUP1 RETURNDATACOPY RETURNDATASIZE PUSH1 0x0 REVERT JUMPDEST POP POP POP POP POP PUSH1 0x40 MLOAD RETURNDATASIZE PUSH1 0x1F NOT PUSH1 0x1F DUP3 ADD AND DUP3 ADD DUP1 PUSH1 0x40 MSTORE POP DUP2 ADD SWAP1 PUSH2 0x1ACC SWAP2 SWAP1 PUSH2 0x25E0 JUMP JUMPDEST SWAP8 SWAP7 POP POP POP POP POP POP POP JUMP JUMPDEST PUSH1 0xD SLOAD PUSH1 0x0 SWAP1 DUP2 MSTORE PUSH1 0xF PUSH1 0x20 MSTORE PUSH1 0x40 SWAP1 KECCAK256 PUSH1 0x4 DUP2 ADD SLOAD PUSH1 0xFF AND PUSH2 0x1B0D JUMPI PUSH1 0x40 MLOAD PUSH4 0xADFA6C7 PUSH1 0xE1 SHL DUP2 MSTORE PUSH1 0x4 ADD PUSH1 0x40 MLOAD DUP1 SWAP2 SUB SWAP1 REVERT JUMPDEST DUP1 SLOAD PUSH1 0x1 DUP3 ADD SLOAD PUSH2 0x1B1F SWAP1 DUP7 SWAP1 PUSH2 0x25F9 JUMP JUMPDEST GT ISZERO PUSH2 0x1B3E JUMPI PUSH1 0x40 MLOAD PUSH4 0x18833FA1 PUSH1 0xE0 SHL DUP2 MSTORE PUSH1 0x4 ADD PUSH1 0x40 MLOAD DUP1 SWAP2 SUB SWAP1 REVERT JUMPDEST PUSH1 0xD SLOAD PUSH1 0x0 SWAP1 DUP2 MSTORE PUSH1 0x11 PUSH1 0x20 SWAP1 DUP2 MSTORE PUSH1 0x40 DUP1 DUP4 KECCAK256 PUSH1 0x1 PUSH1 0x1 PUSH1 0xA0 SHL SUB DUP10 AND DUP5 MSTORE SWAP1 SWAP2 MSTORE DUP2 KECCAK256 SLOAD PUSH2 0x1B6F SWAP1 DUP7 SWAP1 PUSH2 0x25F9 JUMP JUMPDEST PUSH1 0x1 PUSH1 0x1 PUSH1 0xA0 SHL SUB DUP8 AND PUSH1 0x0 SWAP1 DUP2 MSTORE PUSH1 0x10 PUSH1 0x20 MSTORE PUSH1 0x40 DUP2 KECCAK256 SLOAD SWAP2 SWAP3 POP SWAP1 PUSH2 0x1B97 SWAP1 DUP8 SWAP1 PUSH2 0x25F9 JUMP JUMPDEST SWAP1 POP DUP3 PUSH1 0x2 ADD SLOAD DUP3 LT ISZERO PUSH2 0x1BBE JUMPI PUSH1 0x40 MLOAD PUSH4 0xFCD2AAEB PUSH1 0xE0 SHL DUP2 MSTORE PUSH1 0x4 ADD PUSH1 0x40 MLOAD DUP1 SWAP2 SUB SWAP1 REVERT JUMPDEST DUP3 PUSH1 0x3 ADD SLOAD DUP3 GT ISZERO PUSH2 0x1BE3 JUMPI PUSH1 0x40 MLOAD PUSH4 0xC07C075F PUSH1 0xE0 SHL DUP2 MSTORE PUSH1 0x4 ADD PUSH1 0x40 MLOAD DUP1 SWAP2 SUB SWAP1 REVERT JUMPDEST PUSH1 0x1 PUSH1 0x1 PUSH1 0xA0 SHL SUB DUP8 AND PUSH1 0x0 SWAP1 DUP2 MSTORE PUSH1 0x10 PUSH1 0x20 MSTORE PUSH1 0x40 SWAP1 KECCAK256 SLOAD ISZERO DUP1 ISZERO PUSH2 0x1C11 JUMPI POP PUSH1 0x1 PUSH1 0x1 PUSH1 0xA0 SHL SUB DUP6 AND ISZERO ISZERO JUMPDEST DUP1 ISZERO PUSH2 0x1C2F JUMPI POP DUP7 PUSH1 0x1 PUSH1 0x1 PUSH1 0xA0 SHL SUB AND DUP6 PUSH1 0x1 PUSH1 0x1 PUSH1 0xA0 SHL SUB AND EQ ISZERO JUMPDEST ISZERO PUSH2 0x1C63 JUMPI PUSH1 0x1 PUSH1 0x1 PUSH1 0xA0 SHL SUB DUP8 DUP2 AND PUSH1 0x0 SWAP1 DUP2 MSTORE PUSH1 0x8 PUSH1 0x20 MSTORE PUSH1 0x40 SWAP1 KECCAK256 DUP1 SLOAD PUSH1 0x1 PUSH1 0x1 PUSH1 0xA0 SHL SUB NOT AND SWAP2 DUP8 AND SWAP2 SWAP1 SWAP2 OR SWAP1 SSTORE JUMPDEST PUSH1 0xD SLOAD PUSH1 0x0 SWAP1 DUP2 MSTORE PUSH1 0x11 PUSH1 0x20 SWAP1 DUP2 MSTORE PUSH1 0x40 DUP1 DUP4 KECCAK256 PUSH1 0x1 PUSH1 0x1 PUSH1 0xA0 SHL SUB DUP12 AND DUP5 MSTORE DUP3 MSTORE DUP1 DUP4 KECCAK256 DUP6 SWAP1 SSTORE PUSH1 0x10 SWAP1 SWAP2 MSTORE DUP2 KECCAK256 DUP3 SWAP1 SSTORE PUSH1 0x1 DUP5 ADD DUP1 SLOAD DUP9 SWAP3 SWAP1 PUSH2 0x1CA9 SWAP1 DUP5 SWAP1 PUSH2 0x25F9 JUMP JUMPDEST SWAP3 POP POP DUP2 SWAP1 SSTORE POP DUP6 PUSH1 0x4 PUSH1 0x0 DUP3 DUP3 SLOAD PUSH2 0x1CC2 SWAP2 SWAP1 PUSH2 0x25F9 JUMP JUMPDEST SWAP1 SWAP2 SSTORE POP PUSH2 0x1CD4 SWAP1 POP DUP8 DUP8 DUP8 DUP8 PUSH2 0x1DFC JUMP JUMPDEST POP POP POP POP POP POP POP JUMP JUMPDEST PUSH1 0x0 SLOAD PUSH1 0x1 PUSH1 0x1 PUSH1 0xA0 SHL SUB AND CALLER EQ PUSH2 0x10B1 JUMPI PUSH1 0x40 MLOAD PUSH4 0x118CDAA7 PUSH1 0xE0 SHL DUP2 MSTORE CALLER PUSH1 0x4 DUP3 ADD MSTORE PUSH1 0x24 ADD PUSH2 0x17FE JUMP JUMPDEST PUSH1 0x0 DUP1 SLOAD PUSH1 0x1 PUSH1 0x1 PUSH1 0xA0 SHL SUB DUP4 DUP2 AND PUSH1 0x1 PUSH1 0x1 PUSH1 0xA0 SHL SUB NOT DUP4 AND DUP2 OR DUP5 SSTORE PUSH1 0x40 MLOAD SWAP2 SWAP1 SWAP3 AND SWAP3 DUP4 SWAP2 PUSH32 0x8BE0079C531659141344CD1FD0A4F28419497F9722A3DAAFE3B4186F6B6457E0 SWAP2 SWAP1 LOG3 POP POP JUMP JUMPDEST PUSH1 0x40 MLOAD PUSH1 0x1 PUSH1 0x1 PUSH1 0xA0 SHL SUB DUP4 DUP2 AND PUSH1 0x24 DUP4 ADD MSTORE PUSH1 0x44 DUP3 ADD DUP4 SWAP1 MSTORE PUSH2 0x1632 SWAP2 DUP6 SWAP2 DUP3 AND SWAP1 PUSH4 0xA9059CBB SWAP1 PUSH1 0x64 ADD PUSH2 0x1872 JUMP JUMPDEST PUSH1 0x0 DUP1 PUSH1 0x20 PUSH1 0x0 DUP5 MLOAD PUSH1 0x20 DUP7 ADD PUSH1 0x0 DUP9 GAS CALL DUP1 PUSH2 0x1DAE JUMPI PUSH1 0x40 MLOAD RETURNDATASIZE PUSH1 0x0 DUP3 RETURNDATACOPY RETURNDATASIZE DUP2 REVERT JUMPDEST POP POP PUSH1 0x0 MLOAD RETURNDATASIZE SWAP2 POP DUP2 ISZERO PUSH2 0x1DC6 JUMPI DUP1 PUSH1 0x1 EQ ISZERO PUSH2 0x1DD3 JUMP JUMPDEST PUSH1 0x1 PUSH1 0x1 PUSH1 0xA0 SHL SUB DUP5 AND EXTCODESIZE ISZERO JUMPDEST ISZERO PUSH2 0x18A4 JUMPI PUSH1 0x40 MLOAD PUSH4 0x5274AFE7 PUSH1 0xE0 SHL DUP2 MSTORE PUSH1 0x1 PUSH1 0x1 PUSH1 0xA0 SHL SUB DUP6 AND PUSH1 0x4 DUP3 ADD MSTORE PUSH1 0x24 ADD PUSH2 0x17FE JUMP JUMPDEST PUSH1 0x1 PUSH1 0x1 PUSH1 0xA0 SHL SUB DUP3 AND ISZERO DUP1 ISZERO SWAP1 PUSH2 0x1E26 JUMPI POP DUP4 PUSH1 0x1 PUSH1 0x1 PUSH1 0xA0 SHL SUB AND DUP3 PUSH1 0x1 PUSH1 0x1 PUSH1 0xA0 SHL SUB AND EQ ISZERO JUMPDEST ISZERO PUSH2 0x1EFB JUMPI PUSH1 0x0 PUSH2 0x2710 PUSH1 0x6 SLOAD DUP6 PUSH2 0x1E3E SWAP2 SWAP1 PUSH2 0x260C JUMP JUMPDEST PUSH2 0x1E48 SWAP2 SWAP1 PUSH2 0x2623 JUMP JUMPDEST PUSH1 0x1 PUSH1 0x1 PUSH1 0xA0 SHL SUB DUP5 AND PUSH1 0x0 SWAP1 DUP2 MSTORE PUSH1 0x9 PUSH1 0x20 MSTORE PUSH1 0x40 DUP2 KECCAK256 DUP1 SLOAD SWAP3 SWAP4 POP DUP4 SWAP3 SWAP1 SWAP2 SWAP1 PUSH2 0x1E75 SWAP1 DUP5 SWAP1 PUSH2 0x25F9 JUMP JUMPDEST SWAP1 SWAP2 SSTORE POP POP PUSH1 0x1 PUSH1 0x1 PUSH1 0xA0 SHL SUB DUP4 AND PUSH1 0x0 SWAP1 DUP2 MSTORE PUSH1 0xB PUSH1 0x20 MSTORE PUSH1 0x40 DUP2 KECCAK256 DUP1 SLOAD DUP4 SWAP3 SWAP1 PUSH2 0x1EA2 SWAP1 DUP5 SWAP1 PUSH2 0x25F9 JUMP JUMPDEST SWAP1 SWAP2 SSTORE POP POP PUSH1 0x40 DUP1 MLOAD PUSH1 0x1 DUP2 MSTORE PUSH1 0x20 DUP2 ADD DUP7 SWAP1 MSTORE SWAP1 DUP2 ADD DUP3 SWAP1 MSTORE PUSH1 0x1 PUSH1 0x1 PUSH1 0xA0 SHL SUB DUP1 DUP8 AND SWAP2 SWAP1 DUP6 AND SWAP1 PUSH32 0xD61F5CF881361D1E5C459278DCD92CF1E795F07DD5B433FA41A2E7E403D0E497 SWAP1 PUSH1 0x60 ADD PUSH1 0x40 MLOAD DUP1 SWAP2 SUB SWAP1 LOG3 POP JUMPDEST PUSH1 0x1 PUSH1 0x1 PUSH1 0xA0 SHL SUB DUP2 AND ISZERO DUP1 ISZERO SWAP1 PUSH2 0x1F25 JUMPI POP DUP4 PUSH1 0x1 PUSH1 0x1 PUSH1 0xA0 SHL SUB AND DUP2 PUSH1 0x1 PUSH1 0x1 PUSH1 0xA0 SHL SUB AND EQ ISZERO JUMPDEST DUP1 ISZERO PUSH2 0x1F43 JUMPI POP DUP2 PUSH1 0x1 PUSH1 0x1 PUSH1 0xA0 SHL SUB AND DUP2 PUSH1 0x1 PUSH1 0x1 PUSH1 0xA0 SHL SUB AND EQ ISZERO JUMPDEST ISZERO PUSH2 0x18A4 JUMPI PUSH1 0x0 PUSH2 0x2710 PUSH1 0x7 SLOAD DUP6 PUSH2 0x1F5B SWAP2 SWAP1 PUSH2 0x260C JUMP JUMPDEST PUSH2 0x1F65 SWAP2 SWAP1 PUSH2 0x2623 JUMP JUMPDEST PUSH1 0x1 PUSH1 0x1 PUSH1 0xA0 SHL SUB DUP4 AND PUSH1 0x0 SWAP1 DUP2 MSTORE PUSH1 0x9 PUSH1 0x20 MSTORE PUSH1 0x40 DUP2 KECCAK256 DUP1 SLOAD SWAP3 SWAP4 POP DUP4 SWAP3 SWAP1 SWAP2 SWAP1 PUSH2 0x1F92 SWAP1 DUP5 SWAP1 PUSH2 0x25F9 JUMP JUMPDEST SWAP1 SWAP2 SSTORE POP POP PUSH1 0x1 PUSH1 0x1 PUSH1 0xA0 SHL SUB DUP3 AND PUSH1 0x0 SWAP1 DUP2 MSTORE PUSH1 0xC PUSH1 0x20 MSTORE PUSH1 0x40 DUP2 KECCAK256 DUP1 SLOAD DUP4 SWAP3 SWAP1 PUSH2 0x1FBF SWAP1 DUP5 SWAP1 PUSH2 0x25F9 JUMP JUMPDEST SWAP1 SWAP2 SSTORE POP POP PUSH1 0x40 DUP1 MLOAD PUSH1 0x2 DUP2 MSTORE PUSH1 0x20 DUP2 ADD DUP7 SWAP1 MSTORE SWAP1 DUP2 ADD DUP3 SWAP1 MSTORE PUSH1 0x1 PUSH1 0x1 PUSH1 0xA0 SHL SUB DUP1 DUP8 AND SWAP2 SWAP1 DUP5 AND SWAP1 PUSH32 0xD61F5CF881361D1E5C459278DCD92CF1E795F07DD5B433FA41A2E7E403D0E497 SWAP1 PUSH1 0x60 ADD PUSH1 0x40 MLOAD DUP1 SWAP2 SUB SWAP1 LOG3 POP POP POP POP POP JUMP JUMPDEST PUSH1 0x40 MLOAD DUP1 PUSH1 0xA0 ADD PUSH1 0x40 MSTORE DUP1 PUSH1 0x0 DUP2 MSTORE PUSH1 0x20 ADD PUSH1 0x0 DUP2 MSTORE PUSH1 0x20 ADD PUSH1 0x0 DUP2 MSTORE PUSH1 0x20 ADD PUSH1 0x60 DUP2 MSTORE PUSH1 0x20 ADD PUSH2 0x2076 PUSH1 0x40 MLOAD DUP1 PUSH1 0xA0 ADD PUSH1 0x40 MSTORE DUP1 PUSH1 0x0 DUP2 MSTORE PUSH1 0x20 ADD PUSH1 0x0 DUP2 MSTORE PUSH1 0x20 ADD PUSH1 0x0 DUP2 MSTORE PUSH1 0x20 ADD PUSH1 0x0 DUP2 MSTORE PUSH1 0x20 ADD PUSH1 0x0 DUP2 MSTORE POP SWAP1 JUMP JUMPDEST SWAP1 MSTORE SWAP1 JUMP JUMPDEST PUSH1 0x40 MLOAD DUP1 PUSH1 0xC0 ADD PUSH1 0x40 MSTORE DUP1 PUSH1 0x0 DUP2 MSTORE PUSH1 0x20 ADD PUSH1 0x0 DUP2 MSTORE PUSH1 0x20 ADD PUSH1 0x0 DUP2 MSTORE PUSH1 0x20 ADD PUSH2 0x20D6 PUSH1 0x40 MLOAD DUP1 PUSH1 0xC0 ADD PUSH1 0x40 MSTORE DUP1 PUSH1 0x0 DUP2 MSTORE PUSH1 0x20 ADD PUSH1 0x0 DUP2 MSTORE PUSH1 0x20 ADD PUSH1 0x0 DUP2 MSTORE PUSH1 0x20 ADD PUSH1 0x0 DUP2 MSTORE PUSH1 0x20 ADD PUSH1 0x0 DUP2 MSTORE PUSH1 0x20 ADD PUSH1 0x0 ISZERO ISZERO DUP2 MSTORE POP SWAP1 JUMP JUMPDEST DUP2 MSTORE PUSH1 0x60 PUSH1 0x20 DUP3 ADD MSTORE PUSH1 0x0 PUSH1 0x40 SWAP1 SWAP2 ADD MSTORE SWAP1 JUMP JUMPDEST PUSH1 0x1 PUSH1 0x1 PUSH1 0xA0 SHL SUB DUP2 AND DUP2 EQ PUSH2 0x1810 JUMPI PUSH1 0x0 DUP1 REVERT JUMPDEST PUSH1 0x0 DUP1 PUSH1 0x0 DUP1 PUSH1 0x80 DUP6 DUP8 SUB SLT ISZERO PUSH2 0x2115 JUMPI PUSH1 0x0 DUP1 REVERT JUMPDEST DUP5 CALLDATALOAD PUSH2 0x2120 DUP2 PUSH2 0x20EA JUMP JUMPDEST SWAP4 POP PUSH1 0x20 DUP6 ADD CALLDATALOAD SWAP3 POP PUSH1 0x40 DUP6 ADD CALLDATALOAD PUSH2 0x2137 DUP2 PUSH2 0x20EA JUMP JUMPDEST SWAP2 POP PUSH1 0x60 DUP6 ADD CALLDATALOAD PUSH2 0x2147 DUP2 PUSH2 0x20EA JUMP JUMPDEST SWAP4 SWAP7 SWAP3 SWAP6 POP SWAP1 SWAP4 POP POP JUMP JUMPDEST PUSH1 0x0 PUSH1 0x20 DUP3 DUP5 SUB SLT ISZERO PUSH2 0x2164 JUMPI PUSH1 0x0 DUP1 REVERT JUMPDEST DUP2 CALLDATALOAD PUSH2 0x216F DUP2 PUSH2 0x20EA JUMP JUMPDEST SWAP4 SWAP3 POP POP POP JUMP JUMPDEST PUSH1 0x0 DUP1 PUSH1 0x40 DUP4 DUP6 SUB SLT ISZERO PUSH2 0x2189 JUMPI PUSH1 0x0 DUP1 REVERT JUMPDEST POP POP DUP1 CALLDATALOAD SWAP3 PUSH1 0x20 SWAP1 SWAP2 ADD CALLDATALOAD SWAP2 POP JUMP JUMPDEST PUSH1 0xA0 DUP2 ADD PUSH2 0xF45 DUP3 DUP5 DUP1 MLOAD DUP3 MSTORE PUSH1 0x20 DUP2 ADD MLOAD PUSH1 0x20 DUP4 ADD MSTORE PUSH1 0x40 DUP2 ADD MLOAD PUSH1 0x40 DUP4 ADD MSTORE PUSH1 0x60 DUP2 ADD MLOAD PUSH1 0x60 DUP4 ADD MSTORE PUSH1 0x80 DUP2 ADD MLOAD PUSH1 0x80 DUP4 ADD MSTORE POP POP JUMP JUMPDEST PUSH1 0x0 DUP1 PUSH1 0x40 DUP4 DUP6 SUB SLT ISZERO PUSH2 0x21E4 JUMPI PUSH1 0x0 DUP1 REVERT JUMPDEST DUP3 CALLDATALOAD SWAP2 POP PUSH1 0x20 DUP4 ADD CALLDATALOAD PUSH2 0x21F6 DUP2 PUSH2 0x20EA JUMP JUMPDEST DUP1 SWAP2 POP POP SWAP3 POP SWAP3 SWAP1 POP JUMP JUMPDEST PUSH1 0x20 DUP1 DUP3 MSTORE DUP3 MLOAD DUP3 DUP3 ADD MSTORE DUP3 DUP2 ADD MLOAD PUSH1 0x40 DUP1 DUP5 ADD SWAP2 SWAP1 SWAP2 MSTORE DUP1 DUP5 ADD MLOAD PUSH1 0x60 DUP1 DUP6 ADD SWAP2 SWAP1 SWAP2 MSTORE DUP1 DUP6 ADD MLOAD PUSH2 0x120 PUSH1 0x80 DUP7 ADD MSTORE DUP1 MLOAD PUSH2 0x140 DUP7 ADD DUP2 SWAP1 MSTORE PUSH1 0x0 SWAP5 SWAP4 SWAP2 DUP5 ADD SWAP3 DUP6 SWAP3 SWAP2 PUSH2 0x160 DUP9 ADD SWAP1 JUMPDEST DUP1 DUP6 LT ISZERO PUSH2 0x2281 JUMPI DUP6 MLOAD DUP1 MLOAD DUP4 MSTORE DUP8 DUP2 ADD MLOAD DUP9 DUP5 ADD MSTORE DUP5 ADD MLOAD ISZERO ISZERO DUP5 DUP4 ADD MSTORE SWAP5 DUP7 ADD SWAP5 PUSH1 0x1 SWAP5 SWAP1 SWAP5 ADD SWAP4 SWAP1 DUP3 ADD SWAP1 PUSH2 0x224E JUMP JUMPDEST POP PUSH1 0x80 DUP10 DUP2 ADD MLOAD DUP1 MLOAD PUSH1 0xA0 DUP12 ADD MSTORE PUSH1 0x20 DUP2 ADD MLOAD PUSH1 0xC0 DUP12 ADD MSTORE PUSH1 0x40 DUP2 ADD MLOAD PUSH1 0xE0 DUP12 ADD MSTORE PUSH1 0x60 DUP2 ADD MLOAD PUSH2 0x100 DUP12 ADD MSTORE SWAP1 DUP2 ADD MLOAD PUSH2 0x120 DUP11 ADD MSTORE SWAP6 POP SWAP9 SWAP8 POP POP POP POP POP POP POP POP JUMP JUMPDEST PUSH1 0x0 DUP1 PUSH1 0x40 DUP4 DUP6 SUB SLT ISZERO PUSH2 0x22D9 JUMPI PUSH1 0x0 DUP1 REVERT JUMPDEST DUP3 CALLDATALOAD PUSH2 0x22E4 DUP2 PUSH2 0x20EA JUMP JUMPDEST SWAP2 POP PUSH1 0x20 DUP4 ADD CALLDATALOAD PUSH2 0x21F6 DUP2 PUSH2 0x20EA JUMP JUMPDEST PUSH1 0x0 DUP1 PUSH1 0x0 DUP1 PUSH1 0x80 DUP6 DUP8 SUB SLT ISZERO PUSH2 0x230A JUMPI PUSH1 0x0 DUP1 REVERT JUMPDEST POP POP DUP3 CALLDATALOAD SWAP5 PUSH1 0x20 DUP5 ADD CALLDATALOAD SWAP5 POP PUSH1 0x40 DUP5 ADD CALLDATALOAD SWAP4 PUSH1 0x60 ADD CALLDATALOAD SWAP3 POP SWAP1 POP JUMP JUMPDEST PUSH1 0x0 PUSH1 0x20 DUP3 DUP5 SUB SLT ISZERO PUSH2 0x2338 JUMPI PUSH1 0x0 DUP1 REVERT JUMPDEST POP CALLDATALOAD SWAP2 SWAP1 POP JUMP JUMPDEST PUSH1 0x0 PUSH1 0x20 DUP3 DUP5 SUB SLT ISZERO PUSH2 0x2351 JUMPI PUSH1 0x0 DUP1 REVERT JUMPDEST DUP2 CALLDATALOAD DUP1 ISZERO ISZERO DUP2 EQ PUSH2 0x216F JUMPI PUSH1 0x0 DUP1 REVERT JUMPDEST PUSH1 0x0 PUSH1 0x20 DUP1 DUP4 MSTORE PUSH2 0x180 DUP4 ADD DUP5 MLOAD DUP3 DUP6 ADD MSTORE DUP2 DUP6 ADD MLOAD PUSH1 0x40 DUP6 ADD MSTORE PUSH1 0x40 DUP6 ADD MLOAD PUSH1 0x60 DUP6 ADD MSTORE PUSH1 0x60 DUP6 ADD MLOAD PUSH2 0x23CF PUSH1 0x80 DUP7 ADD DUP3 DUP1 MLOAD DUP3 MSTORE PUSH1 0x20 DUP2 ADD MLOAD PUSH1 0x20 DUP4 ADD MSTORE PUSH1 0x40 DUP2 ADD MLOAD PUSH1 0x40 DUP4 ADD MSTORE PUSH1 0x60 DUP2 ADD MLOAD PUSH1 0x60 DUP4 ADD MSTORE PUSH1 0x80 DUP2 ADD MLOAD PUSH1 0x80 DUP4 ADD MSTORE PUSH1 0xA0 DUP2 ADD MLOAD ISZERO ISZERO PUSH1 0xA0 DUP4 ADD MSTORE POP POP JUMP JUMPDEST POP PUSH1 0x80 DUP6 ADD MLOAD PUSH2 0x160 PUSH2 0x140 DUP7 ADD DUP2 SWAP1 MSTORE DUP2 MLOAD SWAP3 DUP4 SWAP1 MSTORE SWAP1 DUP4 ADD SWAP2 PUSH1 0x0 SWAP2 SWAP1 PUSH2 0x1A0 DUP8 ADD SWAP1 JUMPDEST DUP1 DUP5 LT ISZERO PUSH2 0x2455 JUMPI PUSH2 0x243F DUP3 DUP7 MLOAD DUP1 MLOAD DUP3 MSTORE PUSH1 0x20 DUP2 ADD MLOAD PUSH1 0x20 DUP4 ADD MSTORE PUSH1 0x40 DUP2 ADD MLOAD PUSH1 0x40 DUP4 ADD MSTORE PUSH1 0x60 DUP2 ADD MLOAD PUSH1 0x60 DUP4 ADD MSTORE PUSH1 0x80 DUP2 ADD MLOAD PUSH1 0x80 DUP4 ADD MSTORE PUSH1 0xA0 DUP2 ADD MLOAD ISZERO ISZERO PUSH1 0xA0 DUP4 ADD MSTORE POP POP JUMP JUMPDEST PUSH1 0xC0 DUP3 ADD SWAP2 POP DUP6 DUP6 ADD SWAP5 POP PUSH1 0x1 DUP5 ADD SWAP4 POP PUSH2 0x23F5 JUMP JUMPDEST POP PUSH1 0xA0 SWAP8 SWAP1 SWAP8 ADD MLOAD ISZERO ISZERO SWAP6 ADD SWAP5 SWAP1 SWAP5 MSTORE POP SWAP3 SWAP4 SWAP3 POP POP POP JUMP JUMPDEST PUSH1 0x0 DUP1 PUSH1 0x0 PUSH1 0x60 DUP5 DUP7 SUB SLT ISZERO PUSH2 0x2483 JUMPI PUSH1 0x0 DUP1 REVERT JUMPDEST DUP4 CALLDATALOAD PUSH2 0x248E DUP2 PUSH2 0x20EA JUMP JUMPDEST SWAP3 POP PUSH1 0x20 DUP5 ADD CALLDATALOAD PUSH2 0x249E DUP2 PUSH2 0x20EA JUMP JUMPDEST SWAP3 SWAP6 SWAP3 SWAP5 POP POP POP PUSH1 0x40 SWAP2 SWAP1 SWAP2 ADD CALLDATALOAD SWAP1 JUMP JUMPDEST PUSH1 0x0 DUP1 PUSH1 0x0 PUSH1 0x60 DUP5 DUP7 SUB SLT ISZERO PUSH2 0x24C4 JUMPI PUSH1 0x0 DUP1 REVERT JUMPDEST POP POP DUP2 CALLDATALOAD SWAP4 PUSH1 0x20 DUP4 ADD CALLDATALOAD SWAP4 POP PUSH1 0x40 SWAP1 SWAP3 ADD CALLDATALOAD SWAP2 SWAP1 POP JUMP JUMPDEST PUSH1 0x0 DUP1 PUSH1 0x40 DUP4 DUP6 SUB SLT ISZERO PUSH2 0x24EE JUMPI PUSH1 0x0 DUP1 REVERT JUMPDEST DUP3 CALLDATALOAD PUSH2 0x24F9 DUP2 PUSH2 0x20EA JUMP JUMPDEST SWAP5 PUSH1 0x20 SWAP4 SWAP1 SWAP4 ADD CALLDATALOAD SWAP4 POP POP POP JUMP JUMPDEST PUSH4 0x4E487B71 PUSH1 0xE0 SHL PUSH1 0x0 MSTORE PUSH1 0x11 PUSH1 0x4 MSTORE PUSH1 0x24 PUSH1 0x0 REVERT JUMPDEST DUP2 DUP2 SUB DUP2 DUP2 GT ISZERO PUSH2 0xF45 JUMPI PUSH2 0xF45 PUSH2 0x2507 JUMP JUMPDEST PUSH4 0x4E487B71 PUSH1 0xE0 SHL PUSH1 0x0 MSTORE PUSH1 0x41 PUSH1 0x4 MSTORE PUSH1 0x24 PUSH1 0x0 REVERT JUMPDEST PUSH4 0x4E487B71 PUSH1 0xE0 SHL PUSH1 0x0 MSTORE PUSH1 0x32 PUSH1 0x4 MSTORE PUSH1 0x24 PUSH1 0x0 REVERT JUMPDEST PUSH1 0x0 PUSH1 0x1 DUP3 ADD PUSH2 0x256E JUMPI PUSH2 0x256E PUSH2 0x2507 JUMP JUMPDEST POP PUSH1 0x1 ADD SWAP1 JUMP JUMPDEST PUSH1 0x0 PUSH1 0x20 DUP3 DUP5 SUB SLT ISZERO PUSH2 0x2587 JUMPI PUSH1 0x0 DUP1 REVERT JUMPDEST DUP2 MLOAD PUSH2 0x216F DUP2 PUSH2 0x20EA JUMP JUMPDEST PUSH1 0x0 PUSH1 0x20 DUP3 DUP5 SUB SLT ISZERO PUSH2 0x25A4 JUMPI PUSH1 0x0 DUP1 REVERT JUMPDEST DUP2 MLOAD PUSH1 0x1 PUSH1 0x1 PUSH1 0x80 SHL SUB DUP2 AND DUP2 EQ PUSH2 0x216F JUMPI PUSH1 0x0 DUP1 REVERT JUMPDEST PUSH1 0x0 PUSH1 0x20 DUP3 DUP5 SUB SLT ISZERO PUSH2 0x25CD JUMPI PUSH1 0x0 DUP1 REVERT JUMPDEST DUP2 MLOAD PUSH3 0xFFFFFF DUP2 AND DUP2 EQ PUSH2 0x216F JUMPI PUSH1 0x0 DUP1 REVERT JUMPDEST PUSH1 0x0 PUSH1 0x20 DUP3 DUP5 SUB SLT ISZERO PUSH2 0x25F2 JUMPI PUSH1 0x0 DUP1 REVERT JUMPDEST POP MLOAD SWAP2 SWAP1 POP JUMP JUMPDEST DUP1 DUP3 ADD DUP1 DUP3 GT ISZERO PUSH2 0xF45 JUMPI PUSH2 0xF45 PUSH2 0x2507 JUMP JUMPDEST DUP1 DUP3 MUL DUP2 ISZERO DUP3 DUP3 DIV DUP5 EQ OR PUSH2 0xF45 JUMPI PUSH2 0xF45 PUSH2 0x2507 JUMP JUMPDEST PUSH1 0x0 DUP3 PUSH2 0x2640 JUMPI PUSH4 0x4E487B71 PUSH1 0xE0 SHL PUSH1 0x0 MSTORE PUSH1 0x12 PUSH1 0x4 MSTORE PUSH1 0x24 PUSH1 0x0 REVERT JUMPDEST POP DIV SWAP1 JUMP INVALID LOG2 PUSH5 0x6970667358 0x22 SLT KECCAK256 DUP2 0xE1 0xED GASPRICE 0xB6 GASPRICE 0x1F 0xD2 PUSH18 0x5F071C52CDAB3C83FF61D6B19B8D45B1C6C7 0xB9 0xD6 INVALID 0xD5 0xE9 PUSH5 0x736F6C6343 STOP ADDMOD EQ STOP CALLER "
        },
        "methodIdentifiers": {
          "MAX_REFERRAL_PERCENTAGE()": "796b1553",
          "USDT()": "c54e44eb",
          "activateStage(uint256)": "7bc1f8f5",
          "addStage(uint256,uint256,uint256)": "d13782a7",
          "claimReferralEarnings()": "84ae48b5",
          "claimedEarnings(address)": "678445ee",
          "currentStageId()": "ec45127a",
          "deactivateCurrentStage()": "6e1995cb",
          "getBestPool(address,address)": "63b78f6d",
          "getPendingReferralEarnings(address)": "70d1e40b",
          "getPublicSaleInfo()": "94b2d55b",
          "getReferralInfo(address)": "21874ae2",
          "getReferralPercentages()": "6c5ff4ae",
          "getStageInfo(uint256)": "a3759f60",
          "getUserInfo(address)": "6386c1c7",
          "getUserReferrer(address)": "36144c9a",
          "getUserStageContribution(uint256,address)": "860fb05a",
          "level1Earnings(address)": "74780939",
          "level1ReferralPercentage()": "8d717938",
          "level2Earnings(address)": "2be058f3",
          "level2ReferralPercentage()": "eb9747fc",
          "owner()": "8da5cb5b",
          "purchase(address,uint256,address,address)": "06b6367e",
          "referralClaimsEnabled()": "a2e6e2c0",
          "referralEarnings(address)": "c07b528a",
          "referredBy(address)": "a90f8e9a",
          "renounceOwnership()": "715018a6",
          "rescueEth(address,uint256)": "d7cc3d35",
          "rescueTokens(address,address,uint256)": "cea9d26f",
          "saleActive()": "68428a1b",
          "setReferralClaimsEnabled(bool)": "8c8011e7",
          "setReferralPercentages(uint256,uint256)": "16c856fc",
          "setSaleStatus(bool)": "d897833e",
          "stageCount()": "f33261ac",
          "stages(uint256)": "845ddcb2",
          "swapRouter()": "c31c9c07",
          "totalContributions()": "37c08923",
          "transferOwnership(address)": "f2fde38b",
          "treasuryAddress()": "c5f956af",
          "uniswapFactory()": "8bdb2afa",
          "updateStage(uint256,uint256,uint256,uint256)": "6c7835f2",
          "updateTreasury(address)": "7f51bb1f",
          "userContributions(address)": "0f6ca1a8",
          "userStageContributions(uint256,address)": "2ae46c3f"
        }
      }
    }
  }
}