{
  "_format": "hh-sol-artifact-1",
  "contractName": "TokenSaleSkale",
  "sourceName": "contracts/TokenSaleSkale.sol",
  "abi": [
    {
      "inputs": [
        {
          "internalType": "address",
          "name": "_swapRouter",
          "type": "address"
        },
        {
          "internalType": "address",
          "name": "_factory",
          "type": "address"
        },
        {
          "internalType": "address",
          "name": "_usdt",
          "type": "address"
        },
        {
          "internalType": "address",
          "name": "_treasury",
          "type": "address"
        },
        {
          "internalType": "uint256",
          "name": "_usdtCap",
          "type": "uint256"
        }
      ],
      "stateMutability": "nonpayable",
      "type": "constructor"
    },
    {
      "inputs": [],
      "name": "BelowMinimumPurchase",
      "type": "error"
    },
    {
      "inputs": [],
      "name": "ExceedsMaximumPurchase",
      "type": "error"
    },
    {
      "inputs": [],
      "name": "InvalidAddress",
      "type": "error"
    },
    {
      "inputs": [],
      "name": "InvalidAmount",
      "type": "error"
    },
    {
      "inputs": [],
      "name": "InvalidLimits",
      "type": "error"
    },
    {
      "inputs": [],
      "name": "InvalidPaymentToken",
      "type": "error"
    },
    {
      "inputs": [],
      "name": "InvalidReferralPercentage",
      "type": "error"
    },
    {
      "inputs": [],
      "name": "InvalidReferrer",
      "type": "error"
    },
    {
      "inputs": [],
      "name": "InvalidStageId",
      "type": "error"
    },
    {
      "inputs": [],
      "name": "NoEarningsToClaim",
      "type": "error"
    },
    {
      "inputs": [],
      "name": "NoLiquidityPool",
      "type": "error"
    },
    {
      "inputs": [
        {
          "internalType": "address",
          "name": "owner",
          "type": "address"
        }
      ],
      "name": "OwnableInvalidOwner",
      "type": "error"
    },
    {
      "inputs": [
        {
          "internalType": "address",
          "name": "account",
          "type": "address"
        }
      ],
      "name": "OwnableUnauthorizedAccount",
      "type": "error"
    },
    {
      "inputs": [],
      "name": "ReentrancyGuardReentrantCall",
      "type": "error"
    },
    {
      "inputs": [],
      "name": "ReferralClaimsDisabled",
      "type": "error"
    },
    {
      "inputs": [
        {
          "internalType": "address",
          "name": "token",
          "type": "address"
        }
      ],
      "name": "SafeERC20FailedOperation",
      "type": "error"
    },
    {
      "inputs": [],
      "name": "SaleNotActive",
      "type": "error"
    },
    {
      "inputs": [],
      "name": "StageLimitExceeded",
      "type": "error"
    },
    {
      "inputs": [],
      "name": "StageNotActive",
      "type": "error"
    },
    {
      "inputs": [],
      "name": "TransferFailed",
      "type": "error"
    },
    {
      "anonymous": false,
      "inputs": [
        {
          "indexed": true,
          "internalType": "address",
          "name": "previousOwner",
          "type": "address"
        },
        {
          "indexed": true,
          "internalType": "address",
          "name": "newOwner",
          "type": "address"
        }
      ],
      "name": "OwnershipTransferred",
      "type": "event"
    },
    {
      "anonymous": false,
      "inputs": [
        {
          "indexed": true,
          "internalType": "address",
          "name": "user",
          "type": "address"
        },
        {
          "indexed": true,
          "internalType": "address",
          "name": "paymentToken",
          "type": "address"
        },
        {
          "indexed": false,
          "internalType": "uint256",
          "name": "paymentAmount",
          "type": "uint256"
        },
        {
          "indexed": false,
          "internalType": "uint256",
          "name": "usdtAmount",
          "type": "uint256"
        },
        {
          "indexed": true,
          "internalType": "uint256",
          "name": "stageId",
          "type": "uint256"
        }
      ],
      "name": "Purchase",
      "type": "event"
    },
    {
      "anonymous": false,
      "inputs": [
        {
          "indexed": false,
          "internalType": "uint256",
          "name": "newMin",
          "type": "uint256"
        },
        {
          "indexed": false,
          "internalType": "uint256",
          "name": "newMax",
          "type": "uint256"
        }
      ],
      "name": "PurchaseLimitsUpdated",
      "type": "event"
    },
    {
      "anonymous": false,
      "inputs": [
        {
          "indexed": true,
          "internalType": "address",
          "name": "referrer",
          "type": "address"
        },
        {
          "indexed": false,
          "internalType": "uint256",
          "name": "amount",
          "type": "uint256"
        }
      ],
      "name": "ReferralClaimed",
      "type": "event"
    },
    {
      "anonymous": false,
      "inputs": [
        {
          "indexed": false,
          "internalType": "bool",
          "name": "enabled",
          "type": "bool"
        }
      ],
      "name": "ReferralClaimsStatusChanged",
      "type": "event"
    },
    {
      "anonymous": false,
      "inputs": [
        {
          "indexed": true,
          "internalType": "address",
          "name": "referrer",
          "type": "address"
        },
        {
          "indexed": true,
          "internalType": "address",
          "name": "referred",
          "type": "address"
        },
        {
          "indexed": false,
          "internalType": "uint256",
          "name": "level",
          "type": "uint256"
        },
        {
          "indexed": false,
          "internalType": "uint256",
          "name": "usdtAmount",
          "type": "uint256"
        },
        {
          "indexed": false,
          "internalType": "uint256",
          "name": "earnedAmount",
          "type": "uint256"
        }
      ],
      "name": "ReferralEarning",
      "type": "event"
    },
    {
      "anonymous": false,
      "inputs": [
        {
          "indexed": false,
          "internalType": "uint256",
          "name": "level1Percentage",
          "type": "uint256"
        },
        {
          "indexed": false,
          "internalType": "uint256",
          "name": "level2Percentage",
          "type": "uint256"
        }
      ],
      "name": "ReferralPercentagesUpdated",
      "type": "event"
    },
    {
      "anonymous": false,
      "inputs": [
        {
          "indexed": false,
          "internalType": "bool",
          "name": "active",
          "type": "bool"
        }
      ],
      "name": "SaleStatusChanged",
      "type": "event"
    },
    {
      "anonymous": false,
      "inputs": [
        {
          "indexed": true,
          "internalType": "uint256",
          "name": "stageId",
          "type": "uint256"
        }
      ],
      "name": "StageActivated",
      "type": "event"
    },
    {
      "anonymous": false,
      "inputs": [
        {
          "indexed": true,
          "internalType": "uint256",
          "name": "stageId",
          "type": "uint256"
        },
        {
          "indexed": false,
          "internalType": "uint256",
          "name": "usdtCap",
          "type": "uint256"
        },
        {
          "indexed": false,
          "internalType": "uint256",
          "name": "minPurchase",
          "type": "uint256"
        },
        {
          "indexed": false,
          "internalType": "uint256",
          "name": "maxPurchase",
          "type": "uint256"
        }
      ],
      "name": "StageAdded",
      "type": "event"
    },
    {
      "anonymous": false,
      "inputs": [
        {
          "indexed": true,
          "internalType": "uint256",
          "name": "stageId",
          "type": "uint256"
        }
      ],
      "name": "StageDeactivated",
      "type": "event"
    },
    {
      "anonymous": false,
      "inputs": [
        {
          "indexed": true,
          "internalType": "uint256",
          "name": "stageId",
          "type": "uint256"
        },
        {
          "indexed": false,
          "internalType": "uint256",
          "name": "usdtCap",
          "type": "uint256"
        },
        {
          "indexed": false,
          "internalType": "uint256",
          "name": "minPurchase",
          "type": "uint256"
        },
        {
          "indexed": false,
          "internalType": "uint256",
          "name": "maxPurchase",
          "type": "uint256"
        }
      ],
      "name": "StageUpdated",
      "type": "event"
    },
    {
      "anonymous": false,
      "inputs": [
        {
          "indexed": false,
          "internalType": "address",
          "name": "newTreasury",
          "type": "address"
        }
      ],
      "name": "TreasuryUpdated",
      "type": "event"
    },
    {
      "inputs": [],
      "name": "MAX_REFERRAL_PERCENTAGE",
      "outputs": [
        {
          "internalType": "uint256",
          "name": "",
          "type": "uint256"
        }
      ],
      "stateMutability": "view",
      "type": "function"
    },
    {
      "inputs": [],
      "name": "USDT",
      "outputs": [
        {
          "internalType": "contract IERC20",
          "name": "",
          "type": "address"
        }
      ],
      "stateMutability": "view",
      "type": "function"
    },
    {
      "inputs": [
        {
          "internalType": "uint256",
          "name": "_stageId",
          "type": "uint256"
        }
      ],
      "name": "activateStage",
      "outputs": [],
      "stateMutability": "nonpayable",
      "type": "function"
    },
    {
      "inputs": [
        {
          "internalType": "uint256",
          "name": "_usdtCap",
          "type": "uint256"
        },
        {
          "internalType": "uint256",
          "name": "_minPurchase",
          "type": "uint256"
        },
        {
          "internalType": "uint256",
          "name": "_maxPurchase",
          "type": "uint256"
        }
      ],
      "name": "addStage",
      "outputs": [
        {
          "internalType": "uint256",
          "name": "",
          "type": "uint256"
        }
      ],
      "stateMutability": "nonpayable",
      "type": "function"
    },
    {
      "inputs": [],
      "name": "claimReferralEarnings",
      "outputs": [],
      "stateMutability": "nonpayable",
      "type": "function"
    },
    {
      "inputs": [
        {
          "internalType": "address",
          "name": "",
          "type": "address"
        }
      ],
      "name": "claimedEarnings",
      "outputs": [
        {
          "internalType": "uint256",
          "name": "",
          "type": "uint256"
        }
      ],
      "stateMutability": "view",
      "type": "function"
    },
    {
      "inputs": [],
      "name": "currentStageId",
      "outputs": [
        {
          "internalType": "uint256",
          "name": "",
          "type": "uint256"
        }
      ],
      "stateMutability": "view",
      "type": "function"
    },
    {
      "inputs": [],
      "name": "deactivateCurrentStage",
      "outputs": [],
      "stateMutability": "nonpayable",
      "type": "function"
    },
    {
      "inputs": [
        {
          "internalType": "address",
          "name": "tokenIn",
          "type": "address"
        },
        {
          "internalType": "address",
          "name": "tokenOut",
          "type": "address"
        }
      ],
      "name": "getBestPool",
      "outputs": [
        {
          "internalType": "address",
          "name": "",
          "type": "address"
        }
      ],
      "stateMutability": "view",
      "type": "function"
    },
    {
      "inputs": [
        {
          "internalType": "address",
          "name": "_user",
          "type": "address"
        }
      ],
      "name": "getPendingReferralEarnings",
      "outputs": [
        {
          "internalType": "uint256",
          "name": "",
          "type": "uint256"
        }
      ],
      "stateMutability": "view",
      "type": "function"
    },
    {
      "inputs": [],
      "name": "getPublicSaleInfo",
      "outputs": [
        {
          "components": [
            {
              "internalType": "uint256",
              "name": "totalStages",
              "type": "uint256"
            },
            {
              "internalType": "uint256",
              "name": "activeStageId",
              "type": "uint256"
            },
            {
              "internalType": "uint256",
              "name": "globalTotalContributions",
              "type": "uint256"
            },
            {
              "components": [
                {
                  "internalType": "uint256",
                  "name": "stageId",
                  "type": "uint256"
                },
                {
                  "internalType": "uint256",
                  "name": "usdtCap",
                  "type": "uint256"
                },
                {
                  "internalType": "uint256",
                  "name": "totalRaised",
                  "type": "uint256"
                },
                {
                  "internalType": "uint256",
                  "name": "minimumPurchase",
                  "type": "uint256"
                },
                {
                  "internalType": "uint256",
                  "name": "maximumPurchase",
                  "type": "uint256"
                },
                {
                  "internalType": "bool",
                  "name": "active",
                  "type": "bool"
                }
              ],
              "internalType": "struct TokenSaleSkale.StageInfo",
              "name": "currentStage",
              "type": "tuple"
            },
            {
              "components": [
                {
                  "internalType": "uint256",
                  "name": "stageId",
                  "type": "uint256"
                },
                {
                  "internalType": "uint256",
                  "name": "usdtCap",
                  "type": "uint256"
                },
                {
                  "internalType": "uint256",
                  "name": "totalRaised",
                  "type": "uint256"
                },
                {
                  "internalType": "uint256",
                  "name": "minimumPurchase",
                  "type": "uint256"
                },
                {
                  "internalType": "uint256",
                  "name": "maximumPurchase",
                  "type": "uint256"
                },
                {
                  "internalType": "bool",
                  "name": "active",
                  "type": "bool"
                }
              ],
              "internalType": "struct TokenSaleSkale.StageInfo[]",
              "name": "allStages",
              "type": "tuple[]"
            },
            {
              "internalType": "bool",
              "name": "saleActive",
              "type": "bool"
            }
          ],
          "internalType": "struct TokenSaleSkale.PublicSaleInfo",
          "name": "info",
          "type": "tuple"
        }
      ],
      "stateMutability": "view",
      "type": "function"
    },
    {
      "inputs": [
        {
          "internalType": "address",
          "name": "_user",
          "type": "address"
        }
      ],
      "name": "getReferralInfo",
      "outputs": [
        {
          "components": [
            {
              "internalType": "uint256",
              "name": "totalEarned",
              "type": "uint256"
            },
            {
              "internalType": "uint256",
              "name": "claimedAmount",
              "type": "uint256"
            },
            {
              "internalType": "uint256",
              "name": "pendingAmount",
              "type": "uint256"
            },
            {
              "internalType": "uint256",
              "name": "level1Earnings",
              "type": "uint256"
            },
            {
              "internalType": "uint256",
              "name": "level2Earnings",
              "type": "uint256"
            }
          ],
          "internalType": "struct TokenSaleSkale.ReferralInfo",
          "name": "info",
          "type": "tuple"
        }
      ],
      "stateMutability": "view",
      "type": "function"
    },
    {
      "inputs": [],
      "name": "getReferralPercentages",
      "outputs": [
        {
          "internalType": "uint256",
          "name": "level1",
          "type": "uint256"
        },
        {
          "internalType": "uint256",
          "name": "level2",
          "type": "uint256"
        }
      ],
      "stateMutability": "view",
      "type": "function"
    },
    {
      "inputs": [
        {
          "internalType": "uint256",
          "name": "_stageId",
          "type": "uint256"
        }
      ],
      "name": "getStageInfo",
      "outputs": [
        {
          "internalType": "uint256",
          "name": "usdtCap",
          "type": "uint256"
        },
        {
          "internalType": "uint256",
          "name": "totalRaised",
          "type": "uint256"
        },
        {
          "internalType": "uint256",
          "name": "stageMinimumPurchase",
          "type": "uint256"
        },
        {
          "internalType": "uint256",
          "name": "stageMaximumPurchase",
          "type": "uint256"
        },
        {
          "internalType": "bool",
          "name": "active",
          "type": "bool"
        }
      ],
      "stateMutability": "view",
      "type": "function"
    },
    {
      "inputs": [
        {
          "internalType": "address",
          "name": "_user",
          "type": "address"
        }
      ],
      "name": "getUserInfo",
      "outputs": [
        {
          "components": [
            {
              "internalType": "uint256",
              "name": "totalContributions",
              "type": "uint256"
            },
            {
              "internalType": "uint256",
              "name": "numberOfStagesParticipated",
              "type": "uint256"
            },
            {
              "internalType": "uint256",
              "name": "currentStageContribution",
              "type": "uint256"
            },
            {
              "components": [
                {
                  "internalType": "uint256",
                  "name": "stageId",
                  "type": "uint256"
                },
                {
                  "internalType": "uint256",
                  "name": "contribution",
                  "type": "uint256"
                },
                {
                  "internalType": "bool",
                  "name": "participated",
                  "type": "bool"
                }
              ],
              "internalType": "struct TokenSaleSkale.UserStageData[]",
              "name": "stageData",
              "type": "tuple[]"
            },
            {
              "components": [
                {
                  "internalType": "uint256",
                  "name": "totalEarned",
                  "type": "uint256"
                },
                {
                  "internalType": "uint256",
                  "name": "claimedAmount",
                  "type": "uint256"
                },
                {
                  "internalType": "uint256",
                  "name": "pendingAmount",
                  "type": "uint256"
                },
                {
                  "internalType": "uint256",
                  "name": "level1Earnings",
                  "type": "uint256"
                },
                {
                  "internalType": "uint256",
                  "name": "level2Earnings",
                  "type": "uint256"
                }
              ],
              "internalType": "struct TokenSaleSkale.ReferralInfo",
              "name": "referralEarnings",
              "type": "tuple"
            }
          ],
          "internalType": "struct TokenSaleSkale.UserInfo",
          "name": "info",
          "type": "tuple"
        }
      ],
      "stateMutability": "view",
      "type": "function"
    },
    {
      "inputs": [
        {
          "internalType": "address",
          "name": "_user",
          "type": "address"
        }
      ],
      "name": "getUserReferrer",
      "outputs": [
        {
          "internalType": "address",
          "name": "",
          "type": "address"
        }
      ],
      "stateMutability": "view",
      "type": "function"
    },
    {
      "inputs": [
        {
          "internalType": "uint256",
          "name": "_stageId",
          "type": "uint256"
        },
        {
          "internalType": "address",
          "name": "_user",
          "type": "address"
        }
      ],
      "name": "getUserStageContribution",
      "outputs": [
        {
          "internalType": "uint256",
          "name": "",
          "type": "uint256"
        }
      ],
      "stateMutability": "view",
      "type": "function"
    },
    {
      "inputs": [
        {
          "internalType": "address",
          "name": "",
          "type": "address"
        }
      ],
      "name": "level1Earnings",
      "outputs": [
        {
          "internalType": "uint256",
          "name": "",
          "type": "uint256"
        }
      ],
      "stateMutability": "view",
      "type": "function"
    },
    {
      "inputs": [],
      "name": "level1ReferralPercentage",
      "outputs": [
        {
          "internalType": "uint256",
          "name": "",
          "type": "uint256"
        }
      ],
      "stateMutability": "view",
      "type": "function"
    },
    {
      "inputs": [
        {
          "internalType": "address",
          "name": "",
          "type": "address"
        }
      ],
      "name": "level2Earnings",
      "outputs": [
        {
          "internalType": "uint256",
          "name": "",
          "type": "uint256"
        }
      ],
      "stateMutability": "view",
      "type": "function"
    },
    {
      "inputs": [],
      "name": "level2ReferralPercentage",
      "outputs": [
        {
          "internalType": "uint256",
          "name": "",
          "type": "uint256"
        }
      ],
      "stateMutability": "view",
      "type": "function"
    },
    {
      "inputs": [],
      "name": "owner",
      "outputs": [
        {
          "internalType": "address",
          "name": "",
          "type": "address"
        }
      ],
      "stateMutability": "view",
      "type": "function"
    },
    {
      "inputs": [
        {
          "internalType": "address",
          "name": "token",
          "type": "address"
        },
        {
          "internalType": "uint256",
          "name": "amount",
          "type": "uint256"
        },
        {
          "internalType": "address",
          "name": "level1Referrer",
          "type": "address"
        },
        {
          "internalType": "address",
          "name": "level2Referrer",
          "type": "address"
        }
      ],
      "name": "purchase",
      "outputs": [
        {
          "internalType": "uint256",
          "name": "usdtAmount",
          "type": "uint256"
        }
      ],
      "stateMutability": "payable",
      "type": "function"
    },
    {
      "inputs": [],
      "name": "referralClaimsEnabled",
      "outputs": [
        {
          "internalType": "bool",
          "name": "",
          "type": "bool"
        }
      ],
      "stateMutability": "view",
      "type": "function"
    },
    {
      "inputs": [
        {
          "internalType": "address",
          "name": "",
          "type": "address"
        }
      ],
      "name": "referralEarnings",
      "outputs": [
        {
          "internalType": "uint256",
          "name": "",
          "type": "uint256"
        }
      ],
      "stateMutability": "view",
      "type": "function"
    },
    {
      "inputs": [
        {
          "internalType": "address",
          "name": "",
          "type": "address"
        }
      ],
      "name": "referredBy",
      "outputs": [
        {
          "internalType": "address",
          "name": "",
          "type": "address"
        }
      ],
      "stateMutability": "view",
      "type": "function"
    },
    {
      "inputs": [],
      "name": "renounceOwnership",
      "outputs": [],
      "stateMutability": "nonpayable",
      "type": "function"
    },
    {
      "inputs": [
        {
          "internalType": "address payable",
          "name": "recipient",
          "type": "address"
        },
        {
          "internalType": "uint256",
          "name": "amount",
          "type": "uint256"
        }
      ],
      "name": "rescueEth",
      "outputs": [],
      "stateMutability": "nonpayable",
      "type": "function"
    },
    {
      "inputs": [
        {
          "internalType": "contract IERC20",
          "name": "token",
          "type": "address"
        },
        {
          "internalType": "address",
          "name": "recipient",
          "type": "address"
        },
        {
          "internalType": "uint256",
          "name": "amount",
          "type": "uint256"
        }
      ],
      "name": "rescueTokens",
      "outputs": [],
      "stateMutability": "nonpayable",
      "type": "function"
    },
    {
      "inputs": [],
      "name": "saleActive",
      "outputs": [
        {
          "internalType": "bool",
          "name": "",
          "type": "bool"
        }
      ],
      "stateMutability": "view",
      "type": "function"
    },
    {
      "inputs": [
        {
          "internalType": "bool",
          "name": "_enabled",
          "type": "bool"
        }
      ],
      "name": "setReferralClaimsEnabled",
      "outputs": [],
      "stateMutability": "nonpayable",
      "type": "function"
    },
    {
      "inputs": [
        {
          "internalType": "uint256",
          "name": "_level1Percentage",
          "type": "uint256"
        },
        {
          "internalType": "uint256",
          "name": "_level2Percentage",
          "type": "uint256"
        }
      ],
      "name": "setReferralPercentages",
      "outputs": [],
      "stateMutability": "nonpayable",
      "type": "function"
    },
    {
      "inputs": [
        {
          "internalType": "bool",
          "name": "_active",
          "type": "bool"
        }
      ],
      "name": "setSaleStatus",
      "outputs": [],
      "stateMutability": "nonpayable",
      "type": "function"
    },
    {
      "inputs": [],
      "name": "stageCount",
      "outputs": [
        {
          "internalType": "uint256",
          "name": "",
          "type": "uint256"
        }
      ],
      "stateMutability": "view",
      "type": "function"
    },
    {
      "inputs": [
        {
          "internalType": "uint256",
          "name": "",
          "type": "uint256"
        }
      ],
      "name": "stages",
      "outputs": [
        {
          "internalType": "uint256",
          "name": "usdtCap",
          "type": "uint256"
        },
        {
          "internalType": "uint256",
          "name": "totalRaised",
          "type": "uint256"
        },
        {
          "internalType": "uint256",
          "name": "minimumPurchase",
          "type": "uint256"
        },
        {
          "internalType": "uint256",
          "name": "maximumPurchase",
          "type": "uint256"
        },
        {
          "internalType": "bool",
          "name": "active",
          "type": "bool"
        }
      ],
      "stateMutability": "view",
      "type": "function"
    },
    {
      "inputs": [],
      "name": "swapRouter",
      "outputs": [
        {
          "internalType": "contract ISwapRouter",
          "name": "",
          "type": "address"
        }
      ],
      "stateMutability": "view",
      "type": "function"
    },
    {
      "inputs": [],
      "name": "totalContributions",
      "outputs": [
        {
          "internalType": "uint256",
          "name": "",
          "type": "uint256"
        }
      ],
      "stateMutability": "view",
      "type": "function"
    },
    {
      "inputs": [
        {
          "internalType": "address",
          "name": "newOwner",
          "type": "address"
        }
      ],
      "name": "transferOwnership",
      "outputs": [],
      "stateMutability": "nonpayable",
      "type": "function"
    },
    {
      "inputs": [],
      "name": "treasuryAddress",
      "outputs": [
        {
          "internalType": "address",
          "name": "",
          "type": "address"
        }
      ],
      "stateMutability": "view",
      "type": "function"
    },
    {
      "inputs": [],
      "name": "uniswapFactory",
      "outputs": [
        {
          "internalType": "contract IUniswapV3Factory",
          "name": "",
          "type": "address"
        }
      ],
      "stateMutability": "view",
      "type": "function"
    },
    {
      "inputs": [
        {
          "internalType": "uint256",
          "name": "_stageId",
          "type": "uint256"
        },
        {
          "internalType": "uint256",
          "name": "_usdtCap",
          "type": "uint256"
        },
        {
          "internalType": "uint256",
          "name": "_minPurchase",
          "type": "uint256"
        },
        {
          "internalType": "uint256",
          "name": "_maxPurchase",
          "type": "uint256"
        }
      ],
      "name": "updateStage",
      "outputs": [],
      "stateMutability": "nonpayable",
      "type": "function"
    },
    {
      "inputs": [
        {
          "internalType": "address",
          "name": "_treasury",
          "type": "address"
        }
      ],
      "name": "updateTreasury",
      "outputs": [],
      "stateMutability": "nonpayable",
      "type": "function"
    },
    {
      "inputs": [
        {
          "internalType": "address",
          "name": "",
          "type": "address"
        }
      ],
      "name": "userContributions",
      "outputs": [
        {
          "internalType": "uint256",
          "name": "",
          "type": "uint256"
        }
      ],
      "stateMutability": "view",
      "type": "function"
    },
    {
      "inputs": [
        {
          "internalType": "uint256",
          "name": "",
          "type": "uint256"
        },
        {
          "internalType": "address",
          "name": "",
          "type": "address"
        }
      ],
      "name": "userStageContributions",
      "outputs": [
        {
          "internalType": "uint256",
          "name": "",
          "type": "uint256"
        }
      ],
      "stateMutability": "view",
      "type": "function"
    }
  ],
  "bytecode": "0x60c06040526005805461ffff191660011790556103e860065561012c6007553480156200002b57600080fd5b50604051620029ea380380620029ea8339810160408190526200004e9162000290565b8333806200007657604051631e4fbdf760e01b81526000600482015260240160405180910390fd5b620000818162000223565b5060018055600280546001600160a01b0319166001600160a01b039283161790558516620000c25760405163e6c4247b60e01b815260040160405180910390fd5b6001600160a01b038316620000ea5760405163e6c4247b60e01b815260040160405180910390fd5b6001600160a01b038216620001125760405163e6c4247b60e01b815260040160405180910390fd5b6001600160a01b03858116608090815284821660a0908152600380546001600160a01b0319169386169390931783556005805460ff199081166001908117909255600e80546040805195860181528886526000602080880182815288840183815260001960608b019081529a8a01848152868552600f9093529383209851895551968801969096559051600287015595519685019690965591516004909301805490911692151592909217909155805491620001ce83620002f7565b9091555050604080518381526000602082015260001981830152905182917fcc2c7ecadea784eb7f00da16e96860d108ef24d3b6a56a376211537bf2a85572919081900360600190a25050505050506200031f565b600080546001600160a01b038381166001600160a01b0319831681178455604051919092169283917f8be0079c531659141344cd1fd0a4f28419497f9722a3daafe3b4186f6b6457e09190a35050565b80516001600160a01b03811681146200028b57600080fd5b919050565b600080600080600060a08688031215620002a957600080fd5b620002b48662000273565b9450620002c46020870162000273565b9350620002d46040870162000273565b9250620002e46060870162000273565b9150608086015190509295509295909350565b6000600182016200031857634e487b7160e01b600052601160045260246000fd5b5060010190565b60805160a05161267b6200036f600039600081816107bd01528181610937015281816109a0015281816112ea015281816118ea01526119b40152600081816107890152611a5b015261267b6000f3fe6080604052600436106102675760003560e01c806384ae48b511610144578063c31c9c07116100b6578063d7cc3d351161007a578063d7cc3d351461083f578063d897833e1461085f578063eb9747fc1461087f578063ec45127a14610895578063f2fde38b146108ab578063f33261ac146108cb57600080fd5b8063c31c9c0714610777578063c54e44eb146107ab578063c5f956af146107df578063cea9d26f146107ff578063d13782a71461081f57600080fd5b80638da5cb5b116101085780638da5cb5b1461069557806394b2d55b146106b3578063a2e6e2c0146106d5578063a3759f60146106f4578063a90f8e9a14610714578063c07b528a1461074a57600080fd5b806384ae48b51461060a578063860fb05a1461061f5780638bdb2afa1461063f5780638c8011e71461065f5780638d7179381461067f57600080fd5b806368428a1b116101dd578063715018a6116101a1578063715018a6146104fb5780637478093914610510578063796b15531461053d5780637bc1f8f5146105535780637f51bb1f14610573578063845ddcb21461059357600080fd5b806368428a1b146104545780636c5ff4ae1461047e5780636c7835f2146104a65780636e1995cb146104c657806370d1e40b146104db57600080fd5b80632be058f31161022f5780632be058f31461034657806336144c9a1461037357806337c08923146103c45780636386c1c7146103da57806363b78f6d14610407578063678445ee1461042757600080fd5b806306b6367e1461026c5780630f6ca1a81461029257806316c856fc146102bf57806321874ae2146102e15780632ae46c3f1461030e575b600080fd5b61027f61027a3660046120ff565b6108e1565b6040519081526020015b60405180910390f35b34801561029e57600080fd5b5061027f6102ad366004612152565b60106020526000908152604090205481565b3480156102cb57600080fd5b506102df6102da366004612176565b610a7d565b005b3480156102ed57600080fd5b506103016102fc366004612152565b610afb565b6040516102899190612198565b34801561031a57600080fd5b5061027f6103293660046121d1565b601160209081526000928352604080842090915290825290205481565b34801561035257600080fd5b5061027f610361366004612152565b600c6020526000908152604090205481565b34801561037f57600080fd5b506103ac61038e366004612152565b6001600160a01b039081166000908152600860205260409020541690565b6040516001600160a01b039091168152602001610289565b3480156103d057600080fd5b5061027f60045481565b3480156103e657600080fd5b506103fa6103f5366004612152565b610ba6565b6040516102899190612201565b34801561041357600080fd5b506103ac6104223660046122c6565b610daa565b34801561043357600080fd5b5061027f610442366004612152565b600a6020526000908152604090205481565b34801561046057600080fd5b5060055461046e9060ff1681565b6040519015158152602001610289565b34801561048a57600080fd5b5060065460075460408051928352602083019190915201610289565b3480156104b257600080fd5b506102df6104c13660046122f4565b610f4b565b3480156104d257600080fd5b506102df611045565b3480156104e757600080fd5b5061027f6104f6366004612152565b6110b3565b34801561050757600080fd5b506102df6110e1565b34801561051c57600080fd5b5061027f61052b366004612152565b600b6020526000908152604090205481565b34801561054957600080fd5b5061027f61138881565b34801561055f57600080fd5b506102df61056e366004612326565b6110f3565b34801561057f57600080fd5b506102df61058e366004612152565b6111cc565b34801561059f57600080fd5b506105e06105ae366004612326565b600f60205260009081526040902080546001820154600283015460038401546004909401549293919290919060ff1685565b6040805195865260208601949094529284019190915260608301521515608082015260a001610289565b34801561061657600080fd5b506102df611250565b34801561062b57600080fd5b5061027f61063a3660046121d1565b611358565b34801561064b57600080fd5b506002546103ac906001600160a01b031681565b34801561066b57600080fd5b506102df61067a36600461233f565b6113a5565b34801561068b57600080fd5b5061027f60065481565b3480156106a157600080fd5b506000546001600160a01b03166103ac565b3480156106bf57600080fd5b506106c86113f6565b6040516102899190612361565b3480156106e157600080fd5b5060055461046e90610100900460ff1681565b34801561070057600080fd5b506105e061070f366004612326565b6115b2565b34801561072057600080fd5b506103ac61072f366004612152565b6008602052600090815260409020546001600160a01b031681565b34801561075657600080fd5b5061027f610765366004612152565b60096020526000908152604090205481565b34801561078357600080fd5b506103ac7f000000000000000000000000000000000000000000000000000000000000000081565b3480156107b757600080fd5b506103ac7f000000000000000000000000000000000000000000000000000000000000000081565b3480156107eb57600080fd5b506003546103ac906001600160a01b031681565b34801561080b57600080fd5b506102df61081a36600461246e565b611616565b34801561082b57600080fd5b5061027f61083a3660046124af565b611637565b34801561084b57600080fd5b506102df61085a3660046124db565b611749565b34801561086b57600080fd5b506102df61087a36600461233f565b611787565b34801561088b57600080fd5b5061027f60075481565b3480156108a157600080fd5b5061027f600d5481565b3480156108b757600080fd5b506102df6108c6366004612152565b6117d0565b3480156108d757600080fd5b5061027f600e5481565b60006108eb611813565b60055460ff1661090e5760405163b7b2409760e01b815260040160405180910390fd5b6001600160a01b038516610935576040516356e7ec5f60e01b815260040160405180910390fd5b7f00000000000000000000000000000000000000000000000000000000000000006001600160a01b0316856001600160a01b0316036109d2578360000361098f5760405163162908e360e11b815260040160405180910390fd5b6003546109cb906001600160a01b037f00000000000000000000000000000000000000000000000000000000000000008116913391168761183d565b5082610a17565b836000036109f35760405163162908e360e11b815260040160405180910390fd5b610a086001600160a01b03861633308761183d565b610a14858560006118aa565b90505b610a2333828585611ad7565b600d5460408051868152602081018490526001600160a01b0388169133917f8f7a55179307cea51948432d653dbd53a23fedc388bcb3e04e311f8220d87864910160405180910390a4610a7560018055565b949350505050565b610a85611cdd565b611388821180610a96575061138881115b15610ab45760405163a8c753ab60e01b815260040160405180910390fd5b6006829055600781905560408051838152602081018390527f2bab2bad76d463c0a3470aed40d6d2a61922bb2673a255bd6f6b656aa28451b1910160405180910390a15050565b610b2d6040518060a0016040528060008152602001600081526020016000815260200160008152602001600081525090565b6001600160a01b0382166000818152600960209081526040808320548552928252600a8152919020549082018190528151610b68919061251d565b6040808301919091526001600160a01b039092166000818152600b6020908152848220546060850152918152600c9091529190912054608082015290565b610bae61201d565b6001600160a01b0382166000908152601060205260409020548152600e54610bd7576000610bfe565b600d5460009081526011602090815260408083206001600160a01b03861684529091529020545b6040820152600e5467ffffffffffffffff811115610c1e57610c1e612530565b604051908082528060200260200182016040528015610c7557816020015b610c62604051806060016040528060008152602001600081526020016000151581525090565b815260200190600190039081610c3c5790505b5060608201526000805b600e54811015610d145760008181526011602090815260408083206001600160a01b0388168452825291829020548251606080820185528582529281018290528115159381019390935290850151805191929184908110610ce257610ce2612546565b60209081029190910101528015610d015782610cfd8161255c565b9350505b5080610d0c8161255c565b915050610c7f565b5060208083018290526040805160a0810182526001600160a01b0386166000818152600980865284822054808552838352600a87528583205485880181905293909252909452909291830191610d6a919061251d565b81526001600160a01b039094166000818152600b602090815260408083205482890152928252600c90528190205494019390935250608081019190915290565b604080516080810182526101f481526109c46020820152610bb89181019190915261271060608201526000908180805b6004811015610f3e576002546000906001600160a01b0316631698ee828989888660048110610e0b57610e0b612546565b60200201516040516001600160e01b031960e086901b1681526001600160a01b03938416600482015292909116602483015262ffffff166044820152606401602060405180830381865afa158015610e67573d6000803e3d6000fd5b505050506040513d601f19601f82011682018060405250810190610e8b9190612575565b90506001600160a01b03811615610f2b5760008190506000816001600160a01b0316631a6865026040518163ffffffff1660e01b8152600401602060405180830381865afa158015610ee1573d6000803e3d6000fd5b505050506040513d601f19601f82011682018060405250810190610f059190612592565b9050846001600160801b0316816001600160801b03161115610f28578094508295505b50505b5080610f368161255c565b915050610dda565b5090925050505b92915050565b610f53611cdd565b600e548410610f755760405163f384292f60e01b815260040160405180910390fd5b82600003610f965760405163e773e0a960e01b815260040160405180910390fd5b81811015610fb75760405163e773e0a960e01b815260040160405180910390fd5b6000848152600f602052604090206001810154841015610fea5760405163e773e0a960e01b815260040160405180910390fd5b8381556002810183905560038101829055604080518581526020810185905290810183905285907f8801cd9c7e0d9b0ed3a85806cd1f1890396eeb59814f915c53295614f679c6ff9060600160405180910390a25050505050565b61104d611cdd565b600d546000908152600f602052604090206004015460ff16156110b157600d80546000908152600f6020526040808220600401805460ff19169055915491517fc140be611c4cf287a329b09a238f8a5b6c1e166548b361523ec83989e29bcbe79190a25b565b6001600160a01b0381166000908152600a60209081526040808320546009909252822054610f45919061251d565b6110e9611cdd565b6110b16000611d0a565b6110fb611cdd565b600e54811061111d5760405163f384292f60e01b815260040160405180910390fd5b600d546000908152600f602052604090206004015460ff161561118157600d80546000908152600f6020526040808220600401805460ff19169055915491517fc140be611c4cf287a329b09a238f8a5b6c1e166548b361523ec83989e29bcbe79190a25b6000818152600f6020526040808220600401805460ff19166001179055600d8390555182917f03eab6a60b7fa9a8ce2e4f8516274d21fb3606afe26ba1b5bc7e487bd4a25cc691a250565b6111d4611cdd565b6001600160a01b0381166111fb5760405163e6c4247b60e01b815260040160405180910390fd5b600380546001600160a01b0319166001600160a01b0383169081179091556040519081527f7dae230f18360d76a040c81f050aa14eb9d6dc7901b20fc5d855e2a20fe814d1906020015b60405180910390a150565b611258611813565b600554610100900460ff1661128057604051633d7b1fcd60e01b815260040160405180910390fd5b336000908152600a602090815260408083205460099092528220546112a5919061251d565b9050806000036112c857604051636773e7e960e01b815260040160405180910390fd5b33600081815260096020908152604080832054600a90925290912055611319907f00000000000000000000000000000000000000000000000000000000000000006001600160a01b03169083611d5a565b60405181815233907f6cd4d40588b17656762e007b5b0c873a86cc13d23123cd1c44b4389b8aafa1059060200160405180910390a2506110b160018055565b6000600e54831061137c5760405163f384292f60e01b815260040160405180910390fd5b5060009182526011602090815260408084206001600160a01b0393909316845291905290205490565b6113ad611cdd565b600580548215156101000261ff00199091161790556040517ff96818fef2fc4f08203aee26449cd99714ce4d1dc8747553927c851af72172389061124590831515815260200190565b6113fe61207b565b600e54808252600d546020830152600454604083015260055460ff16151560a08301521561148757600d546000818152600f6020908152604091829020825160c08101845293845280549184019190915260018101549183019190915260028101546060808401919091526003820154608084015260049091015460ff16151560a08301528201525b600e5467ffffffffffffffff8111156114a2576114a2612530565b60405190808252806020026020018201604052801561150e57816020015b6114fb6040518060c0016040528060008152602001600081526020016000815260200160008152602001600081526020016000151581525090565b8152602001906001900390816114c05790505b50608082015260005b600e548110156115ae576000818152600f6020908152604091829020825160c081018452848152815492810192909252600181015492820192909252600282015460608201526003820154608080830191909152600483015460ff16151560a083015284015180518490811061158f5761158f612546565b60200260200101819052505080806115a69061255c565b915050611517565b5090565b6000806000806000600e5486106115dc5760405163f384292f60e01b815260040160405180910390fd5b50505060009283525050600f602052604090208054600182015460028301546003840154600490940154929491939092909160ff90911690565b61161e611cdd565b6116326001600160a01b0384168383611d5a565b505050565b6000611641611cdd565b836000036116625760405163e773e0a960e01b815260040160405180910390fd5b828210156116835760405163e773e0a960e01b815260040160405180910390fd5b600e80546040805160a081018252878152600060208083018281528385018a8152606085018a815260808601858152888652600f90945295842094518555905160018501555160028401559251600383015591516004909101805460ff191691151591909117905582549192906116f98361255c565b9091555050604080518681526020810186905290810184905281907fcc2c7ecadea784eb7f00da16e96860d108ef24d3b6a56a376211537bf2a855729060600160405180910390a2949350505050565b611751611cdd565b6040516001600160a01b0383169082156108fc029083906000818181858888f19350505050158015611632573d6000803e3d6000fd5b61178f611cdd565b6005805460ff19168215159081179091556040519081527ff3637cdf61687bb87179d2da614bc1f4aa93c3cbf40282ccd0a15ecad9184cc190602001611245565b6117d8611cdd565b6001600160a01b03811661180757604051631e4fbdf760e01b8152600060048201526024015b60405180910390fd5b61181081611d0a565b50565b60026001540361183657604051633ee5aeb560e01b815260040160405180910390fd5b6002600155565b6040516001600160a01b0384811660248301528381166044830152606482018390526118a49186918216906323b872dd906084015b604051602081830303815290604052915060e01b6020820180516001600160e01b038381831617835250505050611d8b565b50505050565b6040805160e081018252600080825260208201819052918101829052606081018290526080810182905260a0810182905260c08101829052600061190e867f0000000000000000000000000000000000000000000000000000000000000000610daa565b90506001600160a01b03811661193757604051639ebbd11d60e01b815260040160405180910390fd5b6000816001600160a01b031663ddca3f436040518163ffffffff1660e01b8152600401602060405180830381865afa158015611977573d6000803e3d6000fd5b505050506040513d601f19601f8201168201806040525081019061199b91906125bb565b6040805160e0810182526001600160a01b038a811682527f000000000000000000000000000000000000000000000000000000000000000081166020830190815262ffffff858116848601908152600354841660608601908152608086018e8152600060a0880181815260c0890191825298516304e45aaf60e01b815288518816600482015295518716602487015292519093166044850152518416606484015290516084830152935160a48201529251811660c48401529095509192507f0000000000000000000000000000000000000000000000000000000000000000909116906304e45aaf90879060e40160206040518083038185885af1158015611aa7573d6000803e3d6000fd5b50505050506040513d601f19601f82011682018060405250810190611acc91906125e0565b979650505050505050565b600d546000908152600f60205260409020600481015460ff16611b0d57604051630adfa6c760e11b815260040160405180910390fd5b80546001820154611b1f9086906125f9565b1115611b3e576040516318833fa160e01b815260040160405180910390fd5b600d5460009081526011602090815260408083206001600160a01b0389168452909152812054611b6f9086906125f9565b6001600160a01b03871660009081526010602052604081205491925090611b979087906125f9565b90508260020154821015611bbe5760405163fcd2aaeb60e01b815260040160405180910390fd5b8260030154821115611be35760405163c07c075f60e01b815260040160405180910390fd5b6001600160a01b038716600090815260106020526040902054158015611c1157506001600160a01b03851615155b8015611c2f5750866001600160a01b0316856001600160a01b031614155b15611c63576001600160a01b03878116600090815260086020526040902080546001600160a01b0319169187169190911790555b600d5460009081526011602090815260408083206001600160a01b038b168452825280832085905560109091528120829055600184018054889290611ca99084906125f9565b925050819055508560046000828254611cc291906125f9565b90915550611cd4905087878787611dfc565b50505050505050565b6000546001600160a01b031633146110b15760405163118cdaa760e01b81523360048201526024016117fe565b600080546001600160a01b038381166001600160a01b0319831681178455604051919092169283917f8be0079c531659141344cd1fd0a4f28419497f9722a3daafe3b4186f6b6457e09190a35050565b6040516001600160a01b0383811660248301526044820183905261163291859182169063a9059cbb90606401611872565b600080602060008451602086016000885af180611dae576040513d6000823e3d81fd5b50506000513d91508115611dc6578060011415611dd3565b6001600160a01b0384163b155b156118a457604051635274afe760e01b81526001600160a01b03851660048201526024016117fe565b6001600160a01b03821615801590611e265750836001600160a01b0316826001600160a01b031614155b15611efb57600061271060065485611e3e919061260c565b611e489190612623565b6001600160a01b038416600090815260096020526040812080549293508392909190611e759084906125f9565b90915550506001600160a01b0383166000908152600b602052604081208054839290611ea29084906125f9565b90915550506040805160018152602081018690529081018290526001600160a01b0380871691908516907fd61f5cf881361d1e5c459278dcd92cf1e795f07dd5b433fa41a2e7e403d0e4979060600160405180910390a3505b6001600160a01b03811615801590611f255750836001600160a01b0316816001600160a01b031614155b8015611f435750816001600160a01b0316816001600160a01b031614155b156118a457600061271060075485611f5b919061260c565b611f659190612623565b6001600160a01b038316600090815260096020526040812080549293508392909190611f929084906125f9565b90915550506001600160a01b0382166000908152600c602052604081208054839290611fbf9084906125f9565b90915550506040805160028152602081018690529081018290526001600160a01b0380871691908416907fd61f5cf881361d1e5c459278dcd92cf1e795f07dd5b433fa41a2e7e403d0e4979060600160405180910390a35050505050565b6040518060a00160405280600081526020016000815260200160008152602001606081526020016120766040518060a0016040528060008152602001600081526020016000815260200160008152602001600081525090565b905290565b6040518060c001604052806000815260200160008152602001600081526020016120d66040518060c0016040528060008152602001600081526020016000815260200160008152602001600081526020016000151581525090565b815260606020820152600060409091015290565b6001600160a01b038116811461181057600080fd5b6000806000806080858703121561211557600080fd5b8435612120816120ea565b9350602085013592506040850135612137816120ea565b91506060850135612147816120ea565b939692955090935050565b60006020828403121561216457600080fd5b813561216f816120ea565b9392505050565b6000806040838503121561218957600080fd5b50508035926020909101359150565b60a08101610f45828480518252602081015160208301526040810151604083015260608101516060830152608081015160808301525050565b600080604083850312156121e457600080fd5b8235915060208301356121f6816120ea565b809150509250929050565b602080825282518282015282810151604080840191909152808401516060808501919091528085015161012060808601528051610140860181905260009493918401928592916101608801905b8085101561228157855180518352878101518884015284015115158483015294860194600194909401939082019061224e565b50608089810151805160a08b0152602081015160c08b0152604081015160e08b015260608101516101008b0152908101516101208a0152955098975050505050505050565b600080604083850312156122d957600080fd5b82356122e4816120ea565b915060208301356121f6816120ea565b6000806000806080858703121561230a57600080fd5b5050823594602084013594506040840135936060013592509050565b60006020828403121561233857600080fd5b5035919050565b60006020828403121561235157600080fd5b8135801515811461216f57600080fd5b6000602080835261018083018451828501528185015160408501526040850151606085015260608501516123cf6080860182805182526020810151602083015260408101516040830152606081015160608301526080810151608083015260a0810151151560a08301525050565b506080850151610160610140860181905281519283905290830191600091906101a08701905b808410156124555761243f828651805182526020810151602083015260408101516040830152606081015160608301526080810151608083015260a0810151151560a08301525050565b60c08201915085850194506001840193506123f5565b5060a09790970151151595019490945250929392505050565b60008060006060848603121561248357600080fd5b833561248e816120ea565b9250602084013561249e816120ea565b929592945050506040919091013590565b6000806000606084860312156124c457600080fd5b505081359360208301359350604090920135919050565b600080604083850312156124ee57600080fd5b82356124f9816120ea565b946020939093013593505050565b634e487b7160e01b600052601160045260246000fd5b81810381811115610f4557610f45612507565b634e487b7160e01b600052604160045260246000fd5b634e487b7160e01b600052603260045260246000fd5b60006001820161256e5761256e612507565b5060010190565b60006020828403121561258757600080fd5b815161216f816120ea565b6000602082840312156125a457600080fd5b81516001600160801b038116811461216f57600080fd5b6000602082840312156125cd57600080fd5b815162ffffff8116811461216f57600080fd5b6000602082840312156125f257600080fd5b5051919050565b80820180821115610f4557610f45612507565b8082028115828204841417610f4557610f45612507565b60008261264057634e487b7160e01b600052601260045260246000fd5b50049056fea264697066735822122081e1ed3ab63a1fd2715f071c52cdab3c83ff61d6b19b8d45b1c6c7b9d6fed5e964736f6c63430008140033",
  "linkReferences": {},
  "deployedLinkReferences": {}
}